:020000040800F2
:1000000048140020B9020008C1020008C302000819
:10001000C5020008C7020008C9020008000000006D
:10002000000000000000000000000000CB020008FB
:10003000CD02000800000000CF020008D102000835
:10004000D3020008D3020008D3020008D30200083C
:10005000D3020008D3020008D3020008D30200082C
:10006000D3020008D3020008D3020008C505000827
:10007000D3020008D3020008D3020008D30200080C
:10008000D3020008D3020008D3020008D3020008FC
:10009000D3020008D3020008D3020008D3020008EC
:1000A000D3020008C5360008D3020008D3020008B6
:1000B000D3020008D3020008D3020008D3020008CC
:1000C000D3020008D3020008D3020008D3020008BC
:1000D000D3020008D3020008D3020008D3020008AC
:1000E000D3020008D3020008D3020008D30200089C
:1000F000D3020008D3020008D3020008D30200088C
:10010000D3020008D3020008D3020008D30200087B
:10011000D3020008D3020008D3020008D30200086B
:10012000D3020008D3020008D3020008D30200085B
:10013000D3020008D3020008D3020008D30200084B
:10014000D3020008D3020008D3020008D30200083B
:10015000D3020008D3020008D3020008D30200082B
:10016000D3020008D3020008D3020008D30200081B
:10017000D3020008D3020008D3020008D30200080B
:10018000D3020008D3020008D3020008D3020008FB
:10019000D302000800000000D3020008D3020008C8
:1001A000D3020008D3020008D3020008D3020008DB
:1001B000D3020008D3020008D3020008D3020008CB
:1001C000D3020008D3020008D3020008D3020008BB
:1001D000D3020008D302000800F002F800F05CF837
:1001E0000AA090E8000C82448344AAF10107DA4592
:1001F00001D100F051F8AFF2090EBAE80F0013F088
:10020000010F18BFFB1A43F0010318478C40000090
:10021000AC4000000A444FF0000C10F8013B13F012
:10022000070408BF10F8014B1D1108BF10F8015B4F
:10023000641E05D010F8016B641E01F8016BF9D142
:1002400013F0080F1EBF10F8014BAD1C0C1B09D199
:100250006D1E58BF01F801CBFAD505E014F8016B0B
:1002600001F8016B6D1EF9D59142D6D3704700009D
:100270000023002400250026103A28BF78C1FBD8AF
:10028000520728BF30C148BF0B6070471FB503F04D
:10029000D6FF1FBD10B510BD00F0CFF81146FFF717
:1002A000F5FF03F05DFF00F0EDF803B4FFF7F2FF98
:1002B00003BC00F0F5F800000948804709480047F2
:1002C000FEE7FEE7FEE7FEE7FEE7FEE7FEE7FEE706
:1002D000FEE7FEE704480549054A064B7047000063
:1002E000B1360008D9010008480E0020481400204B
:1002F000481000204810002053EA020C00F06980EA
:100300002DE9F04B4FF00006002B1FBFB3FA83F529
:1003100003FA05F424FA05F65E4012BF1643B2FA5A
:1003200082F502FA05F4C5F120051EBF22FA05FC8C
:1003300044EA0C04203556EA044C4FEA144418BF32
:10034000641C4FF000084FF00009904271EB030C61
:1003500039D3002919BFB1FA81F701FA07F6B0FACB
:1003600080F700FA07F6C7F120071EBF20FA07FC46
:1003700046EA0C062037B6FBF4FCA7EB0507103F56
:1003800007F01F0BCBF120062CFA06F60CFA0BFB3C
:1003900044BFB3460026202FA4BF5E464FF0000B9B
:1003A0005BEA060C08BF4FF0010B19EB0B0948EB99
:1003B0000608ABFB027C06FB02CC0BFB03CCC01B8C
:1003C00071EB0C01C1E70B46024641464846BDE8C9
:1003D000F08B13B54FF000004FF00001AFF3008039
:1003E000BDE81C4070474FF0000200B5134694462C
:1003F0009646203922BFA0E80C50A0E80C50B1F17D
:100400002001BFF4F7AF090728BFA0E80C5048BF90
:100410000CC05DF804EB890028BF40F8042B08BF2E
:10042000704748BF20F8022B11F0804F18BF00F82A
:10043000012B7047704770477047754600F02CF8E5
:10044000AE4605006946534620F00700854618B0C1
:1004500020B5FFF73FFFBDE820404FF000064FF00A
:1004600000074FF000084FF0000BAC46ACE8C009A5
:10047000ACE8C009ACE8C009ACE8C00921F007014C
:100480008D46704710B50446AFF300802046BDE8A6
:100490001040FFF70ABF000000487047D00B002053
:1004A00001491820ABBEFEE726000200704700009D
:1004B0000146806AC36DC26D13F0500F07D0D2069B
:1004C00048BF00F039BB406D426B0846104742F40C
:1004D0000071C16501680B68CA681B070DD49107DC
:1004E00020D4C16D21F48071C165C16DC9045EBFA6
:1004F000C16D41F00101C16514E012F4406F11D1EA
:10050000C96889040ED4C16D21F48071C165C16DC3
:10051000C90448BF00F00CBBC16D41F00101C165C9
:1005200000F006BB00F004BB806AC16D41F04001E1
:10053000C165016E41F00401016600F0FDBA0000E2
:10054000806A00F0F7BA000070B504460068816860
:10055000C90735D14FF6C0768168C7F6FF7606F138
:100560007F02114209D0E06D40F01000E065206E7E
:1005700040F001002066012070BD8168314041F0EB
:100580000101816000F006FF054620680168C90787
:100590001CBF002070BD00BF8168C90704D18168FD
:1005A000314041F00101816000F0F4FE411B206800
:1005B000032902D30168C907D5D00168C907EBD068
:1005C000002070BD40F6A4400223C2F20000D0E932
:1005D000101202F01F0203FA02F24A60002180F8B2
:1005E0002410C16A002908BF704740F6A440C2F237
:1005F00000000847EFF3108072B600BFFEE700006E
:1006000090F85820012A02BF022108467047B0B571
:1006100082B0012240F2080C80F858200022C5F276
:10062000000C019200920CF1F80E0368B3F1A04F98
:1006300008D040F20042C5F2000293423AD10CF5D4
:100640009F6200E0724692689C682243520731D450
:100650000CF53E747345224618BF0CF5DF62B3F10A
:10066000A04F08BF2246D1F800E0946824F460440B
:10067000BEF1000F2BD04D6843F480732C4390F8EB
:10068000385044EA4534946040F20014C5F2000446
:10069000A34233D1DCF80030DCF800412343DB0710
:1006A00036D19368896840F61F75AB4341EA0E0165
:1006B000194320E0C16D41F02001C16501210022F4
:1006C00080F8582002B0BDE8B0400846704743F4B7
:1006D000807140F200139460C5F20003994219D171
:1006E000DCF80010DCF800311943C9071CD191680F
:1006F00040F61F73994391600021E0E7DCF8003475
:10070000DCF800451C43DCF800362343DB07C8D087
:100710000021D4E7DCF80014DCF800350B43DCF8EA
:1007200000161943C907E2D00021C8E72DE9F041BE
:1007300081B00022009290F85820012A04D10221B1
:10074000084601B0BDE8F081012280F85820076812
:10075000BB685B0736D4D1E900351F2205F01F04C2
:10076000C5F3012507EB8505A2402E6BC3F3846317
:10077000A34026EA02021A432A63BA68BB68DB0870
:1007800043EA9202D20740F096800A68D1F80880C6
:1007900007F114030725C2F34066B8F1004F53F880
:1007A0002660C2F3045405FA04F526EA050C4FF05E
:1007B000040606EAD25E0BD143F80EC01A6842F076
:1007C00000430EE0C16D41F02001C1650121A8E1A7
:1007D00008FA04F242EA0C0243F80E201A6822F0EA
:1007E00000437B61D1E90435FC68042B67D13A6E84
:1007F0004FF6FF743A6E0B68C0F207049E46C3F3CF
:10080000846C93FAA3F3B3FA83F36FF3DF4E1D46C0
:10081000BEF1000F08BF6546C2F38462AA420CD144
:100820003A6E22F000423A660A6802EA040EC2F307
:10083000846C92FAA2F2B2FA82F37A6EBEF1000FE1
:100840001A4608BF62467D6EC5F3846595420CD199
:100850007A6E22F000427A660A6802EA040EC2F357
:10086000846C92FAA2F2B2FA82F3BA6EBEF1000F71
:100870001A4608BF6246BD6EC5F3846595420CD129
:10088000BA6E22F00042BA660A6802EA040EC2F3A7
:10089000846C92FAA2F2B2FA82F3FA6EBEF1000F01
:1008A00008BF6346FA6EC2F384629A4202BFFA6ED0
:1008B00022F00042FA66BA68D20732D084E007F12B
:1008C00060064FF20002D1F800C056F823E0C0F2F3
:1008D000FF320EEA020E062202EA940205FA02F242
:1008E0000CF0F8452A4342EA0E0242F0004246F874
:1008F00023200A698B6956F8225025F080752B4316
:1009000046F822300B690A7F56F82350012A25F059
:10091000007508BF05F1007546F82350BA68D20784
:1009200052D10C680026CA68C4F27F062346B24240
:100930006FF3DF4320D1D7F8B020002B42EA030247
:10094000C7F8B02094FAA4F2B2FA82F52A4608BF9A
:10095000A20EA40E013202F01E02092A12D8002BA8
:1009600014BF6A1C621C02F01F0301229A4003EBB1
:10097000430342EA035317E0D7F8B0209A43C7F87D
:10098000B02021E0002B14BF6A1C621C002602F07C
:100990001F030122CFF620669A4003EB430306EBC8
:1009A00003531A4342F00073C3F30452C3F340638A
:1009B00007268D6807EB830396405C6905FA02F20F
:1009C00024EA060632435A610B680021C8F2080186
:1009D0000B4266D040F2003E0022C5F2000ECCF27F
:1009E0002132AEF500710EF580648F4204BF40F2F3
:1009F0000034C5F200042146B7F1A04F04BF40F215
:100A00000031C5F200018D68934205F0E07C04D00E
:100A10001022C9F2C002934245D129025FD4B7F136
:100A2000A04F06D040F20061C5F200018F4258D1BC
:100A3000A646DEF8081042F66352C0F23E5221F09C
:100A4000E07141EA0C0141F40001CEF8081040F6D3
:100A5000C031C2F2000109688909A1FB02129109A3
:100A60000C2201EB410102EB810100910099002968
:100A700043D0009901390091009900293FD0009995
:100A8000013900910099E1B3009901390091009971
:100A9000C9B30099013900910021009A002AE8D1D8
:100AA0003FE000213DE00022CCF25272934208BFA9
:100AB00015F0807217D000220021CCF684329342C8
:100AC00008BF15F480022CD1B7F1A04F1ED040F220
:100AD0000011C5F200018F4217D1002121E0002151
:100AE0001FE000211DE08A6822F0E07242EA0C0259
:100AF00042F080728A60002113E0002111E00021A1
:100B00000FE000210DE000210BE0A646DEF8081002
:100B100021F0E07141EA0C0141F48001CEF80810A7
:100B20000021002280F85820084601B0BDE8F0817D
:100B3000704700007047000070470000B0B582B0F9
:100B400004460020002C019009D0E06D50B12168CE
:100B50008868800011D48868C00018D54BE0012057
:100B600002B0B0BD204600F023F9002084F8580000
:100B70002066216888688000EDD54FF6C0728868CD
:100B8000C5F6FF72104088608868C00033D44FF605
:100B9000C0728868C5F6FF7202F18052104042F6BA
:100BA000635240F08050C0F23E52886040F6C03040
:100BB000C2F2000000688009A0FB02029009022234
:100BC00002EB40000190019828B914E00198013827
:100BD0000190019878B1019801380190019850B1C5
:100BE000019801380190019828B1019801380190CD
:100BF00001980028EAD18868C00009D4E06D40F06F
:100C00001000E065206E40F001002066012000E049
:100C100000208A68C2F38002E36D03F01003D2184B
:100C2000E26D05D042F010010120E16502B0B0BDD7
:100C300022F481720232E2658A68D20727D140F23B
:100C4000001340F2080C41F48072C5F20003C5F2B3
:100C5000000C9A426CD1DCF80030DCF800211A4319
:100C6000D20714D10CF1F8020CF53E7391421A46EA
:100C700018BF0CF5DF62B1F1A04F08BF1A46D4F8D7
:100C800004C0936823F47C1343EA0C039360627FEF
:100C9000E36B43EA423CD4E9023242EA0C021A43D3
:100CA00094F8243042EA0342012B07D10023D4F800
:100CB00028C0CFF6FE7303EB4C431A43E36A23B11B
:100CC00003F478731A43236B1A4344F20703D1F8F1
:100CD0000CC0CFF6F07303EA0C031A43CA600A692A
:100CE000636B22F040621A430A618A688B68DB08F2
:100CF00043EA9202D20749D194F81CC094F838E034
:100D0000CA6844F202039A434FEA4E0343EA8C3323
:100D10001A43CA6022690B69AAB143F480330B619C
:100D200043F6FF73D1F8C0C02CEA03031A4312E064
:100D3000DCF80024DCF800351A43DCF800361A43EE
:100D4000D2078FD0A3E723F4803243F6FF730A6102
:100D5000D1F8C0209A43C1F8C02094F840300A6905
:100D6000012B10D140F2FD7322EA030CD4E91132B9
:100D7000D4E913E543EA0C031A4342EA0E022A437C
:100D800042F0010201E022F001020A6163690A6B8C
:100D900022F00F02012B02BF236A013B1A430A63B0
:100DA000E16D012262F30101E16502B0B0BD000016
:100DB00070B59CB00446002054211B90CDE9190069
:100DC000CDE9170002A8FFF70EFB2068B0F1A04F95
:100DD00001D01CB070BD4FF0005013904FF4004094
:100DE000029002A800F044FC002818BFFFF702FCA4
:100DF00041F24C000026C4F20200016841F40051A7
:100E00000160016801F4005101910199016841F00C
:100E10000101016017A9006800F00100019001982C
:100E2000199603201890072017904FF0904000F07B
:100E3000C7F940F6A44508214FF440504FF0200C6C
:100E40004FF4806E4FF480728023C2F20005C4F22A
:100E5000020128620520C5E900102846C5E902669E
:100E6000C5E90432C5E906EC00F0A0F8002818BF77
:100E7000FFF7C0FB6565AC621CB070BD2DE9F041A9
:100E800040F2001704460E4600689046C5F200077F
:100E900007F50071B8420A4618BF07F5C062B0F105
:100EA000A04F08BF0A4691688268520703D494F89D
:100EB0005820012A02D10220BDE8F08101F01F056F
:100EC000012184F8581007F5A061884207D0092D48
:100ED00066D8012040F22121A840084260D0204677
:100EE000FFF732FB00281EBF002184F85810BDE830
:100EF000F0812168E06D40F601729043B94200F53F
:100F00008070E0650CD040F20050C5F200008142D4
:100F10000CD107F54070002D18BF88420AD105E0BA
:100F20004FF0A040002D18BF884203D1E06D20F49F
:100F30008010E065E06D40F2295340F2415740F2E5
:100F4000B1450022C0F60003C0F60007C0F6000558
:100F5000C0044FF0000044BF206E20F00600206661
:100F6000606DC0E90B5743631C230B6084F8582065
:100F700043464A6842F010024A60CA6842F00102E1
:100F8000CA604031324600F0ABF821684FF6C073BA
:100F9000C7F6FF738A681A4004328A60BDE8F081A0
:100FA000002084F858000120BDE8F08101210028CC
:100FB00000F093802DE9F04F02224CF6CD4747F622
:100FC000F07600F1180C80F825200022CCF6CC47F2
:100FD000C4F20202036802F5816802F580624345AB
:100FE0003CBF0022C4F2020202644FF6F832CBF694
:100FF000FD7238BF02F5806243451A44A2FB072404
:101000006FF0030202EA940AC0F844A01A68D0E91B
:101010000297D0E9045E22EA060B9CE850104BEAE6
:10102000090242EA07024CF6CD4742EA0502CCF635
:10103000CC4742EA0E0242EA040242EA060240F2C9
:10104000000642EA0C02C4F202061A6006F50862C3
:10105000C2646FF0070252FA83F2A2FB0727C7F3BC
:10106000041201FA02F506F50261056538BF06F5BE
:1010700000610AEB0103B9F5804F40F684018364F7
:10108000C4F2020104D1002242601A600D6016E031
:101090004268D4B21C60531E00220D60032B0ED890
:1010A000631E01F1BC0501EB830747F87C2F03F0B9
:1010B0001F02012393403A46C1F8C03001E00025E9
:1010C00000230021C163C0E915250122C36580F812
:1010D000241080F82520BDE8F04F08467047000036
:1010E00090F824C0BCF1010F44D04FF0010C80F8FF
:1010F00024C090F825C0BCF1010F38D170B54FF075
:10110000020C012680F825C04FF0000CC0F83CC04E
:10111000D0F800C0DCF800E02EF0010ECCF800E0C2
:10112000D0E913E4CEF80440D0F854E0BEF1000F4B
:101130001CBFD0E916456560D0E9104505F01F05D4
:1011400006FA05F56560CCF804308368102B0B4671
:1011500008BF1346CCF8083008BF0A46CCF80C206C
:10116000026BDCF800103AB141F00E010CE00021F6
:1011700080F824100220704721F00401CCF8001000
:10118000DCF8001041F00A01CCF80010806C016816
:10119000C90342BF016841F480710160BEF1000FD4
:1011A0001EBFDEF8000040F48070CEF80000DCF8CE
:1011B000000040F00100CCF80000002070BD0000ED
:1011C0002DE9F04F82B00E68002E00F0DA8041F277
:1011D000004206274FF0000A00244FF00008C4F632
:1011E0000002904200F1384208BF05274FEAB223BF
:1011F000052B38BF4FEAB227009701277B1E01223B
:1012000002FA03F516EA050900F0AF80D1F804B040
:101210000BF00306721E012A18D8032202FA04FCFE
:10122000826822EA0C0ECA686FEA0C0CA24042EAFD
:101230000E028260CBF3001202FA03FE4268AA4358
:1012400042EA0E024FEA480E42600BE00322032EF0
:10125000A64602FA04F26FEA020C03D1A646032660
:1012600022E000BFC2688D68022E02EA0C0205FA75
:101270000EF542EA0502C26016D10AF01C020F25E3
:1012800005FA02FB6FF0030505EA53060644356ACA
:1012900025EA0B0B0D6905FA02F242EA0B023262F3
:1012A000D1F804B00BF0030606FA0EF206681BF440
:1012B000403F06EA0C0642EA0602026055D041F2BF
:1012C000600240F2004E0AF00C05C4F20202C4F2C1
:1012D000010E1646126842F001023260326802F0D6
:1012E0000102019223F003024FF60843CFF6FF7389
:1012F0007244019E9B4652F803C00F2303FA05F681
:10130000009B2CEA060603FA05F52E4342F80B6013
:10131000DEF808204D6842EA0906EB0258BF22EACF
:10132000090640F20C42CEF80860C4F20102AE0297
:101330009446126842EA090358BF22EA0903CCF82E
:101340000030AE03DEF8042042EA090358BF22EA67
:101350000903CEF80430EE03DEF8002042EA090368
:1013600058BF22EA0903CEF800300E680AF1040AD9
:10137000023408F1010836FA07F207F101077FF499
:101380003DAF02B0BDE8F08F1823002A08BF282324
:10139000C150704740F64060C2F2000000687047DC
:1013A00080B5032000F0B4F8072000F009F8002809
:1013B0001CBF012080BD00F029F8002080BD000086
:1013C00070B540F200060446C2F200067068D0B163
:1013D0004FF47A71B1FBF0F040F6C031C2F2000177
:1013E0000968B1FBF0F000F003FF01250F2C08D8CD
:1013F00038B94FF0FF3021460022002500F05AF89E
:101400003460284670BD0125284670BD80B582B085
:1014100041F25800C4F20200816841F0010181608C
:10142000816801F0010101910199016841F0805149
:101430000160006800F0805000900098042000F0E7
:1014400067F86FF00B000221002200F033F86FF014
:101450000A000221002200F02DF86FF0090002219D
:10146000002200F027F86FF004000221002200F0B3
:1014700021F86FF003000221002200F01BF86FF04A
:1014800001000221002200F015F802B0BDE8804002
:1014900000F0E4B80028B8BF704700F01F01012237
:1014A000400902FA01F14EF20012CEF2000242F8B7
:1014B0002010704710B500F00F034EF60C5E00F1DF
:1014C000604CB0F1FF3FA3F10403CEF2000E734471
:1014D00003F10C04C8BF0CF56444DEF800004FF0C3
:1014E000FF3CC0F30220C31E80F0070038BF00237A
:1014F000042828BF04200CFA00F021EA00000CFAAE
:1015000003F1984022EA010108430001207010BD58
:101510004EF60C514FF6FF03CEF200010A681A4056
:1015200060F30A2242F0806040F0FD70086070476E
:10153000002847D047F21401B0F5007FC4F2000143
:1015400051F8142C40F08280C86E40F48070C86658
:1015500002F4C060B0F5806F76D151F8140C01220E
:1015600062F34A20322241F8140C40F6C030C2F235
:101570000000006850434DF68362C4F21B32A0FBAA
:101580000202900C0A68431C18BF12F4806212D049
:101590000A68002818BF12F480620CD00A6801287B
:1015A00018BF12F4806206D00A68022803D00438FB
:1015B00012F48062E6D10868400544BF03207047FA
:1015C0000020704747F21400C4F2000050F8141CC9
:1015D000C26E01F4C06122F48072B1F5806FC26600
:1015E00032D150F8141C012262F34A21322240F811
:1015F000141C40F6C031C2F20001096851434DF697
:101600008362C4F21B32A1FB0212910C02684B1CD4
:1016100018BF12F4806212D00268002918BF12F4B9
:1016200080620CD00268012918BF12F4806206D0D3
:101630000268022903D0043912F48062E6D10068FE
:10164000400544BF0320704700207047022060F32C
:101650004A2241F8142C00207047000047F208008D
:10166000C4F20000016841F480410160704700004D
:101670002DE9F04182B00446807841F28806C4F238
:101680000206000704D400202168CA0760D165E083
:1016900056F8300CC0000ED456F8300C4FF001084C
:1016A00040F0805046F8300C56F8300C00F0805076
:1016B0000190019801E04FF0000847F20007C4F2E2
:1016C0000007386840F480703860FFF763FE054615
:1016D0003868C00506D4FFF75DFE401B0228F7D925
:1016E000032029E0B06810F440701ED0216D8842BC
:1016F0000BD0B068B16841F4803120F44070B16023
:10170000B16821F48031B160B060C0070DD0FFF73F
:1017100041FE054641F28837B068800705D4FFF7DF
:1017200039FE401BB842F7D9DAE7B068216D20F4E2
:1017300040700843B0600020B8F1000F1EBF56F89B
:10174000301C21F0805146F8301C2168CA0705D0B2
:101750003268636822F003021A4332608A072AD48F
:101760004A0730D40A0736D4CA063CD48A0642D483
:101770004A0648D40A064ED4CA0554D48A035AD419
:101780008A0560D44A0566D40A0577D4CA0400F1F4
:1017900088808A0400F198804A0400F1A8800A0435
:1017A00000F1B880CA0300F1C880490300F1D88075
:1017B00002B0BDE8F0813268A36822F00C021A433F
:1017C00032604A07CED53268E36822F030021A430D
:1017D00032600A07C8D53268236922F0C0021A4372
:1017E0003260CA06C2D53268636922F440721A4375
:1017F00032608A06BCD53268A36922F440621A437B
:1018000032604A06B6D53268E36922F440521A4380
:1018100032600A06B0D53268236A22F440421A4385
:101820003260CA05AAD53268636A22F440321A438C
:1018300032608A03A4D57269A36A22F003021A43B4
:1018400072618A059ED53268E36A22F440221A4307
:1018500032604A0598D53268236B22F44012B3F502
:10186000801F42EA0302326002BF56F87C2C42F429
:10187000801246F87C2C0A057FF588AF3268636BCE
:1018800022F44002B3F5800F42EA0302326002BF45
:1018900056F87C2C42F4801246F87C2CCA047FF562
:1018A00078AF3268A36B22F04072B3F1807F42EAD6
:1018B0000302326002BF56F87C2C42F4801246F8D4
:1018C0007C2C8A047FF568AF3268E36B22F04062BB
:1018D000B3F1006F42EA0302326002BF56F87C2C7B
:1018E00042F4801246F87C2C4A047FF558AF3268E7
:1018F000236C22F04062B3F1006F42EA03023260CF
:1019000002BF56F87C2C42F4801246F87C2C0A0464
:101910007FF548AF3268636C22F04052B3F1805FCC
:1019200042EA0302326002BF56F87C2C42F4803255
:1019300046F87C2CCA037FF538AF3268A36C22F0DE
:101940004042B3F1804F42EA0302326002BF56F8D0
:101950007C2C42F4803246F87C2C49037FF528AF7A
:101960007169E26C21F44011B2F5001F41EA0201F5
:10197000716102BF56F87C1C41F4801146F87C1C52
:1019800002B0BDE8F08100002DE9F047002800F02A
:10199000AC8042F2000A04460D46C4F2020ADAF8AC
:1019A000000000F00F0088420DD2DAF8000020F0AD
:1019B0000F002843CAF80000DAF8000000F00F001A
:1019C000A84240F09280216841F20808C4F202085F
:1019D000C80743D14FF00009880700F1F180B9F141
:1019E000800F04D1D8F8000020F0F000FFE0DAF812
:1019F000000000F00F00A84240F20281DAF8000077
:101A000020F00F002843CAF80000FFF7C3FC064689
:101A100041F28837DAF8000000F00F00A8420DD03C
:101A2000FFF7B8FC801BB84284BF0320BDE8F087F5
:101A3000DAF8000000F00F00A842F1D12168480751
:101A400040F1E180D8F80000E26820F4E060104343
:101A5000C8F80000080700F1D880DFE060680328BC
:101A600037D158F8082C92013FD5D8F80420D8F87F
:101A70000430D8F804C0D8F804600227C6F34166E1
:101A800002F0030207EB460742F20046032AC0F2C7
:101A9000F40604BF43F20066C0F26E16C3F30312ED
:101AA000CCF306230132B6FBF2F25A434BF2004369
:101AB000B2FBF7F2C0F2C4439A425ED9D8F80020D4
:101AC00012F0F00F4FD0890757D5A168002954D1E3
:101AD00049E058F8081C022805D189035CBF0120A1
:101AE000BDE8F08704E0490502D40120BDE8F08795
:101AF000D8F8001001F00C0104293ED0D8F80010ED
:101B000001F00C01082938D0D8F8001001F00C01C0
:101B10000C2932D1D8F80410D8F80420D8F80430B1
:101B2000D8F804700226C7F3416701F0030106EB01
:101B3000470742F200460329C0F2F40604BF43F20D
:101B40000066C0F26E16C2F30311C3F30622013120
:101B5000B6FBF1F151434BF20042B1FBF7F1C0F299
:101B6000C442914209D9D8F8001008224FF08009E8
:101B700062F30711C8F8001001E04FF00009D8F82F
:101B8000001021F003010843C8F80000FFF702FC31
:101B9000064641F2883707E0FFF7FCFB801BB8429E
:101BA00084BF0320BDE8F087D8F80000616800F02A
:101BB0000C00B0EB810FEFD1216888077FF50FAFE4
:101BC000480742BFD8F8000040F4E060C8F80000C1
:101BD000080706D5D8F80000072262F30D20C8F8E0
:101BE0000000D8F80000A26820F0F0001043C8F808
:101BF0000000DAF8000000F00F00A8423FF6FEAE49
:101C000048073FF51FAF080708D5D8F8000021693D
:101C100020F4605040EAC100C8F80000D8F8000085
:101C200042F20041C0F2F40100F00C000428084622
:101C30002DD0D8F8000000F00C0243F20060C0F292
:101C40006E10082A23D0D8F8002002F00C020C2ACB
:101C50001CD1D8F8042002F00302032A08BF014671
:101C6000D8F804000222C0F303100130B1FBF0F0F9
:101C7000D8F80410C1F306214843D8F80410C1F382
:101C8000416102EB4101B0FBF1F000E00020D8F827
:101C9000001044F25822C0F60002C1F30311515C57
:101CA00001F01F01C84040F6C031C2F200010860D7
:101CB00040F20000C2F200000068BDE8F047FFF704
:101CC0007FBB000040F6C03041F2080144F26822B8
:101CD000C2F20000C4F20201C0F600020068096806
:101CE000C1F30221515C01F01F01C84070470000A0
:101CF00040F6C03041F2080144F26822C2F200000E
:101D0000C4F20201C0F6000200680968C1F3C221F2
:101D1000515C01F01F01C8407047000041F20C0106
:101D200042F20042C4F20201C0F2F40251F8040C83
:101D300000F00C000428104608BF704751F8040C4E
:101D400000F00C0343F20060C0F26E10082B1FD0AD
:101D500051F8043C03F00C030C2B1CBF002070470F
:101D60000B6803F00303032B08BF02460868C0F3A7
:101D700003100130B2FBF0F00A68C2F306220968D2
:101D800050430222C1F3416102EB4101B0FBF1F08B
:101D9000704700002DE9F04182B0002800F0BA81C0
:101DA0000446007841F20006C4F20206C0071ED1C4
:101DB0002078800747D42078000740F1B780616918
:101DC000D6F89400002900F0848040F00100C6F8A5
:101DD0009400FFF7DFFA0546D6F89400800700F17B
:101DE000A580FFF7D7FA401B0228F5D9EBE0B168D0
:101DF000F06801F00C01082949D0032281F00C01A0
:101E000022EA00000844B0FA80F040093FD1676838
:101E1000B7F5803F07D03068B7F5A02F40F0D780E6
:101E200040F480203060306840F480303060FFF74C
:101E3000B1FA054630688003BAD4FFF7ABFA401B0D
:101E40006428F7D9BFE0B068F16800F00C000428FE
:101E500026D001F0030180F00C0081F0020108445B
:101E6000B0FA80F040091BD1E1683068002941D008
:101E700040F480703060FFF78DFA05463068400509
:101E800049D4FFF787FA401B0228F7D99BE0306856
:101E900080037FF58DAF606800287FF489AF39E15A
:101EA0003068400503D5E068002800F03381706891
:101EB000216920F0FE4040EA0160706040F20000BD
:101EC000C2F200000068FFF77BFA002840F0228190
:101ED00071E720F00100C6F89400FFF75BFA0546B1
:101EE000D6F89400800721D5FFF754FA401B02284A
:101EF000F6D968E020F480703060FFF74BFA0546B1
:101F0000306840057FF557AFFFF744FA411B0320C7
:101F10000229F5D969E17068216920F0FE4040EAA4
:101F200001607060207800073FF549AF20784007D6
:101F300040F18880B06DC0000BD4B06D4FF0010847
:101F400040F08050B065B06D00F080500190019875
:101F500001E04FF0000847F20007C4F200073868BC
:101F6000C00510D4386840F480703860FFF712FA6A
:101F7000054600BF3868C00505D4FFF70BFA401BC3
:101F80000228F7D91FE0A768012F07D0D6F89000E4
:101F9000052F34D140F00400C6F89000D6F8900028
:101FA00040F00100C6F89000FFF7F4F9054641F251
:101FB000883700BFD6F8900080073CD4FFF7EAF9D5
:101FC000401BB842F6D9032002B0BDE8F08120F4EE
:101FD00080303060306820F480203060FFF7DAF91C
:101FE0000546002F7FF426AF306880037FF5E0AE12
:101FF000FFF7D0F9411B03206429F5D9F5E020F063
:102000000100C6F89000D6F8900020F00400C6F851
:102010009000FFF7BFF90546002FC8D141F288377D
:10202000D6F89000800706D5FFF7B4F9411B0320CE
:10203000B942F5D9D9E0B8F1000F1EBFB06D20F05C
:102040008050B0652078800627D5A169D6F8980021
:1020500089B140F00100C6F89800FFF79BF90546EA
:10206000D6F89800800718D4FFF794F9411B032095
:102070000229F5D9B9E020F00100C6F89800FFF771
:1020800089F90546D6F89800800706D5FFF782F94A
:10209000411B03200229F5D9A7E0E069002800F0E0
:1020A000A380B16801F00C010C2937D1012831D08F
:1020B000F068216A00F003028A422BD1616A6FF056
:1020C0000F0202EB011100F0F0028A4222D1A16A54
:1020D00000F4FE42B2EB012F1CD1E16A00F078421D
:1020E000B2EBC16F16D10022216BCFF6E07202EA8B
:1020F000015100F4C002A1F500118A420AD1616BBE
:102100004FF07E4200F0C06002EA016101F17E41C1
:10211000884269D0012002B0BDE8F0813168022810
:1021200021F0807131600DD1FFF734F9054600BF11
:10213000306880011ED5FFF72DF9411B03200229CD
:10214000F6D952E0F0684FF6FF71CFF6EE6120F05D
:102150000300F060F0680840F060FFF71BF90446E8
:102160003068800140D5FFF715F9011B03200229D3
:10217000F6D93AE004F12007F0686FF00F058ECF32
:1021800005EB021248F20C05C0F29F1528400843E7
:10219000216B10430022CFF6E07240EA032002EAEE
:1021A00001514FF07E42A1F500110843616B40EAF6
:1021B000C76002EA016101F17E410843F0603068C6
:1021C00040F080703060F06840F08070F060FFF7A1
:1021D000E1F804463068800106D4FFF7DBF8011B04
:1021E00003200229F6D900E0002002B0BDE8F0810A
:1021F000411E0020B0EB116F1CBF012070474EF252
:102200001002F023CEF2000251604EF62351CEF2BE
:1022100000010B70072190601160704790F83C201E
:10222000012A02BF02210846704770B5012248F218
:10223000FF7480F83C20CFF6F074D1E900C3D1E9F7
:1022400002E2234022F47C522EF4705422431A43BB
:102250002CF4772342F6004C1A430B69C4F2010CAC
:1022600023F476231A434B691A430B6B22F474222E
:1022700023F470231A438B6942EA034302686245E0
:102280000BD045F20004C4F20104A24205D043F28F
:102290000044C4F20104A24203D1CC6923F080536C
:1022A000234362450BD045F20004C4F20104A2426C
:1022B00005D043F20044C4F20104A24223D1D1E983
:1022C000084E00268D6A23F07C736245CFF6F046F7
:1022D00006EA055524F0007443EA050343EA0403C3
:1022E00043EA0E030BD045F20006C4F20106B242E7
:1022F00005D043F20046C4F20106B24203D1C96AD6
:1023000023F000530B430021536480F83C10BDE8D8
:10231000704008467047000090F83C300222012BC4
:1023200072D010B580F83D20012242F6004E80F8B0
:102330003C20C4F2010E02685368D2F808C072450E
:102340000BD045F20004C4F20104A24205D043F2CE
:102350000044C4F20104A24203D14C6823F4700388
:1023600023434FF68F74CFF6FF5423400C6823436A
:10237000536042F6FF33C4F201039A420FDC40F28D
:10238000FF73C4F200039A4218DCB2F1804F2ED0E2
:1023900040F20043C4F200039A4228D02CE043F6F6
:1023A000FF73C4F201039A4215DC72451FD043F259
:1023B0000043C4F201039A4219D01DE040F6000325
:1023C000C4F200039A4212D040F60043C4F2000364
:1023D0009A420CD010E045F20003C4F201039A4285
:1023E00005D044F20003C4F201039A4204D1896883
:1023F0002CF08003194391600022012180F83C20D9
:1024000080F83D10BDE810401046704741B10829E2
:1024100009D0042914BF00F1470200F1450204E08D
:1024200000F1440201E000F146021278012A1CBFCB
:1024300001207047022241B1082909D0042914BFA4
:1024400080F8472080F8452004E080F8442001E02F
:1024500080F8462001F01F0104228A400168086AC2
:1024600090430862086A10430862486C40F40040D8
:10247000486442F6FF30C4F2010081420FDC40F2B2
:10248000FF70C4F2000081421CDCB1F1804F32D0F9
:1024900040F20040C4F2000081422CD03DE043F6FF
:1024A000FF70C4F20100814219DC42F60040C4F220
:1024B000010081421FD043F20040C4F2010081427A
:1024C00019D02AE040F60000C4F20000814212D088
:1024D00040F60040C4F2000081420CD01DE045F2FD
:1024E0000000C4F20100814205D044F20000C4F2B1
:1024F0000100814211D107228868C0F20102024026
:102500000020062A0ED0B2F5803F08BF7047086849
:1025100040F00100086000207047086840F00100AA
:102520000860002070470000002804BF01207047A9
:1025300010B5044690F83D0028B9002084F83C000E
:10254000204600F023F80220211D84F83D00206879
:1025500001F01CF9012084F8480084F83E0084F85A
:102560003F0084F8400084F8410084F8420084F879
:10257000430084F8440084F8450084F8460084F859
:10258000470084F83D00002010BD000042F60041E5
:102590000068C4F20101884218BF704780B582B05C
:1025A00041F260000022C4F20200016841F40061BF
:1025B00001600021006800F400600190019819207A
:1025C000FEF778FF192002B0BDE88040FEF762BF39
:1025D00090F83D1001291CBF01207047022180F8AE
:1025E0003D100168C86840F00100C86042F6FF3045
:1025F000C4F2010081420FDC40F2FF70C4F200001F
:1026000081421CDCB1F1804F32D040F20040C4F274
:10261000000081422CD03DE043F6FF70C4F201007F
:10262000814219DC42F60040C4F2010081421FD011
:1026300043F20040C4F20100814219D02AE040F682
:102640000000C4F20000814212D040F60040C4F203
:10265000000081420CD01DE045F20000C4F20100F0
:10266000814205D044F20000C4F20100814211D140
:1026700007228868C0F2010202400020062A0ED01C
:10268000B2F5803F08BF7047086840F0010008605D
:1026900000207047086840F0010008600020704783
:1026A00090F83C300222012B00F0A18080B580F828
:1026B0003D20012280F83C208822D0F800C0CFF6CF
:1026C000CE72DCF808301A40CCF808200B68B3F55D
:1026D000005F0DDA3F2B25DD5F2B35DD602B00F031
:1026E0008880702B00F0A680B3F5805F76D0E7E09D
:1026F0002F22C0F2100293421BDD4F21C0F21001C5
:102700008B4249DD5021C0F210018B425AD060212A
:10271000C0F210018B4255D07021C0F210018B42E3
:1027200050D0CDE01F2B42DC002B4BD0102B49D0DA
:10273000C6E0B3F1101F3FDAB3F5005F00F08C8004
:10274000B3F5801F3ED0BBE0402B00F09780502BAC
:1027500040F0B680D1F804E0C968DCF82030DCF83D
:10276000202022F00102CCF82020DCF8182022F0F2
:10277000F00242EA01114FF68872CCF8181023F0EB
:102780000A01CFF6CF7241EA0E01CCF82010DCF836
:102790000810114057311FE03021C0F210018B4268
:1027A00010D04021C0F210018B420BD088E0202BCA
:1027B00008D0302B06D083E004D02021C0F21001D5
:1027C0008B427DD14FF68872DCF80810CFF6CF72BD
:1027D0001140194341F00701CCF8081000220021F4
:1027E00080F83C10012180F83D10BDE88040104683
:1027F00070474A68C968DCF8203023F01003CCF831
:102800002030DCF8183023F4704343EA0131DCF85F
:102810002030CCF8181023F0A00141EA02114FF645
:102820008872CCF82010CFF6CF72DCF80810114077
:102830006731D1E7D1E90123C9681A4342EA01218E
:10284000DCF8082022F47F421143CCF80810DCF8B1
:10285000081041F07701BFE7D1E90123C9681A43A5
:1028600042EA0121DCF8082022F47F421143CCF82F
:102870000810DCF8081041F48041ADE7D1F804E01D
:10288000C968DCF82030DCF8202022F00102CCF806
:102890002020DCF8182022F0F00242EA01114FF665
:1028A0008872CCF8181023F00A01CFF6CF7241EAF3
:1028B0000E01CCF82010DCF80810114047318BE7EE
:1028C00001228CE790F83C30012B02BF022318460E
:1028D00070474FEAB2020123052A80F83C3000F22B
:1028E000E0812DE9F041DFE812F006004B00A50081
:1028F000FF005901970103681A6A22F001021A6267
:102900001A461D6AD3F804C052F8184F8F680E6833
:1029100025F002052F434FF68C75CFF6FE75254046
:10292000A3F18044A4F5963445EA060E4FEAB42597
:10293000092D14D80124AC4040F2E5252C420ED0DC
:10294000D1F80C80D1E905562CF44074254327F0CA
:102950000C0445EA060C28F0040545EA0407C3F810
:1029600004C0C3F818E04E685E631F629F6947F0B9
:1029700008079F619F6927F004079F6109698AE141
:1029800003681A6A22F010021A621A461F6AD3F804
:1029900004C052F8184F8E680D6827F0200747EAE8
:1029A000061E48F6FF46CFF6FF66344044EA05248B
:1029B00042F60045C4F20105AB420BD045F20005DA
:1029C000C4F20105AB4205D043F20045C4F2010553
:1029D000AB4208D1CD686FF040062EF0C00706EA82
:1029E000051545EA070EA3F18045A5F596354FEA92
:1029F000B525092D0ED8012606FA05F540F2E52683
:102A000035421FBFD1E905562CF4406747EA8507D8
:102A100047EA860CC3F804C09C614F689F63C3F803
:102A200020E09F6947F400679F619F6927F48067F2
:102A30009F612EE103681A6A22F480721A621A46B4
:102A40001F6AD3F804C052F81C4F8E680D6827F433
:102A5000007747EA062E4FF68C76CFF6FE763440A6
:102A60002C4342F60045C4F20105AB420BD045F2BF
:102A70000005C4F20105AB4205D043F20045C4F2A3
:102A80000105AB4208D1CD6840F2FF462EF4406705
:102A90002D02B54345EA070EA3F18045A5F596350D
:102AA0004FEAB525092D0ED8012606FA05F540F2A4
:102AB000E52635421FBFD1E905562CF4405747EAB9
:102AC000051747EA061CC3F804C0DC614F68DF63E2
:102AD000C3F820E0DF6947F00807DF61DF6927F00E
:102AE0000407DF610969D6E003681A6A22F480529C
:102AF0001A621A461F6AD3F804C052F81C4F8E6837
:102B00000D6827F4005747EA063E48F6FF46CFF621
:102B1000FF66344044EA052442F60045C4F201054C
:102B2000AB420BD045F20005C4F20105AB4205D023
:102B300043F20045C4F20105AB4208D1CD6844F62A
:102B4000FF762EF440472D03B54345EA070EA3F167
:102B50008045A5F596354FEAB525092D0ED80126F5
:102B600006FA05F540F2E52635421FBFD1E90556C4
:102B70002CF4404747EA851747EA861CC3F804C08F
:102B8000DC614F681F64C3F820E0DF6947F4006729
:102B9000DF61DF6927F48067DF617AE003681A6A22
:102BA00022F480321A621A461F6AD3F8048052F85F
:102BB000506F8C680D6827F4003747EA044C4FF6D5
:102BC0008C77A3F18044CFF6FE77A4F596340337D3
:102BD000374047EA050E4FEAB425092D0AD80124EB
:102BE000AC4040F2E5252C421EBF4C6928F48035EC
:102BF00045EA0428C3F80480C3F850E04F689F6496
:102C0000C3F820C01F6D47F008071F651F6D27F030
:102C100004071F6509693EE003681A6A22F48012FE
:102C20001A621A461F6AD3F8048052F8506F8C68F3
:102C30000D6827F4001747EA045C48F6FF47A3F144
:102C40008044CFF6FF67A4F5963407F54077374008
:102C500047EA052E4FEAB425092D0AD80124AC40D5
:102C600040F2E5252C421EBF4C6928F4802545EA38
:102C70008428C3F80480C3F850E04F68DF64C3F8C9
:102C800020C01F6D47F400671F651F6D27F4806724
:102C90001F65096909021368194300231160BDE823
:102CA000F041002180F83C1018467047002804BF0E
:102CB0000120704710B5044690F83D0028B9002067
:102CC00084F83C00204600F023F80220211D84F8FF
:102CD0003D00206800F05AFD012084F8480084F887
:102CE0003E0084F83F0084F8400084F8410084F8F6
:102CF000420084F8430084F8440084F8450084F8D6
:102D0000460084F8470084F83D00002010BD000014
:102D10007047000059B10A1F4FEAB202032A09D8CE
:102D2000DFE802F0020B0E1100F13F020DE000F1AE
:102D30003E020AE000F1430207E000F1400204E035
:102D400000F1410201E000F142021278012A1CBFA9
:102D50000120704761B10A1F4FEAB202032A0BD863
:102D6000DFE802F0020E1216022280F83F2012E085
:102D7000022280F83E200EE0022280F843200AE082
:102D8000022280F8402006E0022280F8412002E082
:102D9000022280F8422001F01F01012202FA01F311
:102DA0000168086A98430862086A18430862A1F13A
:102DB0008040A0F596304FEAB020092809D802FAE1
:102DC00000F040F2E52210421EBF486C40F4004083
:102DD000486442F6FF30C4F2010081420FDC40F249
:102DE000FF70C4F2000081421CDCB1F1804F32D090
:102DF00040F20040C4F2000081422CD03DE043F696
:102E0000FF70C4F20100814219DC42F60040C4F2B6
:102E1000010081421FD043F20040C4F20100814210
:102E200019D02AE040F60000C4F20000814212D01E
:102E300040F60040C4F2000081420CD01DE045F293
:102E40000000C4F20100814205D044F20000C4F247
:102E50000100814211D107228868C0F201020240BC
:102E60000020062A0ED0B2F5803F08BF70470868E0
:102E700040F00100086000207047086840F0010041
:102E800008600020704700007047000090F8801034
:102E9000012902BF0221084670472421C0F884108E
:102EA00002681368116821F0010123F000531160DA
:102EB000002141661360202280F88010C0F8842031
:102EC0000846704790F88020012A02BF0221084678
:102ED0007047B0B524224FF0010EC0F8842080F86E
:102EE00080E00268D2F800C0136823F00103136089
:102EF000936823F0606319439160416EC9B1916892
:102F000044F2902E44F28825C0F6000EC0F600056B
:102F1000C1F342611EF80130695CC900B1FBF3F1F5
:102F200093685B0F1EF80340EB5CDB00B3FBF4FE21
:102F300000E00121A0F86810A0F86AE0C2F800C023
:102F40000021202280F88010C0F88420BDE8B04025
:102F50000846704790F88020012A02BF02210846E7
:102F60007047B0B524224FF0010EC0F8842080F8DD
:102F700080E00268D2F800C0136823F001031360F8
:102F8000936823F0604319439160416EC9B1916821
:102F900044F2902E44F28825C0F6000EC0F60005DB
:102FA000C1F342611EF80130695CC900B1FBF3F165
:102FB00093685B0F1EF80340EB5CDB00B3FBF4FE91
:102FC00000E00121A0F86810A0F86AE0C2F800C093
:102FD0000021202280F88010C0F88420BDE8B04095
:102FE0000846704770470000B0B582B0B0B10446E3
:102FF000D0F8840028B9002084F88000204600F032
:1030000055F82420C4F884002068016821F00101EB
:103010000160204600F032FE012802D1012002B0FA
:10302000B0BDA06A10B1204600F05EFC2068416887
:1030300021F490414160816821F02A01816001689A
:1030400041F0010101600020C4F88C00FEF7A2F9F4
:1030500005462068016809070BD56FF07E404FF4E4
:10306000001100222B460090204600F06BFF70B943
:103070002068006840070DD56FF07E404FF4800156
:1030800000222B460090204600F05CFF10B1032088
:1030900002B0B0BD2020C4F88400C4F8880000202D
:1030A00084F88000E06602B0B0BD000070B59CB04E
:1030B0000446002502A854211B95CDE91955CDE9F8
:1030C0001755FDF790F943F600012068C4F201019D
:1030D000884201D01CB070BD01200395029002A867
:1030E000FEF7C6FA002818BFFDF784FA41F24C003B
:1030F0000026C4F20200416941F480414161416906
:1031000001F4804101910199016841F004010160DD
:1031100017A9006800F004000190019807201B9097
:1031200003201A900220199618903020179040F62C
:103130000000C4F60000FEF743F840F604554FF4D3
:10314000005019234FF0200C80211022C2F20005FC
:1031500028621C20C4F20200C5E900032846C5E924
:103160000226C5E90416C5E9066CFDF71FFF002815
:1031700018BFFDF73FFAA567AC621CB070BD000038
:10318000B0B50446D0F88400202806D1B1B3134668
:10319000A2B394F88000012802D102252846B0BDD0
:1031A00000250120A4F85630C4F88C50A4F85430FF
:1031B000216584F880002120C4F88400A06F00B34A
:1031C00043F6D91C43F6754E43F6C532C0F6000CE3
:1031D000C0F6000EC0F60002C0E90B2EC0E90DC516
:1031E00022682832FDF77CFF58B11020C4F88C000B
:1031F000002084F880002020C4F88400012528469F
:10320000B0BD20684021016284F8805050E8020F70
:10321000216840F0800041E802025AB3002500BF57
:10322000206850E8020F216840F0800041E8020267
:10323000FAB1206850E8020F216840F0800041E8B0
:1032400002029AB1206850E8020F216840F0800025
:1032500041E8020252B1206850E8020F216840F0B4
:10326000800041E80202002ADAD103E00025284666
:10327000B0BD00252846B0BD704700007047000073
:1032800010B58CB040F63840002401214FF4806224
:103290004FF4A4634FF0080CC2F200000B94CDE988
:1032A000094480F84040C46380F83810C0E90B320C
:1032B000032280F824404FF4403302624FF0A042D2
:1032C000848380E81C00C0E90344C0E9051CCDE903
:1032D0000744CDE90544CDE90344CDE90144FDF7B8
:1032E0002DFC002818BFFDF785F940F6384009A9E4
:1032F0000994C2F20000FDF783F9002818BFFDF71A
:1033000079F9002001A90690042005907F200490FF
:1033100001200390062002900220C0F2304001906C
:1033200040F63840C2F20000FDF700FA002818BF4E
:10333000FDF760F90C2001A902900420C0F660009E
:10334000019040F63840C2F20000FDF7EFF9002886
:1033500018BFFDF74FF9122001A902900820C0F60E
:103360009040019040F63840C2F20000FDF7DEF9CF
:10337000002818BFFDF73EF90CB010BD80B582B033
:1033800041F248000122C4F20200016841F0040148
:103390000160016801F0040101910199016841F0A7
:1033A000010101600121006800F001000090009817
:1033B0000B20FEF77FF80B2002B0BDE88040FEF73F
:1033C00069B800002DE9F04387B041F24C000027B6
:1033D00040F6000401224FF001080697C4F20200F3
:1033E000C4F60004016841F020010160016801F0A9
:1033F000200101910199016841F004010160016817
:1034000001F0040101910199016841F0010101609D
:10341000016801F0010101910199016841F0020187
:1034200001600621006800F002000190019820462A
:10343000FDF7AAFF204608210022FDF7A5FFA4F50D
:1034400080654FF4805100224FF480592846FDF7E3
:103450009BFF032002AE05900E20CDE90387314685
:1034600002902046FDF7ACFE28463146CDE90477B0
:10347000CDE90298FDF7A4FE07B0BDE8F083000097
:1034800070B5A2B0002401A83421CDE91A44CDE9D9
:103490001844CDE91644CDE91444CDE91244CDE9F0
:1034A0001044CDE90E44FCF79EFF40F6645042F60E
:1034B0000045A9214022C2F20000C4F20105C0E982
:1034C0000054C0E90221C0E904448461FFF72CF8EC
:1034D000002818BFFDF78EF84FF4805018A91890F7
:1034E00040F66450C2F20000FFF7DAF8002818BF77
:1034F000FDF780F840F66450C2F20000FFF7D6FBFB
:10350000002818BFFDF776F80024202015A9CDE982
:103510001644159040F66450C2F20000FEF7FCFE1F
:10352000002818BFFDF766F811200EA900220F90A1
:1035300060200E9040F664501494CDE91244CDE919
:103540001044C2F20000FFF7BDF9002818BFFDF7D4
:1035500051F82A200EA904220F9040F66450C2F2BE
:103560000000FFF7AFF9002818BFFDF743F855201A
:103570000EA908220F9040F66450C2F20000FFF737
:10358000A1F9002818BFFDF735F84FF48040002658
:1035900040F6645401A90D904FF00070CDE90B6620
:1035A000C2F20004CDE909604FF40050CDE907668E
:1035B000CDE905600A20CDE903604FF480600290F8
:1035C0004FF4006001902046FEF728FE002818BF47
:1035D000FDF710F82196CDE91F66CDE91D6620683C
:1035E000A84201D022B070BD41F24C00C4F20200EA
:1035F000016841F0010101601DA9006800F00100AF
:103600001C901C98062021900320209000201F90E1
:1036100002201E904FF470601D904FF09040FDF717
:10362000CFFD22B070BD000080B540F6B05049F229
:10363000004343F600014FF00C0C0022C2F20000E0
:10364000C0F21103C4F20101C0E908228262C0E99C
:103650000013C0E90222C0E9042CC0E90622FFF7EA
:10366000C3FC002818BFFCF7C5FF40F6B05000218E
:10367000C2F20000FFF76EFC002818BFFCF7BAFF8B
:1036800040F6B0500021C2F20000FFF71BFC0028FA
:1036900018BFFCF7AFFF40F6B050C2F20000FFF7D2
:1036A000F5FB002814BFBDE8804080BDFCF7A2BF39
:1036B0004EF68850CEF20000016841F470010160BE
:1036C0007047000042F60040C4F201000168C906DC
:1036D00058BF704780B540F6304C40F2D87140F684
:1036E00032429FED290AC2F2000CC2F20001C2F27E
:1036F0000002BCF80030128831F81310B3F5F97FDE
:10370000416340F20801C2F2000131F813108163F5
:10371000A2F2C27140F2F032C2F2000201EE101ABF
:1037200040F6C43132F81320B8EEC11AC2F20001DB
:1037300021EE000AC2634FF0000081ED000A4FF055
:10374000080298BF581CACF8000040F6B050C2F216
:103750000000FFF715FD40F66450C2F2000000685B
:103760000169C907BDE880401CBFC1685FEAC1713B
:1037700000D170476FF00101016140F66450C2F260
:103780000000FFF781BB00BF0000253D40F6FF337E
:103790000268C4F20003984212DD43F2FF33C4F220
:1037A000010398423ADC40F60043C4F20003984219
:1037B00040D042F60043C4F2010398423AD00EE0F2
:1037C000B0F1804F36D040F20043C4F2000398427B
:1037D00030D040F60003C4F2000398422AD043F2EE
:1037E000FF33C4F2010398422EDC40F2FF73C4F2AF
:1037F0000003984241DD40F60003C4F20003984202
:1038000051D040F60043C4F2000398424BD042F638
:103810000043C4F20103984245D048E045F200035A
:10382000C4F20103984205D043F20043C4F20103FD
:103830009842D4D14B6822F070021A4343F2FF330E
:10384000C4F201039842D0DD44F2FF33C4F2010315
:1038500098421CDD44F20043C4F20103984222D096
:1038600045F20003C4F2010398421CD044F6000361
:10387000C4F20103984216D019E0B0F1804F12D083
:1038800040F20043C4F2000398420CD00FE043F230
:103890000043C4F20103984205D044F20003C4F28D
:1038A0000103984203D1CB6822F440721A434B695A
:1038B00022F080021A4302608A68C2620A68826249
:1038C000A0F18042A2F596324FEAB222092A08D826
:1038D000012303FA02F240F2E5231A421CBF0969F0
:1038E0000163012141617047816ACA070DD18A07CE
:1038F00016D44A071FD40A0728D4CA0631D48A0628
:103900003AD480B54A0659D542E002685368D0F8E7
:103910002CC023F4003343EA0C0353608A07E8D534
:1039200002685368D0F830C023F4803343EA0C03B4
:1039300053604A07DFD502685368D0F834C023F4D7
:10394000802343EA0C0353600A07D6D50268536804
:10395000D0F838C023F4004343EA0C035360CA068E
:10396000CDD502689368D0F83CC023F4805343EA75
:103970000C0393608A06C4D502689368D0F840C0EF
:1039800023F4005343EA0C03936080B54A0615D52F
:10399000D0F800E0DEF804C0436C2CF48012B3F5DC
:1039A000801F42EA0302CEF8042007D1DEF804208B
:1039B000836C22F4C0021A43CEF804200906BDE845
:1039C000804058BF704701684A68C06C22F40022EA
:1039D0001043486070470000806AD0F88410D0F827
:1039E00088C002689368212957D113F0800154D010
:1039F0000021A0F8561052E8001F02E0016851E8CB
:103A0000001F026821F0C00142E80013E3B1016821
:103A100051E8001F026821F0C00142E800139BB189
:103A2000016851E8001F026821F0C00142E800135C
:103A300053B1016851E8001F026821F0C00142E85B
:103A40000013002BDAD100BF016851E8021F0268A1
:103A500021F4000142E80213DBB1016851E8021FC2
:103A6000026821F4000142E8021393B1016851E8B1
:103A7000021F026821F4000142E802134BB1016801
:103A800051E8021F026821F4000142E80213002BF2
:103A9000DAD12021C0F8841002689368BCF1220FAB
:103AA00040F0878013F0400100F083800021A0F8EF
:103AB0005E1052E8001F02E0016851E8001F026832
:103AC00021F4907142E80013DBB1016851E8001F56
:103AD000026821F4907142E8001393B1016851E843
:103AE000001F026821F4907142E800134BB1016895
:103AF00051E8001F026821F4907142E80013002B86
:103B0000DAD14FF6FE7CCEF6FF7C00BF026852E8A9
:103B1000022F036802EA0C0243E80221D9B10168CE
:103B200051E8021F026801EA0C0142E8021393B156
:103B3000016851E8021F026801EA0C0142E8021321
:103B40004BB1016851E8021F026801EA0C0142E82A
:103B50000213002BDAD1C16E012924D1016851E88A
:103B6000001F026821F0100142E80013DBB1016878
:103B700051E8001F026821F0100142E8001393B1E0
:103B8000016851E8001F026821F0100142E80013AB
:103B90004BB1016851E8001F026821F0100142E8B2
:103BA0000013002BDAD12021C0F888100021016712
:103BB000C166D0F88C1041F01001C0F88C10FFF7EE
:103BC00011BA00000168806A0968890648BFFFF7DA
:103BD00053BB0021A0F85610016851E8021F02688B
:103BE00021F0800142E80213E3B1016851E8021FAD
:103BF000026821F0800142E802139BB1016851E89C
:103C0000021F026821F0800142E8021353B10168EB
:103C100051E8021F026821F0800142E80213002BE4
:103C2000DAD100BF016851E8001F026841F040018D
:103C300042E80013EBB1016851E8001F026841F04F
:103C4000400142E80013A3B1016851E8001F026877
:103C500041F0400142E80013002B08BF70470168A3
:103C600051E8001F026841F0400142E80013002BB8
:103C7000D8D17047806AFFF701BB000010B5044639
:103C80000168806848F2000CD4E90423D4F81CE0F1
:103C9000C4F2000C614540EA020040EA030246F625
:103CA000F3100B68CCF6FF7042EA0E0200EA030044
:103CB0004FF2FF4340EA0200C1F2FF130860486878
:103CC000E26820F4405040EA02004860A2691CBF4C
:103CD000206A024388681840102310438860C86A2D
:103CE000626A20F00F001043C86244F6FF70C4F20D
:103CF0000000814213DC44F20040C4F20000814223
:103D00002AD044F60000C4F20000814226D044F6D6
:103D10000040C4F20000814230D1062323E045F286
:103D20000000C4F2000081421AD061451AD043F667
:103D30000000C4F20100814220D141F288007DA13F
:103D4000C4F20200006800F0030051F820300120A6
:103D5000BEF5004F18D02CE0022304E0042302E05B
:103D6000082300E00A2341F28800C4F20200006840
:103D7000D8406CA300F0030053F8203061452DD0EB
:103D80000120BEF5004F14D1082B00F2C48042F28E
:103D9000004CC0F2F40CDFE803F0056574BE6BBEA6
:103DA000BEBE7200FDF78EFF8446002840F05E80A4
:103DB00063E0082B00F2AF8042F2004CC0F2F40C3A
:103DC000DFE803F0057F8EA985A9A9A98C00FDF77E
:103DD00079FF8446002840F078807DE00120082BA0
:103DE00000F2998042F2004CC0F2F40CDFE803F0DC
:103DF000059314930B9393931200FDF763FF84468E
:103E000030B1626A08E0FDF789FF84460028F8D1E6
:103E1000002080E04FF4004C44F27020C0F6000017
:103E200030F812006268BCFBF0F102EB42030120A3
:103E3000994270D3130399426DD808020B0E10EB10
:103E4000520043F100010023FCF756FA4FF6FF42FF
:103E5000A0F54071C0F20F0291425BD82168C860A2
:103E6000002058E0FDF744FF844630B1626A08E064
:103E7000FDF754FF84460028F8D100204BE04FF4B2
:103E8000004C44F270206168C0F6000030F8120067
:103E90004A08BCFBF0F002EB40004FF6EF72B0FBBB
:103EA000F1F0A0F11001914209D84FF6F0710140F4
:103EB000C0F3420008442168C86000202BE00120C4
:103EC00029E0FDF715FF844630B1626A08E0FDF78E
:103ED00025FF84460028F8D100201CE04FF4004C58
:103EE00044F270206168C0F6000030F812004FF60E
:103EF000EF72BCFBF0F000EB5100B0FBF1F0A0F171
:103F00001001914204D8216880B2C860002002E00C
:103F1000012000E001200021C4E91C114FF0011133
:103F2000A16610BD000000000400000002000000B7
:103F30000800000001000000040000000200000072
:103F4000080000002DE9F041044600680D46C169F3
:103F50002940491BB1FA81F14F09974229D1DDF877
:103F60001880B8F1000F27D018F1010127D100BF48
:103F7000C1692940491B18BF012197EA010F04BFFD
:103F80000020BDE8F081C1692940491B18BF01210B
:103F90008F420ED0C1692940491B18BF01218F42B1
:103FA00007D0C1692940491B18BF012197EA010FB9
:103FB000DED10020BDE8F081FDF7ECF922E01E46DD
:103FC000FDF7E8F9801B404510D91BE0C069284087
:103FD000401B18BF012097EA000F04BF0020BDE876
:103FE000F081FDF7D7F9801B40450BD820680168A8
:103FF000490744BFC1695FEA0151E7D54FF4006149
:10400000016256E0206850E8000F216820F4D0706B
:1040100041E80002E2B1206850E8000F216820F476
:10402000D07041E800029AB1206850E8000F216882
:1040300020F4D07041E8000252B1206850E8000F2F
:10404000216820F4D07041E80002002ADAD100BFD4
:10405000206850E8020F216820F0010041E80202C8
:10406000DAB1206850E8020F216820F0010041E831
:10407000020292B1206850E8020F216820F001008E
:1040800041E802024AB1206850E8020F216820F09E
:10409000010041E80202002ADAD120200021C4F800
:1040A000840084F88010C4F888000320BDE8F08103
:1040B000206850E8000F216820F4D07041E8000229
:1040C000E2B1206850E8000F216820F4D07041E888
:1040D00000029AB1206850E8000F216820F4D070E7
:1040E00041E8000252B1206850E8000F216820F436
:1040F000D07041E80002002ADAD100BF206850E801
:10410000020F216820F0010041E80202DAB12068C4
:1041100050E8020F216820F0010041E8020292B14C
:10412000206850E8020F216820F0010041E80202F7
:104130004AB1206850E8020F216820F0010041E8F0
:104140000202002ADAD120200021C4F88400C4F839
:10415000880084F88010C4F88C000320BDE8F0814A
:1041600094B0FDF71DF9002400200C94CDE90A4419
:10417000CDE908440594CDE90344CDE90144FDF7B8
:10418000D7F90220552103251390CDE91100109194
:1041900006210F91CDE90D054FF4803007900120E5
:1041A000069006A8FDF7F6FD18B1EFF3108072B681
:1041B000FEE70F20CDE90444CDE90254042101902B
:1041C00001A8FDF7E1FB20B1EFF3108072B600BF4C
:1041D000FEE7FFF7F7F8FFF7D1F8FFF751F8FFF721
:1041E00023FAFFF74DF940F664540021C2F20004AF
:1041F0002046FEF78FFD20460021FEF707F92046F6
:104200000421FEF787FD20460821FEF783FD2046A6
:10421000FEF7DEF940F6384040F632410322C2F2A2
:104220000000C2F20001FCF729FE40F6A440C2F2F1
:1042300000000068016821F00C010160FEE7F1EE6A
:10424000100A4FF6FF71C0F2C03120EA010040F0C1
:104250004070E1EE100A704700000000000000000E
:10426000010203040607080900000000010203041C
:10427000010002000400060008000A000C00100003
:10428000200040008000000101010103070100003F
:104290000804020408010101B842000800000020DF
:1042A000D00B000014020008F0450008D00B0020DD
:1042B0007808000070020008321002FF0101FA12B3
:1042C00002120412061209120B120D120F12111211
:1042D0001312151217121A121C121E122012221279
:1042E0002412261228122A122C122E1230123212E6
:1042F0003512371239123B123D123F12411243124E
:104300004412461248124A124C124E1250125212C5
:1043100054125612571259125B125D125F1260123C
:10432000621264126612671269126B126C126E12BC
:1043300070127112731274127612771279127A1245
:104340007C127D127F1280128212831284128612D6
:10435000871288128A128B128C128D128E12901272
:104360009112921293129412951296129712981219
:1043700099129A129B1A9C02129D129E129F1AA0C9
:104380000212A11AA20212A31AA4021AA5021AA6C4
:10439000023AA7023AA8025AA9020A17AA026922F7
:1043A0004930493C2946294E29563AA3623AA16E22
:1043B0001A9F783A9D821A9B8C1A99941A979C1A84
:1043C00095A41A93AC1A91B41A8EBC1A8CC41A8A8A
:1043D000CC1A87D41A84DC1A82E41A7FEC1A7CF493
:1043E0001A79FC12761274127312711270126E1214
:1043F0006C126B12691267126612641262126012FA
:104400005F125D125B125912571256125412521259
:1044100050124E124C124A124812461244124312C3
:1044200041123F123D123B1239123712351232122D
:1044300030122E122C122A122812261224122212A4
:1044400020121E121C121A12171215121312111218
:104450000F120D120B12091206120432021A020870
:104460001A06101A0B181A0F201A13281A17301AC6
:104470001C381A20401A24481A28501A2C581A306E
:10448000601A35681A39701A3D781A41801A4488C2
:104490001A48901A4C981A50A01A54A81A57B01AD1
:1044A0005BB81A5FC01A62C81A66D01A69D81A6C4B
:1044B000E01A70E81A73F01A76F81279127A127C00
:1044C000127D127F1280128212831284128612874A
:1044D0001288128A128B128C128D128E12901291E7
:1044E0001292129312941295129612971298129990
:1044F000129A129B1A9C02129D129E129F1AA002DF
:1045000012A11AA20212A31AA4021AA5021AA60242
:104510003AA7023AA8025AA9020A17AA026922492E
:1045200030493C2946294E29563AA3623AA16E1ACF
:104530009F783A9D821A9B8C1A99941A979C1A9587
:10454000A41A93AC1A91B41A8EBC1A8CC41A8ACCD1
:104550001A87D41A84DC1A82E41A7FEC1A7CF41AC3
:1045600079FC12761274127312711270126E126C40
:10457000126B126912671266126412621260125F85
:10458000125D125B125912571256125412521250E7
:10459000124E124C124A1248124612441243124151
:1045A000123F123D123B12391237123512321230BD
:1045B000122E122C122A1228122612241222122033
:1045C000121E121C121A1217121512131211120FA8
:1045D000120D120B12091206120402FF0201F80A50
:1045E000FDAA0209F20201FF01F47324F443807F63
:04000005080001D915
:00000001FF
