:020000040800F2
:100000007007002079020008631E0008591B0008D1
:10001000611E00087F030008E51E000800000000C4
:10002000000000000000000000000000671E000843
:100030008103000800000000651E0008691E00081A
:10004000930200089302000893020008930200083C
:10005000930200089302000893020008930200082C
:10006000930200089302000893020008930200081C
:10007000930200089302000893020008930200080C
:1000800093020008930200089302000893020008FC
:1000900093020008930200089302000893020008EC
:1000A00093020008930200089302000893020008DC
:1000B00093020008930200089302000893020008CC
:1000C00093020008930200089302000893020008BC
:1000D00093020008930200089302000893020008AC
:1000E000930200089302000893020008930200089C
:1000F000930200089302000893020008930200088C
:10010000930200089302000893020008930200087B
:10011000930200089302000893020008930200086B
:10012000930200089302000893020008930200085B
:10013000930200089302000893020008930200084B
:10014000930200089302000893020008D9140008E3
:10015000930200089302000893020008930200082B
:10016000930200089302000893020008930200081B
:10017000930200089302000893020008930200080B
:1001800093020008930200089302000893020008FB
:100190009302000800000000930200089302000888
:1001A00093020008930200089302000893020008DB
:1001B00093020008930200089302000893020008CB
:1001C00093020008930200089302000893020008BB
:1001D000930200089302000800F002F800F03CF8D7
:1001E0000AA090E8000C82448344AAF10107DA4592
:1001F00001D100F031F8AFF2090EBAE80F0013F0A8
:10020000010F18BFFB1A43F001031847701D0000CF
:10021000901D0000103A24BF78C878C1FAD8520760
:1002200024BF30C830C144BF04680C607047000070
:100230000023002400250026103A28BF78C1FBD8EF
:10024000520728BF30C148BF0B6070471FB501F08F
:1002500087FE1FBD10B510BD00F058F81146FFF71E
:10026000F5FF01F051FE00F076F803B4FFF7F2FF5E
:1002700003BC00F07DF800000948804709480047AA
:10028000FEE7FEE7FEE7FEE7FEE7FEE7FEE7FEE746
:10029000FEE7FEE704480549054A064B70470000A3
:1002A000D51E0008D9010008700100207007002049
:1002B00070030020700300204FF0000200B51346C9
:1002C00094469646203922BFA0E80C50A0E80C5076
:1002D000B1F12001BFF4F7AF090728BFA0E80C5027
:1002E00048BF0CC05DF804EB890028BF40F8042B20
:1002F00008BF704748BF20F8022B11F0804F18BF8D
:1003000000F8012B7047704770477047754600F042
:100310002BF8AE4605006946534620F00700854697
:1003200018B020B5FFF7B6FFBDE820404FF000063B
:100330004FF000074FF000084FF0000B21F00701CD
:10034000AC46ACE8C009ACE8C009ACE8C009ACE810
:10035000C0098D46704710B50446AFF300802046B3
:10036000BDE81040FFF781BF004870470C01002036
:1003700001491820ABBEFEE7260002007047FEE7E9
:10038000704700002DE9F04FDFF82092002301268E
:100390000324A9F1040B85B00F2709F1040AABF17E
:1003A000040EFAE006FA03F52A407CD091F804C066
:1003B0000CF0030CBCF1010F02D0BCF1020F26D1EE
:1003C000D0F808C0CDF800C04FEA430C04FA0CF88E
:1003D000CDF810C0DDF800C02CEA080CCDF800C044
:1003E000D1F80C80DDF810C008FA0CF8DDF800C078
:1003F00048EA0C08C0F80880D0F804C02CEA050CC4
:100400000D79C5F300159D4045EA0C0545600D7951
:10041000ED43AD070ED0C5684FEA430804FA08FC67
:1004200025EA0C05D1F808C00CFA08FC4CEA050CCA
:10043000C0F80CC00D7905F00305022D16D1DD08BA
:1004400000EB850CCDF808C0DCF820805D074FEA92
:10045000D56C07FA0CF528EA05080D6905FA0CF5C4
:10046000DDF808C045EA0805CCF8205005684FEAD9
:10047000430CCDF808C004FA0CFC25EA0C0591F8F1
:1004800004C00CF00308DDF808C008FA0CF848EACC
:100490000508C0F800804D6815F4403F7CD0444DFD
:1004A000D5F860C000E077E04CF0010CC5F860C002
:1004B0002D6E23F0030C05F0010500953D4D6544BC
:1004C0000295AD684FEA837C4FEA1C7807FA08FC76
:1004D00025EA0C05B0F1904F06D0DFF8DCC060458E
:1004E00005D14FF0010C20E04FF0000C1DE0DFF8CB
:1004F000CCC0604502D14FF0020C16E0DFF8C0C05E
:10050000604502D14FF0030C0FE0DFF8B8C0604542
:1005100002D14FF0040C08E0DFF8ACC0604502D116
:100520004FF0050C01E04FF0060C0CFA08FC4CEA09
:10053000050C029DC5F808C0D9F80050CC46D1F88A
:10054000048095435FEAC82800D51543CCF80050D5
:10055000DAF80050D446D1F8048095435FEA882841
:1005600000D51543CCF80050DBF80050DC46D1F83C
:10057000048095435FEA883800D51543CCF80050D5
:10058000DEF80050F446D1F8048095435FEAC8389D
:1005900000D51543CCF800505B1C0A6832FA03F50D
:1005A0007FF400AF05B0BDE8F08F00000804014003
:1005B000001002400000014000040048000800480C
:1005C000000C004800100048001400480AB1816186
:1005D00070478162704700000148806870470000E2
:1005E00000000020704770477047704770477047A1
:1005F00070477047704710B590F8DC20012A21D071
:10060000012280F8DC20022380F8DD304B1C1BD057
:100610000368D3F8CC4344F00204C3F8CC43036826
:10062000D3F8CC4324F00C040C43C3F8CC4301684A
:10063000D1F8CC3343F00103C1F8CC3380F8DD208E
:10064000002010BD022010BD0168D1F8CC3323F08A
:100650000203C1F8CC33EAE770B590F8DD30022B25
:100660003CD090F8DC30012B38D0012500F8DC5F5D
:10067000022343701388948803F4E053C4F30804FE
:100680001C4313896FF07E4603F400732343148ADE
:1006900004F480441C43938903F400432343948A65
:1006A00006EA04441C43936903F000732343146A6D
:1006B000D26904F080441C4302F00042224350F807
:1006C000DC3CB82404EBC1141959054E31401143E8
:1006D0001951457000210170084670BD022070BD9F
:1006E0000020003C70477047704770477047704764
:1006F0007047FF2903D0062903D001F0ABB800F002
:1007000025BF00F0C0BF000038B5040056D002205D
:1007100084F8DD000025C4F8E050C4F8E450C4F8C3
:10072000E850C4F8EC50C4F8F050C4F8F450C4F8E1
:10073000F850207AC0071BD021492068884208D190
:100740002048016E41F080610166006E00F080601B
:1007500000902168086820F44042208A00F440405C
:10076000104320F44052A08A00F440501043086027
:10077000204600F029F8207A800708D5216808680B
:1007800020F44072A08900F44070104308600120FA
:1007900084F8DD0084F8DC505FF00001C1EBC1009B
:1007A00004EB8000491C8561C56105624562856274
:1007B000C9B205630629F1D9002038BD012038BD32
:1007C000006801400010024008B500680B498842EB
:1007D00012D10B48016E41F080610166006E00226B
:1007E00000F0806000901146432000F09DFABDE8C3
:1007F0000840432000F08ABA08BD000000680140AC
:1008000000100240F0B587B0044614216846FFF797
:1008100053FD16492068884225D11548C16C41F026
:100820000201C164C16C01F002010591C16C41F08B
:100830000101C164C06C022400F0010005904FF476
:100840008050002503260D278DE8F10069460948F0
:10085000FFF798FD4FF4E0608DE8F10069464FF036
:100860009040FFF78FFD07B0F0BD00000068014029
:1008700000100240000400487047704770477047FE
:1008800070B50D460446FFF7A7FE064607E0681C54
:1008900005D0FFF7A1FE801BA8420DD865B12068E6
:1008A000D0F88803C043C003F1D4012084F8DD00F0
:1008B000002084F8DC0070BD072084F8DD000320F0
:1008C00070BD7047704770B590F8DD30022B1DD0B9
:1008D00090F8DC30012B19D0012380F8DC300224A1
:1008E00080F8DD40EC25046805EBC1156159CE06A2
:1008F00005D54FF6C076B14332400A43625180F8C5
:10090000DD30002180F8DC10084670BD022070BD8B
:100910007047704770B590F8DD30022B23D002236A
:1009200080F8DD30062920D08023046803EBC11550
:10093000635923F007069368334323F01806D368FE
:10094000334363519425046805EBC1151368635163
:100950009824036804EBC11152685A50012180F8B1
:10096000DD10002070BD022070BD0368196821F001
:1009700007049168214321F01804D16821431960CC
:10098000036811685961516802689161E6E72DE9D1
:10099000F04F90F8DD40022C25D090F8DC40012C7F
:1009A00021D04FF0010980F8DC90022480F8DD406E
:1009B00000274FF0070C062918D09C2404EBC11621
:1009C000012A39D08024A8254FF4005A4FF4405B07
:1009D00005EBC11504EBC114022A2FD0042A45D01F
:1009E000082A0BD144E00220BDE8F08F012A0AD08A
:1009F000022A0CD0042A0ED0082A10D080F8DDC0BC
:100A000080F8DC700EE002681968D1610AE00268C3
:100A10001968516206E002681968916202E0026892
:100A20001968D16290F8DD10072948D080F8DD9070
:100A300080F8DC700020D7E7196835E04FF0A40893
:100A4000D0F800C008EBC1111A684CF801205968B1
:100A5000002901680A5922F440522ED00A51016837
:100A60000A59D3F804C042EA0C0218E0196821E0E0
:100A70004FF0AC08D0F800C008EBC1111A684CF870
:100A800001205968002901680A5922F4404214D013
:100A90000A5101680A59D3F804C042EA8C020A518B
:100AA0005968514503D1996802689151BAE759458F
:100AB000B8D1996802685151B4E70A51B2E70120F0
:100AC00092E710B590F8DC20012A0ED0012200F840
:100AD000DC2F0223437050F8DC3C1C680C431C6084
:100AE000427000210170084610BD022010BD70B593
:100AF000044690F8DD00022811D094F8DC000128AB
:100B00000ED0012584F8DC50022084F8DD00204658
:100B100000F031FE84F8DD50002084F8DC0070BD68
:100B2000022070BD10B590F8DC20012A10D00122FF
:100B300000F8DC2F0223437050F8DC3CD3F89443D8
:100B40000C43C3F89443427000210170084610BD65
:100B5000022010BD2DE9F041044690F8DD00154655
:100B60000E46022826D094F8DC00012821D0012767
:100B700084F8DC70022084F8DD00062E1CD02046AC
:100B800000F01CFFC6EBC60004EB80002968016280
:100B900069684162A9688162E968C1622969016383
:100BA0003146204600F09EFC062E15D0E86A40B182
:100BB00012E00220BDE8F0811146204600F01AFD47
:100BC000E0E78021206801EBC6114258EB6D22F46A
:100BD000007242EA4322425084F8DD70002084F81B
:100BE000DC00E7E72DE9F041044690F8DD0002283B
:100BF00024D094F8DC0001281FD0012584F8DC50B3
:100C0000022084F8DD00EC20266800EBC113F058C8
:100C1000176820F0100040EA071020F48017506891
:100C2000384320F48037D068384320F40037906888
:100C300038439769012F03D00CE00220BDE8F08112
:100C400020F004071069384320F002075069384348
:100C500040F00100F050204600F044FC84F8DD50E4
:100C6000002084F8DC00E9E702488168426811440A
:100C7000816070470000002010B50024032000F0C0
:100C800073F80F2000F008F808B1012401E000F02B
:100C900025F8204610BD000070B50E4E0546002414
:100CA000706898B14FF47A71B1FBF0F00A490968A5
:100CB000B1FBF0F000F0FCFB40B9102D06D2002291
:100CC0002946501E00F030F8356000E0012420462F
:100CD00070BD0000000000200C0000200A4882B017
:100CE000016E41F001010166016E01F00101009108
:100CF000816D41F080518165806D00F080500090E1
:100D000002B000F0A1B8000000100240002809DB8A
:100D100000F01F02012191404009800000F1E02015
:100D2000C0F8001170470000F0B40E4B1B680C4671
:100D3000C3F30223C3F10705042D00D90425191DAF
:100D4000072901D2002300E0DB1E012606FA05F187
:100D5000491E214099409E40761E16403143F0BC0A
:100D600001F0C1B80CED00E0064900F00702086888
:100D70004FF6FF03184040EA0220034A1043086080
:100D8000704700000CED00E00000FA052B492C4BE9
:100D90000A6832214A432B4940B1B0F5007F086808
:100DA00029D020F4C06040F480602CE00868C0F3D3
:100DB0004120022804D051F8800F20F4807022E0F6
:100DC000D1F8800020F48070C1F88000086820F419
:100DD000C06040F400700860B2FBF3F0401C00E01B
:100DE000401E4A69520501D50028F9D148694005DD
:100DF0000AD503207047C0F34120022806D051F8DD
:100E0000800F40F48070086000207047D1F88000A7
:100E100040F48070C1F88000086820F4C06040F49D
:100E200000700860B2FBF3F0401C00E0401E4A690D
:100E30005205DBD50028F9D1D8E700000C000020CE
:100E400040420F00007000400248816841F4804138
:100E500081607047007000402DE9F0470E460500A4
:100E60004FF0000725D0DFF8AC81D8F8000000F083
:100E70000F00B0420CD2D8F8001021F00F0131431E
:100E8000C8F80010D8F8000000F00F00B04210D1F0
:100E90002968614CC80741F2883A5AD06868DFF87F
:100EA0007C91032808D0022820682DD04005002816
:100EB0002CDB0120BDE8F08720688001F9D5E068CF
:100EC00000F00302E068C0F30310401C032A19D0AD
:100ED000534A00BFB2FBF0F0E268C2F3062250436F
:100EE000E268C2F34162521C5200B0FBF2F0484586
:100EF00017D9A06810F0F00F0CD0880711D5A8689A
:100F000040B10EE0474AE5E78003D0E700F092F8F1
:100F1000484506D9A06820F0F00040F08000A060AD
:100F20008027A068696820F003000843A060FFF7ED
:100F300053FB814606E000BFFFF74EFBA0EB090123
:100F400051453AD8A068696800F00C00B0EB810FF9
:100F5000F2D12868810714D5400703D5A06840F472
:100F6000E060A0602878000705D5A06820F46050F4
:100F700040F4E060A060A068A96820F0F000084399
:100F800004E0802F03D1A06820F0F000A060D8F822
:100F90000010404601F00F01B14216D9016821F05E
:100FA0000F0131430160FFF717FB074607E000BF61
:100FB000FFF712FBC11B514501D903207AE7D8F88E
:100FC000000000F00F00B042F2D12878400705D5AC
:100FD000A068E96820F4E0600843A0602878000772
:100FE00006D5A068296920F4605040EAC100A060DD
:100FF00000F020F8A1680C4AC1F30311515C01F024
:101000001F01C8400949086009480068BDE8F04769
:10101000FFF742BE002002400010024000B4C404AA
:101020000024F40000366E016A1F00080C00002046
:1010300000000020184910B58868C0F381021748E5
:10104000012A0BD08A68164BC2F38102022A06D00D
:101050008A68C2F38102032A03D0002010BD18461B
:1010600010BDCA6802F00304CA68C2F30312521C1E
:10107000032C02D0B0FBF2F001E0B3FBF2F0CA683F
:10108000C968C2F306225043C1F34161491C4900BB
:10109000B0FBF1F010BD0000001002400024F4008D
:1010A00000366E012DE9F84304007AD02078FA4D1D
:1010B000C00747D0A868E96800F00C0001F0030100
:1010C0000C2802D0082817D001E0032914D060684A
:1010D000B0F5803F17D0B0F5A02F286817D020F4C6
:1010E00080302860286820F4802028606068E0B1A3
:1010F000FFF772FA064614E02868800322D560687C
:101100000028D2D01EE0286840F48030EDE740F49B
:1011100080202860F7E700BFFFF75EFA801B642895
:1011200070D828688003F7D50CE0FFF755FA06461B
:1011300005E000BFFFF750FA801B6428F0D828684C
:101140008003F7D4207880074CD5A868E96800F0C0
:101150000C0001F003010C2802D004280DD001E09E
:1011600002290AD0E068002828682BD040F480705B
:101170002860FFF731FA064619E02868400502D5D5
:10118000E068002891D06868217C20F0FE4040EAA9
:1011900001606860C1480068FFF77EFD002800D14B
:1011A00020E076E1FFF718FA801B0228B8D82868FB
:1011B0004005F7D56868217C20F0FE4040EA0160D8
:1011C00068600FE020F480702860FFF705FA06469B
:1011D00005E000BFFFF700FA801B0228A0D82868AE
:1011E0004005F7D42078000729D560690028D5F894
:1011F000940013D040F00100C5F89400FFF7ECF91B
:10120000064606E090E000BFFFF7E6F9801B0228E3
:1012100086D8D5F894008007F6D510E020F00100BC
:10122000C5F89400FFF7D8F9064604E0FFF7D4F9B3
:10123000801B022878D8D5F894008007F6D420784F
:10124000400761D5A86D0026C00008D4A86D40F005
:101250008050A865A86D012600F08050009090484D
:101260000168C90511D40168804641F480710160AC
:10127000FFF7B2F9074604E0FFF7AEF9C01B0228FA
:1012800052D8D8F80000C005F6D5A068012815D0BE
:101290000528D5F8900016D020F00100C5F8900080
:1012A000D5F8900020F00400C5F89000A06841F245
:1012B0008838B8B1FFF790F907460EE0D5F89000EE
:1012C00040F00100F0E740F00400C5F89000F5E7B9
:1012D000FFF782F9C11B414526D8D5F89000800759
:1012E000F6D50CE0FFF778F9074604E0FFF774F94C
:1012F000C11B414518D8D5F890008007F6D41EB11F
:10130000A86D20F08050A8652078800629D5A069B6
:101310000028D5F8980013D040F00100C5F89800D7
:10132000FFF75AF9064606E077E000BFFFF754F9E9
:10133000801B022877D8D5F898008007F6D510E0F2
:1013400020F00100C5F89800FFF746F9064604E0D2
:10135000FFF742F9801B022865D8D5F8980080076E
:10136000F6D4E069F0B3A968C1F38101032961D023
:101370000228286820F0807028600BD0E86820F0F0
:101380000300E860E86847490840E860FFF724F98F
:1013900004464BE0FFF720F9064604E0FFF71CF98E
:1013A000801B02283FD828688001F7D4F4E908019F
:1013B0006FF00F0202EB01110843218A5204490821
:1013C00002EB4151A26841EA02210843217D4FF01E
:1013D0007E42490802EB41610843217B40EAC1603B
:1013E000E96800E062E0304A11400843E86028689C
:1013F00040F080702860E86840F08070E860FFF797
:10140000EBF8044605E000BFFFF7E6F8001B0228F2
:1014100009D828688001F7D548E004E0FFF7DCF838
:10142000001B022802D90320BDE8F8832868800148
:10143000F4D43BE00128F7D0E868226A00F0030109
:10144000914226D1616A00F0F002090110399142FF
:101450001FD1A26A00F4FE41B1EB022F19D194F81A
:101460002C2000F07841B1EBC26F12D1218E00F434
:10147000C00249084905A1F50011914209D194F82B
:10148000341000F0C06049084906A1F100718142A2
:101490000CD00120C8E7000000100240000000202E
:1014A00000700040FFFFEEFE0C809F010020BBE7B4
:1014B00010B5401EB0F1807F01D3012010BD4FF068
:1014C000E02460610F21601700F00DFD0020A06195
:1014D00007202061002010BD06210148FFF709B94F
:1014E00010000020072930D2DFE801F00A10161C96
:1014F000222804000068D0F8841341F0010122E0A2
:101500000068D0F8841341F002011CE00068D0F8B4
:10151000841341F0040116E00068D0F8841341F010
:10152000080110E00068D0F8841341F010010AE0CF
:101530000068D0F8841341F0200104E00068D0F87E
:10154000841341F04001C0F88413704770B506461B
:101550000068D0F88853D0F89043E90707D0E10736
:1015600005D00121C0F88C133046FFF7BCF8A8075E
:1015700008D5A00706D531680220C1F88C03304693
:10158000FFF7B2F8680708D5600706D53168042070
:10159000C1F88C033046FFF7A8F8280708D52007C4
:1015A00006D531680820C1F88C033046FFF79EF855
:1015B000E80608D5E00606D531681020C1F88C038E
:1015C0003046FFF794F8680608D5600606D53168FE
:1015D0004020C1F88C033046FFF78AF8A80608D5EA
:1015E000A00606D531682020C1F88C033046FFF7ED
:1015F00090F970BD70B503681A68D3F8A0534C69B0
:1016000022F020022646144324F0C002202E2BD0C4
:101610008C69022C28D0032C2BD0042C2ED022F045
:10162000E00200BF22F40064CA69224322F480640D
:101630000A6A224322F0C0644A6A224322F000640C
:101640008A6A2243CC6A22F0404242EA840222F0B3
:1016500000544A6B096B224325F4803421431A60FD
:101660000068C0F8A01370BD22F0C00242F0200252
:10167000D8E722F0800242F04002D3E722F0400295
:1016800042F08002CEE72DE9F04704460068D0F82A
:101690008883D0F890734668C5685FEAC8314FF018
:1016A00001090DD5F9030BD54FF48031C0F88C1327
:1016B00084F8DD90002084F8DC002046FEF79AFFD5
:1016C0005FEA883009D5B80307D521684FF40030A8
:1016D000C1F88C032046FEF785FFF00708D0E80725
:1016E00006D02168C1F8089006212046FEF77DFF4C
:1016F000B00708D5A80706D5216802208860062112
:101700002046FEF773FF700708D5680706D52168E5
:101710000420886006212046FEF769FF300708D5BF
:10172000280706D521680820886006212046FEF794
:101730005FFFF00608D5E80606D52168102088600E
:1017400006212046FFF7BEF8B00607D5A80605D546
:101750002168202088602046FFF7DAF8700608D557
:10176000680606D521684020886006212046FFF7DC
:10177000A8F8BDE8F087F0B50024E426056806EB7C
:10178000C11755F807C0B82606EBC116AE59402A56
:1017900020D00EDC082A2CD006DC012A1AD0022A1E
:1017A00027D0042A31D115E0102A13D0202A2CD1B9
:1017B0001FE0B2F5007F1CD005DC802A19D0B2F5FD
:1017C000807F22D106E0B2F5806F03D0B2F5006FC2
:1017D0001BD10EE04FF0BC0E0EEBC11E5A6845F84F
:1017E0000E204FF0C00E05680EEBC1119A686A50CA
:1017F0000BE0C42404EBC1145A682A51C8250468BC
:1018000005EBC1119A6862501024FE21A1401A68AC
:101810002CEA010CA240D96842EA0C02A140114313
:101820001A69D3F814C01546A2400A430CFA04FC06
:1018300099694CEA020CA14041EA0C01082D06D13D
:10184000B20504D4B20102D4DA69A240114300689F
:10185000C151F0BD2DE9F041074688460068842259
:1018600002EBC81146588C2202EBC81145584FF0C4
:101870008802F30702EBC81407D0E90705D001215D
:10188000015141463846FEF7B0FEB00708D5A8071B
:1018900006D539680220085141463846FEF7A6FEB3
:1018A000700708D5680706D53968042008514146F5
:1018B0003846FEF79CFE300708D5280706D539685C
:1018C0000820085141463846FEF792FEF00608D53A
:1018D000E80606D539681020085141463846FEF71B
:1018E000F1FF700608D5680606D539684020085112
:1018F00041463846FEF7E5FF300608D5280606D5EE
:1019000039688020085141463846FEF76CFEF005E4
:1019100009D5E80507D539684FF48070085141466C
:101920003846FEF761FEB00509D5A80507D5396828
:101930004FF40070085141463846FEF79EFF70058F
:1019400009D5680507D539684FF4806008514146CC
:101950003846FEF791FF300509D5280507D53968C7
:101960004FF40060085141463846FEF788FFF00406
:1019700009D5E80407D539684FF48050085141462D
:101980003846FEF77BFFB00409D5A80407D53968AF
:101990004FF40050085141463846FEF72AFE7004C5
:1019A00009D5680407D539684FF48040085141468D
:1019B0003846FEF797FEBDE8F08100002DE9F04FB4
:1019C0008024036804EBC117DC5924F07044DC5117
:1019D0000568EC59E82303EBC1139E4655F803C094
:1019E000E42303EBC1139B4655F803A0D5F8A033BD
:1019F000566924F020043443202E24D09669022E08
:101A000021D0032E24D0042E27D024F4D07400BF7C
:101A100024F40066D469344324F48066146A3443A1
:101A200024F0C066546A344324F00066946A344358
:101A300024F07046D46A3443566B24F40034B6F173
:101A4000005F0FD010E024F4C07444F02004DFE7FE
:101A500024F4807444F08004DAE724F0800444F431
:101A60008074D5E744F4003424F04008946B2CF0E3
:101A70003F0C264644EA080424F48028946D44EA86
:101A80000804DFF8D08004EA0804D2F8508048EA5D
:101A9000040992F83C40D2F8408004F03F0444EA44
:101AA0000C0424F0004448EA0408546C2AF4807CB6
:101AB00044EA0C04D2F848C0BCF5606F02D0BCF513
:101AC000F05F01D1402E03D124F4F0544CEA040419
:101AD00024F48046D46C3443566D062927D2DFE8BF
:101AE00001F003090F151B21126B23F4003343EAA5
:101AF00042031CE0126B23F4802343EA820316E0C6
:101B0000126B23F4002343EAC20310E0126B23F4A8
:101B1000801343EA02130AE0126B23F4001343EA32
:101B2000421304E0126B23F4800343EA821345F866
:101B30000790056845F80E80056845F80B40D424E9
:101B4000026804EBC11156500068C0F8A033BDE82C
:101B5000F08F0000FFFF06FEFEE7000010B586B024
:101B600014216846FEF7A8FB1C48C16C41F0200117
:101B7000C164C16C01F020010591C16C41F0040108
:101B8000C164C16C01F004010591C16C41F0020116
:101B9000C164C16C01F002010591C16C41F0010109
:101BA000C164C06C0E4C00F00100059001220421BC
:101BB0002046FEF70BFD002208212046FEF706FD19
:101BC0000C20009001200021CDE90101039169461C
:101BD0002046FEF7D7FB06B010BD00000010024003
:101BE0000008004870B5B8B00024209421942294D5
:101BF000602168462394FEF75FFB1C2124A8FEF7B2
:101C00005BFB3494359424212BA83694FEF754FBC7
:101C1000202118A8FEF750FB90488F49C0E9001416
:101C20008460FEF771FD08B172B6FEE70C218B48A7
:101C3000FEF7E1FC08B172B6FEE70A218748FEF71D
:101C40001FFE08B172B6FEE74FF4AA50CDE920049A
:101C5000082520AA06218148CDE92245FEF75AFE33
:101C600008B172B6FEE70126009401940294CDE912
:101C70000346059406940794F0060894CDE90940BC
:101C80008000CDE90C400B946A46062173481794F6
:101C9000FEF760FF08B172B6FEE74FF42A602090AD
:101CA00020AA00216D48FEF735FE08B172B6FEE7A6
:101CB000279424AA0021694824962A94FEF792FFCB
:101CC00008B172B6FEE7002211466448FEF7FBFD3C
:101CD00008B172B6FEE701944FF48070CDE9104070
:101CE00000940F941020CDE914400E9412946A468B
:101CF00000215A481694FEF72DFF08B172B6FEE790
:101D00006A46012155481194FEF724FF08B172B6C6
:101D1000FEE76A4602215148FEF71CFF08B172B681
:101D2000FEE74FF4AA60349034AB012200214B4807
:101D3000FEF72DFE08B172B6FEE74FF44060CDE924
:101D40002B044FF00070CDE930402D942E942F9449
:101D500032942BAA002141483394FEF77DFC08B150
:101D600072B6FEE7CDE91A54CDE918451C941D94CE
:101D70001E9418AB0122002138481F94FEF7B7FECD
:101D800008B172B6FEE718AB042201213348FEF712
:101D9000AEFE08B172B6FEE718AB102202212F4842
:101DA000FEF7A5FE08B172B6FEE7199418AB022241
:101DB00000212A481A94FEF79AFE08B172B6FEE78F
:101DC00020AA01212548FEF7A5FD08B172B6FEE75D
:101DD00024AA01212148FEF705FF08B172B6FEE7EB
:101DE000002201211D48FEF76EFD08B172B6FEE724
:101DF0004FF4FA700122349034AB11461748FEF7C5
:101E0000C6FD08B172B6FEE720AA02211348FEF70C
:101E100081FD08B172B6FEE724AA02210F48FEF741
:101E2000E1FE08B172B6FEE7002202210B48FEF780
:101E30004AFD08B172B6FEE7FA20349034AB0122B5
:101E400002210648FEF7A3FD08B172B6FEE703487B
:101E5000FEF7D8FC38B070BD0068014010000020CB
:101E6000FEE7FEE770477047FEF7FEBE10B594B080
:101E700038216846FEF720FA14210EA8FEF71CFA56
:101E80000020FEF783FF01200090000403240621B8
:101E90000190CDE9084102205521CDE90A100790B3
:101EA0000C900D906846FFF7FDF808B172B6FEE79A
:101EB0000F20CDE90E040020109011901290042103
:101EC0000EA8FEF7C9FF002801D072B6FEE714B0D5
:101ED00010BD00000248016841F4700101607047C4
:101EE00088ED00E0FEE70907090E002804DB00F199
:101EF000E02080F80014704700F00F0000F1E020AF
:101F000080F8141D70470000FEF7B6FEFFF7AEFF25
:101F1000FFF724FEFFF766FE4FF480310F48FEF70F
:101F2000D0FD4FF400310D48FEF7CBFD03210B48E7
:101F3000FEF7F8FD4FF480210848FEF7C2FD0421AA
:101F40000648FEF7EFFD4FF400210448FEF7B9FD07
:101F500010210248FEF7E6FDFEE700001000002019
:101F60004FF04070E1EE100A7047000000000000E2
:101F70000000010203040607080900009C1F000876
:101F8000000000201000000014020008AC1F000830
:101F90001000002060070000300200081000000060
:0C1FA00001000000000000000024F4001C
:04000005080001D915
:00000001FF
