:020000040800F2
:10000000C006002079020008D3180008491700082C
:10001000D11800087F030008571E000800000000E8
:10002000000000000000000000000000D7180008D9
:100030008103000800000000D5180008D918000846
:10004000930200089302000893020008930200083C
:10005000930200089302000893020008930200082C
:10006000930200089302000893020008930200081C
:10007000930200089302000893020008930200080C
:1000800093020008930200089302000893020008FC
:1000900093020008930200089302000893020008EC
:1000A0009302000855190008930200089302000803
:1000B00093020008930200089302000893020008CC
:1000C00093020008930200089302000893020008BC
:1000D00093020008930200089302000893020008AC
:1000E000930200089302000893020008930200089C
:1000F000930200089302000893020008930200088C
:10010000930200089302000893020008930200087B
:10011000930200089302000893020008930200086B
:10012000930200089302000893020008930200085B
:10013000930200089302000893020008930200084B
:10014000930200089302000893020008930200083B
:10015000930200089302000893020008930200082B
:10016000930200089302000893020008930200081B
:10017000930200089302000893020008930200080B
:1001800093020008930200089302000893020008FB
:100190009302000800000000930200089302000888
:1001A00093020008930200089302000893020008DB
:1001B00093020008930200089302000893020008CB
:1001C00093020008930200089302000893020008BB
:1001D000930200089302000800F002F800F03CF8D7
:1001E0000AA090E8000C82448344AAF10107DA4592
:1001F00001D100F031F8AFF2090EBAE80F0013F0A8
:10020000010F18BFFB1A43F001031847C01C000080
:10021000E01C0000103A24BF78C878C1FAD8520711
:1002200024BF30C830C144BF04680C607047000070
:100230000023002400250026103A28BF78C1FBD8EF
:10024000520728BF30C148BF0B6070471FB501F08F
:100250002FFE1FBD10B510BD00F058F81146FFF776
:10026000F5FF01F009FE00F076F803B4FFF7F2FFA6
:1002700003BC00F07DF800000948804709480047AA
:10028000FEE7FEE7FEE7FEE7FEE7FEE7FEE7FEE746
:10029000FEE7FEE704480549054A064B70470000A3
:1002A00045190008D9010008C0000020C006002040
:1002B000C0020020C00200204FF0000200B513462B
:1002C00094469646203922BFA0E80C50A0E80C5076
:1002D000B1F12001BFF4F7AF090728BFA0E80C5027
:1002E00048BF0CC05DF804EB890028BF40F8042B20
:1002F00008BF704748BF20F8022B11F0804F18BF8D
:1003000000F8012B7047704770477047754600F042
:100310002BF8AE4605006946534620F00700854697
:1003200018B020B5FFF7B6FFBDE820404FF000063B
:100330004FF000074FF000084FF0000B21F00701CD
:10034000AC46ACE8C009ACE8C009ACE8C009ACE810
:10035000C0098D46704710B50446AFF300802046B3
:10036000BDE81040FFF781BF004870475C000020E7
:1003700001491820ABBEFEE7260002007047FEE7E9
:10038000704700002DE9F04FDFF82092002301268E
:100390000324A9F1040B85B00F2709F1040AABF17E
:1003A000040EFAE006FA03F52A407CD091F804C066
:1003B0000CF0030CBCF1010F02D0BCF1020F26D1EE
:1003C000D0F808C0CDF800C04FEA430C04FA0CF88E
:1003D000CDF810C0DDF800C02CEA080CCDF800C044
:1003E000D1F80C80DDF810C008FA0CF8DDF800C078
:1003F00048EA0C08C0F80880D0F804C02CEA050CC4
:100400000D79C5F300159D4045EA0C0545600D7951
:10041000ED43AD070ED0C5684FEA430804FA08FC67
:1004200025EA0C05D1F808C00CFA08FC4CEA050CCA
:10043000C0F80CC00D7905F00305022D16D1DD08BA
:1004400000EB850CCDF808C0DCF820805D074FEA92
:10045000D56C07FA0CF528EA05080D6905FA0CF5C4
:10046000DDF808C045EA0805CCF8205005684FEAD9
:10047000430CCDF808C004FA0CFC25EA0C0591F8F1
:1004800004C00CF00308DDF808C008FA0CF848EACC
:100490000508C0F800804D6815F4403F7CD0444DFD
:1004A000D5F860C000E077E04CF0010CC5F860C002
:1004B0002D6E23F0030C05F0010500953D4D6544BC
:1004C0000295AD684FEA837C4FEA1C7807FA08FC76
:1004D00025EA0C05B0F1904F06D0DFF8DCC060458E
:1004E00005D14FF0010C20E04FF0000C1DE0DFF8CB
:1004F000CCC0604502D14FF0020C16E0DFF8C0C05E
:10050000604502D14FF0030C0FE0DFF8B8C0604542
:1005100002D14FF0040C08E0DFF8ACC0604502D116
:100520004FF0050C01E04FF0060C0CFA08FC4CEA09
:10053000050C029DC5F808C0D9F80050CC46D1F88A
:10054000048095435FEAC82800D51543CCF80050D5
:10055000DAF80050D446D1F8048095435FEA882841
:1005600000D51543CCF80050DBF80050DC46D1F83C
:10057000048095435FEA883800D51543CCF80050D5
:10058000DEF80050F446D1F8048095435FEAC8389D
:1005900000D51543CCF800505B1C0A6832FA03F50D
:1005A0007FF400AF05B0BDE8F08F00000804014003
:1005B000001002400000014000040048000800480C
:1005C000000C004800100048001400480AB1816186
:1005D00070478162704700000148806870470000E2
:1005E0000000002002488168426811448160704721
:1005F0000000002010B50024032000F073F80F2045
:1006000000F008F808B1012401E000F025F82046C8
:1006100010BD000070B50E4E05460024706898B1FC
:100620004FF47A71B1FBF0F00A490968B1FBF0F0C0
:1006300000F0FCFB40B9102D06D200222946501EC6
:1006400000F030F8356000E00124204670BD000065
:10065000000000200C0000200A4882B0016E41F02A
:1006600001010166016E01F001010091816D41F00F
:1006700080518165806D00F08050009002B000F0E4
:10068000A1B8000000100240002809DB00F01F02A2
:10069000012191404009800000F1E020C0F80011E4
:1006A00070470000F0B40E4B1B680C46C3F30223E6
:1006B000C3F10705042D00D90425191D072901D20E
:1006C000002300E0DB1E012606FA05F1491E214049
:1006D00099409E40761E16403143F0BC01F0BCBBF1
:1006E0000CED00E0064900F0070208684FF6FF0332
:1006F000184040EA0220034A104308607047000097
:100700000CED00E00000FA052B492C4B0A68322161
:100710004A432B4940B1B0F5007F086829D020F446
:10072000C06040F480602CE00868C0F341200228DB
:1007300004D051F8800F20F4807022E0D1F88000BE
:1007400020F48070C1F88000086820F4C06040F494
:1007500000700860B2FBF3F0401C00E0401E4A69E4
:10076000520501D50028F9D1486940050AD5032072
:100770007047C0F34120022806D051F8800F40F4A2
:100780008070086000207047D1F8800040F48070CD
:10079000C1F88000086820F4C06040F40070086070
:1007A000B2FBF3F0401C00E0401E4A695205DBD565
:1007B0000028F9D1D8E700000C00002040420F00CB
:1007C000007000400248816841F4804181607047B8
:1007D000007000402DE9F0470E4605004FF000077D
:1007E00025D0DFF8AC81D8F8000000F00F00B0424F
:1007F0000CD2D8F8001021F00F013143C8F80010D6
:10080000D8F8000000F00F00B04210D12968614C08
:10081000C80741F2883A5AD06868DFF87C9103280B
:1008200008D0022820682DD0400500282CDB0120AC
:10083000BDE8F08720688001F9D5E06800F0030288
:10084000E068C0F30310401C032A19D0534A00BFCC
:10085000B2FBF0F0E268C2F306225043E268C2F352
:100860004162521C5200B0FBF2F0484517D9A06813
:1008700010F0F00F0CD0880711D5A86840B10EE039
:10088000474AE5E78003D0E700F092F8484506D9EB
:10089000A06820F0F00040F08000A0608027A068F1
:1008A000696820F003000843A060FFF795FE8146C9
:1008B00006E000BFFFF790FEA0EB090151453AD8D2
:1008C000A068696800F00C00B0EB810FF2D12868D5
:1008D000810714D5400703D5A06840F4E060A0600C
:1008E0002878000705D5A06820F4605040F4E06047
:1008F000A060A068A96820F0F000084304E0802F01
:1009000003D1A06820F0F000A060D8F800104046A5
:1009100001F00F01B14216D9016821F00F013143F6
:100920000160FFF759FE074607E000BFFFF754FEDE
:10093000C11B514501D903207AE7D8F8000000F027
:100940000F00B042F2D12878400705D5A068E968C9
:1009500020F4E0600843A0602878000706D5A0686E
:10096000296920F4605040EAC100A06000F020F83E
:10097000A1680C4AC1F30311515C01F01F01C8408A
:100980000949086009480068BDE8F047FFF742BE22
:10099000002002400010024000B4C4040024F4000F
:1009A00000366E01BA1E00080C0000200000002076
:1009B000184910B58868C0F381021748012A0BD086
:1009C0008A68164BC2F38102022A06D08A68C2F3F3
:1009D0008102032A03D0002010BD184610BDCA684A
:1009E00002F00304CA68C2F30312521C032C02D0A3
:1009F000B0FBF2F001E0B3FBF2F0CA68C968C2F3E1
:100A000006225043C1F34161491C4900B0FBF1F09B
:100A100010BD0000001002400024F40000366E01FA
:100A20002DE9F84304007AD02078FA4DC00747D06A
:100A3000A868E96800F00C0001F003010C2802D05E
:100A4000082817D001E0032914D06068B0F5803F72
:100A500017D0B0F5A02F286817D020F48030286078
:100A6000286820F4802028606068E0B1FFF7B4FDBA
:100A7000064614E02868800322D560680028D2D09A
:100A80001EE0286840F48030EDE740F480202860C4
:100A9000F7E700BFFFF7A0FD801B642870D8286827
:100AA0008003F7D50CE0FFF797FD064605E000BF91
:100AB000FFF792FD801B6428F0D828688003F7D4E4
:100AC000207880074CD5A868E96800F00C0001F098
:100AD00003010C2802D004280DD001E002290AD01D
:100AE000E068002828682BD040F480702860FFF769
:100AF00073FD064619E02868400502D5E068002825
:100B000091D06868217C20F0FE4040EA0160686076
:100B1000C1480068FFF77EFD002800D120E076E1A3
:100B2000FFF75AFD801B0228B8D828684005F7D582
:100B30006868217C20F0FE4040EA016068600FE0B8
:100B400020F480702860FFF747FD064605E000BFEF
:100B5000FFF742FD801B0228A0D828684005F7D483
:100B60002078000729D560690028D5F8940013D0B3
:100B700040F00100C5F89400FFF72EFD064606E0A0
:100B800090E000BFFFF728FD801B022886D8D5F82B
:100B900094008007F6D510E020F00100C5F894001D
:100BA000FFF71AFD064604E0FFF716FD801B02283A
:100BB00078D8D5F894008007F6D42078400761D51E
:100BC000A86D0026C00008D4A86D40F08050A8652C
:100BD000A86D012600F08050009090480168C9057A
:100BE00011D40168804641F480710160FFF7F4FC84
:100BF000074604E0FFF7F0FCC01B022852D8D8F8E3
:100C00000000C005F6D5A068012815D00528D5F844
:100C1000900016D020F00100C5F89000D5F89000A3
:100C200020F00400C5F89000A06841F28838B8B1FF
:100C3000FFF7D2FC07460EE0D5F8900040F0010027
:100C4000F0E740F00400C5F89000F5E7FFF7C4FCBA
:100C5000C11B414526D8D5F890008007F6D50CE099
:100C6000FFF7BAFC074604E0FFF7B6FCC11B41459D
:100C700018D8D5F890008007F6D41EB1A86D20F0E2
:100C80008050A8652078800629D5A0690028D5F86D
:100C9000980013D040F00100C5F89800FFF79CFCC5
:100CA000064606E077E000BFFFF796FC801B0228AF
:100CB00077D8D5F898008007F6D510E020F001002D
:100CC000C5F89800FFF788FC064604E0FFF784FCAF
:100CD000801B022865D8D5F898008007F6D4E06913
:100CE000F0B3A968C1F38101032961D00228286803
:100CF00020F0807028600BD0E86820F00300E860E6
:100D0000E86847490840E860FFF766FC04464BE0A6
:100D1000FFF762FC064604E0FFF75EFC801B02283A
:100D20003FD828688001F7D4F4E908016FF00F027A
:100D300002EB01110843218A5204490802EB415198
:100D4000A26841EA02210843217D4FF07E42490812
:100D500002EB41610843217B40EAC160E96800E0A1
:100D600062E0304A11400843E860286840F0807033
:100D70002860E86840F08070E860FFF72DFC0446CA
:100D800005E000BFFFF728FC001B022809D82868EF
:100D90008001F7D548E004E0FFF71EFC001B0228A5
:100DA00002D90320BDE8F88328688001F4D43BE031
:100DB0000128F7D0E868226A00F00301914226D1A9
:100DC000616A00F0F0020901103991421FD1A26A54
:100DD00000F4FE41B1EB022F19D194F82C2000F061
:100DE0007841B1EBC26F12D1218E00F4C0024908E4
:100DF0004905A1F50011914209D194F8341000F091
:100E0000C06049084906A1F1007181420CD001205F
:100E1000C8E7000000100240000000200070004001
:100E2000FFFFEEFE0C809F010020BBE710B5401EC7
:100E3000B0F1807F01D3012010BD4FF0E02460614C
:100E40000F21601701F008F80020A0610720206141
:100E5000002010BD7047704770470000F0B590F853
:100E60003C20012A58D0012280F83C20CA688B68B7
:100E700022F440721A434B6822F480621A430B68D2
:100E800022F400621A430B6922F480521A434B6920
:100E900022F400521A430B6B22F480421A430B8B4C
:100EA00022F4702242EA03421C4C036800271C4DC6
:100EB0001C4EA34203D0AB4201D0B34205D1D1F8BE
:100EC0001CC022F0805242EA0C02A34203D0AB4283
:100ED00001D0B3421BD1B1F828C022F4700242EA1B
:100EE0000C52D1F820C022F0807242EA0C02D1F8F4
:100EF00024C022F0007242EA0C02A34203D0AB42AB
:100F000001D0B34203D1C96A22F000520A435A64A5
:100F100080F83C700020F0BD0220F0BD002C0140A4
:100F2000003401400050014070470068416D41F4B9
:100F3000003141650020704770477047F0B590F868
:100F40003C20012A43D0012580F83C50022280F841
:100F50003D2003685A689C681E4E1F4FDFF87CC016
:100F6000B34203D0BB4201D0634504D122F4700EDA
:100F70004A6842EA0E02DFF868E002EA0E02D1F89F
:100F800000E04EEA020EC3F804E00268B24212D05A
:100F9000B2F1804F0FD0134B9A420CD0124B9A42B1
:100FA00009D0124B9A4206D0BA4204D0104B9A4252
:100FB00001D0624504D1896824F08003194391600F
:100FC00080F83D50002180F83C100846F0BD02201A
:100FD000F0BD0000002C01400034014000500140F1
:100FE0008FFFFFFD0004004000080040000C00409F
:100FF0000040014010B50446022249B104290ED038
:10100000082913D094F84700012816D0012010BDFC
:1010100094F844000128F9D184F844200FE094F8B2
:1010200045000128F2D184F8452008E094F84600F4
:101030000128EBD184F8462001E084F847200422FF
:10104000206800F004FD2068416C41F400414164D7
:1010500013492068884214D0B0F1804F11D0114953
:1010600088420ED0104988420BD01049884208D0DF
:101070000F49884205D00F49884202D00E49884264
:1010800007D181680D4A1140062906D0B1F5803F8D
:1010900003D0016841F001010160002010BD000093
:1010A000002C01400004004000080040000C0040FB
:1010B00000340140004001400050014007000100A1
:1010C000704710B5040003D094F83D0010B107E05C
:1010D000012010BD002084F83C00204600F022F8DA
:1010E000022084F83D00211D206800F039FC012019
:1010F00084F8480084F83E0084F83F0084F84000FB
:1011000084F8410084F8420084F8430084F84400E5
:1011100084F8450084F8460084F8470084F83D00D0
:10112000002010BD08B500680B49884212D10B4859
:10113000016E41F400610166006E002200F400605F
:10114000009011461920FFF7ADFABDE808401920BC
:10115000FFF79ABA08BD0000002C014000100240C1
:1011600070B5044690F83C00002501281CD00126EB
:1011700084F83C60022084F83D0022689068334B7C
:10118000184020F47F4090600868B0F5005F2ED0D2
:1011900016DC402849D009DCD0B1102818D020280E
:1011A00016D0302849D113E0022070BD50282AD033
:1011B000602830D070280FD0B0F5805F3DD13DE081
:1011C00010F00F0F39D10111A1F58031072934D862
:1011D00022680146104625E0CB68D1E9012120684C
:1011E00000F042FC2068816841F0770109E0CB689B
:1011F000D1E90121206800F037FC2068816841F4C2
:10120000804181601AE0CA684968206800F000FEE9
:101210005021206806E0CA684968206800F009FE8D
:101220006021206800F02AFC08E0CA68496820684C
:1012300000F0EEFD40212068F4E7012584F83D60D0
:10124000002084F83C00284670BD000088FFCEFFD7
:10125000704770B50446006801694FF00005C94346
:10126000890715D4C168C943890711D4E91E0161F2
:1012700001202077206880698007204602D0FFF790
:10128000E7FF04E000F00EF9204600F0D0F92577E2
:1012900020680169C943490717D4C168C943490790
:1012A00013D46FF004010161022020772068806967
:1012B00010F4407F204602D0FFF7CAFF04E000F0A0
:1012C000F1F8204600F0B3F9257720680169C94399
:1012D000090716D4C168C943090712D46FF0080181
:1012E0000161042020772068C0698007204602D071
:1012F000FFF7AEFF04E000F0D5F8204600F097F9C4
:10130000257720680169C943C90617D4C168C94354
:10131000C90613D46FF010010161082020772068FE
:10132000C06910F4407F204602D0FFF791FF04E02F
:1013300000F0B8F8204600F07AF9257720680169B6
:10134000C943C90708D1C168C943C90704D1891E67
:101350000161204600F0F6F920680169C9430906D9
:1013600009D4C168C943090605D46FF08001016141
:101370002046FFF770FD20680169C943C90509D4FB
:10138000C168C943090605D46FF480710161204624
:10139000FFF760FD20680169C943490609D4C168A7
:1013A000C943490605D46FF040010161204600F0B1
:1013B000CAF920680169C943890609D4C168C943CB
:1013C000890605D46FF0200101612046FFF744FD36
:1013D00020680169C943C90209D4C168C943C90267
:1013E00005D46FF4801101612046FFF7A5FD206848
:1013F0000169C943890209D4C168C943890205D476
:101400006FF4001101612046FFF78EFD206801692D
:10141000C943490209D4C168C943490205D46FF4DC
:10142000800101612046FFF788FD20680169C943FA
:1014300009020BD4C168C943090207D46FF4000143
:1014400001612046BDE87040FFF73ABE70BD000064
:1014500010B586B0044614216846FEF72DFF0F49EB
:101460002068884217D10E48C16C41F00101C16467
:10147000C06C694600F0010005904FF4F0600090E8
:1014800002200190002002900390062004904FF06B
:101490009040FEF777FF06B010BD0000002C014021
:1014A00000100240704770B5044690F83C000026DA
:1014B0000D4601280BD0012084F83C000C2A4AD0AC
:1014C00007DC82B1042A20D0082A06D131E00220AC
:1014D00070BD102A53D0142A63D00126002084F84E
:1014E0003C00304670BD206800F0D2FA2068816967
:1014F00041F0080181612068816921F00401816166
:10150000206881692A69114311E0206800F016FB08
:101510002068816941F4006181612068816921F45A
:1015200080618161206881692A6941EA02218161C3
:10153000D4E7206800F052FB2068C16941F008013F
:10154000C1612068C16921F00401C1612068C169DD
:101550002A69114311E0206800F090FB2068C169FE
:1015600041F40061C1612068C16921F48061C161F9
:101570002068C1692A6941EA0221C161AEE7206899
:1015800000F0CCFB2068016D41F008010165206886
:10159000016D21F0040101652068016D2A69114384
:1015A00011E0206800F0F6FB2068016D41F4006155
:1015B00001652068016D21F4806101652068016D7D
:1015C0002A6941EA0221016588E710B5040003D0C9
:1015D00094F83D0010B107E0012010BD002084F810
:1015E0003C00204600F022F8022084F83D00211D36
:1015F000206800F0B5F9012084F8480084F83E0026
:1016000084F83F0084F8400084F8410084F84200E8
:1016100084F8430084F8440084F8450084F84600C8
:1016200084F8470084F83D00002010BD70477047E3
:1016300070B50446022269B1042912D0082917D0D6
:101640000C291CD0102921D094F84300012824D063
:10165000012070BD94F83E000128F9D184F83E20A5
:101660001DE094F83F000128F2D184F83F2016E0F5
:1016700094F840000128EBD184F840200FE094F862
:1016800041000128E4D184F8412008E094F84200A8
:101690000128DDD184F8422001E084F843200122B2
:1016A000206800F0C7F91D4920681D4A1D4B1E4DDA
:1016B00088420BD0904209D0984207D01B4EB042CE
:1016C00004D01B4EB04201D0A84203D1466C46F470
:1016D000004646642068884211D0B0F1804F0ED099
:1016E000144988420BD01449884208D013498842D3
:1016F00005D0904203D0984201D0A84207D181681A
:101700000F4A1140062906D0B1F5803F03D0016889
:1017100041F001010160002070BD0000002C01407B
:1017200000340140004001400050014000440140AD
:10173000004801400004004000080040000C004048
:101740000700010070477047FEE7000010B586B043
:1017500014216846FEF7B0FD1848C16C41F0200125
:10176000C164C16C01F020010591C16C41F004011C
:10177000C164C16C01F004010591C16C41F001012B
:10178000C164C06C0E4C00F00100059001220421E0
:101790002046FEF71BFF002208212046FEF716FF19
:1017A0000C20009001200021CDE901010391694640
:1017B0002046FEF7E7FD06B010BD00000010024015
:1017C0000008004830B59BB0002419941A9417946F
:1017D0001894149415941C210DA81694FEF76CFD12
:1017E00034216846FEF768FD38483749C0E90014DF
:1017F000202181605421C0E903148021C0E9054102
:10180000FFF75FFC08B172B6FEE74FF48050179007
:1018100017A92E48FFF7A4FC08B172B6FEE72B48C3
:10182000FFF7D3FE08B172B6FEE71494159414A91D
:1018300026481694FFF782FB08B172B6FEE76020D7
:101840000D902820CDE90E040420CDE9104012941B
:1018500000220DA91D481394FFF725FE08B172B6AA
:10186000FEE7142504220DA918480E95FFF71BFE6C
:1018700008B172B6FEE70A200E9008220DA913489F
:10188000FFF711FE08B172B6FEE71048FFF74DFBF7
:1018900000944FF40050CDE90440CDE90245000327
:1018A000CDE908400194069407940A940B94694684
:1018B00006480C94FFF7D2FA08B172B6FEE7034867
:1018C000FFF7C6FD1BB030BD002C0140100000200A
:1018D000FEE7FEE770477047FEF784BE10B594B090
:1018E00038216846FEF7E8FC14210EA8FEF7E4FC58
:1018F0000020FEF709FF01200090000403240621C8
:101900000190CDE9084102205521CDE90A10079048
:101910000C900D906846FFF783F808B172B6FEE7A9
:101920000F20CDE90E040020109011901290042198
:101930000EA8FEF74FFF002801D072B6FEE714B0E4
:1019400010BD00000248016841F470010160704759
:1019500088ED00E00148FFF77CBC0000100000208B
:101960002DE9F04F02682A4B2A4E2B4FDFF8ACC00E
:101970002B4C2C4D4FF0804B98420BD0584509D042
:10198000B04207D0B84205D0604503D0A04201D094
:10199000A84204D122F070084A6842EA0802DFF83F
:1019A0008880DFF88890DFF888A0984211D05845E9
:1019B0000FD0B0420DD0B8420BD0604509D0A04244
:1019C00007D0404505D0484503D0504501D0A84236
:1019D00003D122F44076CA6832434E6922F0800275
:1019E000324302608A68C2620A688262984209D001
:1019F000A04207D0404505D0484503D0504501D00E
:101A0000A84201D10969016301214161BDE8F08F5C
:101A1000002C01400004004000080040000C004081
:101A200000340140005001400040014000440140AA
:101A30000048014010B501F01F030121046A9940DC
:101A40008C430462016A9A401143016210BD10B5D3
:101A500001F01F030421046A99408C430462016A67
:101A60009A401143016210BD10B5846842EA032216
:101A700024F47F440A432243826010BD8268034BF2
:101A80001A400A4342F00701816070478FFFCFFF81
:101A90002DE9F047026A22F001020262056A4368FA
:101AA00082691F4C25F0020522400C6822F00302D7
:101AB00014438A681C4E2A431A4D1C4FDFF870C02D
:101AC000DFF87090DFF870A0A84209D0B04207D0CC
:101AD000B84205D0604503D0484501D0504506D1F5
:101AE00022F00808CA6842EA080222F00402A8426A
:101AF00009D0B04207D0B84205D0604503D0484570
:101B000001D0504505D14D6923F440731D438B69C5
:101B10002B4343608461496841630262BDE8F087FA
:101B20008FFFFEFF002C01400034014000400140C7
:101B3000004401400048014000500140F0B5026AF5
:101B400022F010020262056A426883691C4C1E4E34
:101B500023400C6823F4407343EA042425F0200357
:101B60008D681A4F43EA0513164DA84203D0B042C0
:101B700001D0B84207D1D1F80CC023F0800343EA6A
:101B80000C1323F04003A8420CD0B0420AD0104DF1
:101B9000A84207D00F4DA84204D00F4DA84201D053
:101BA000B84207D14D6922F4406242EA85028D694C
:101BB00042EA850242608461496881630362F0BD44
:101BC000FF8FFFFE002C0140003401400050014017
:101BD000004001400044014000480140F0B5026A65
:101BE00022F480720262056A4268C3691C4C1E4E70
:101BF00023400C6823F003031C4325F400738D6815
:101C00001A4F43EA0523174DA84203D0B04201D032
:101C1000B84207D1D1F80CC023F4006343EA0C2387
:101C200023F48063A8420CD0B0420AD0104DA842E1
:101C300007D0104DA84204D00F4DA84201D0B842A1
:101C400007D14D6922F4405242EA05128D6942EAF9
:101C500005124260C4614968C1630362F0BD0000BF
:101C60008FFFFEFF002C0140003401400050014076
:101C7000004001400044014000480140F0B5026AC4
:101C800022F480520262056A4268C3691C4C1E4EEF
:101C900023400C6823F4407343EA042425F40053E2
:101CA0008D681A4F43EA0533164DA84203D0B0425F
:101CB00001D0B84207D1D1F80CC023F4004343EA65
:101CC0000C3323F48043A8420CD0B0420AD0104D0C
:101CD000A84207D00F4DA84204D00F4DA84201D012
:101CE000B84207D14D6922F4404242EA85128D691B
:101CF00042EA85124260C461496801640362F0BD32
:101D0000FF8FFFFE002C01400034014000500140D5
:101D100000400140004401400048014030B5026AE3
:101D200022F480320262046A4268036D124D2B4035
:101D30000D681D4324F400330C8943EA04430F4C1F
:101D4000A0420ED00E4CA0420BD00E4CA04208D0A8
:101D50000D4CA04205D00D4CA04202D00C4CA0422C
:101D600004D14C6922F4803242EA042242600565C3
:101D700049688164036230BD8FFFFEFF002C014083
:101D8000003401400040014000440140004801404F
:101D90000050014030B5026A22F480120262046AE7
:101DA0004268036D134D24F400142B400D6843EA80
:101DB00005230D8944EA05540F4DA8420ED00F4D5E
:101DC000A8420BD00E4DA84208D00E4DA84205D017
:101DD0000D4DA84202D00D4DA84204D14D6922F408
:101DE000802242EA8522426003654968C164046238
:101DF00030BD0000FF8FFFFE002C01400034014089
:101E000000400140004401400048014000500140B2
:101E100010B5036A046A24F001040462846924F0A2
:101E2000F00444EA021423F00A020A4384610262C5
:101E300010BD10B5036A23F0100303628369046ABE
:101E400023F4704343EA023224F0A00343EA011171
:101E50008261016210BDFEE70907090E002804DB5C
:101E600000F1E02080F80014704700F00F0000F14E
:101E7000E02080F8141D7047FEF7BCFBFFF72EFD35
:101E8000FFF764FCFFF79EFC00210848FFF7D0FB3A
:101E900000210648FFF7AEF804210448FFF7C8FB0D
:101EA00008210248FFF7C4FBFEE7000010000020F5
:101EB0004FF04070E1EE100A704700000000000093
:101EC000000001020304060708090000EC1E0008D8
:101ED000000000201000000014020008FC1E000892
:101EE00010000020B00600003002000810000000C2
:0C1EF00001000000000000000024F400CD
:04000005080001D915
:00000001FF
