:020000040800F2
:1000000048200020C1020008C9020008CB020008F5
:10001000CD020008CF020008D10200080000000055
:10002000000000000000000000000000D3020008F3
:10003000D502000800000000D7020008D90200081D
:10004000DB020008DB020008DB020008DB0200081C
:10005000DB020008DB020008DB020008DB0200080C
:10006000DB020008DB020008DB020008CD05000807
:10007000DB020008DB020008DB020008DB020008EC
:10008000DB020008DB020008DB020008DB020008DC
:10009000DB020008DB020008DB020008DB020008CC
:1000A000DB020008DB020008DB020008DB020008BC
:1000B000DB020008DB020008DB020008DB020008AC
:1000C000DB020008DB020008DB020008DB0200089C
:1000D000DB020008DB020008DB020008DB0200088C
:1000E000DB020008DB020008DB020008DB0200087C
:1000F000DB020008DB020008DB020008DB0200086C
:10010000DB020008DB020008DB020008DB0200085B
:10011000DB020008DB020008DB020008DB0200084B
:10012000DB020008DB020008DB020008DB0200083B
:10013000DB020008DB020008DB020008DB0200082B
:10014000DB020008DB020008DB020008A93100081E
:10015000DB020008DB020008DB020008DB0200080B
:10016000DB020008DB020008DB020008DB020008FB
:10017000DB020008DB020008DB020008DB020008EB
:10018000DB020008DB020008DB020008DB020008DB
:10019000DB02000800000000DB020008DB020008B0
:1001A000DB020008DB020008DB020008DB020008BB
:1001B000DB020008DB020008DB020008DB020008AB
:1001C000DB020008DB020008DB020008DB0200089B
:1001D000DB020008DB02000800F002F800F060F823
:1001E0000AA090E8000C82448344AAF10107DA4592
:1001F00001D100F055F8AFF2090EBAE80F0013F084
:10020000010F18BFFB1A43F001031847B43F000069
:10021000D43F00000A4410F8013B13F0030408BF68
:1002200010F8014B1D1108BF10F8015B641E05D0CA
:1002300010F8016B641E01F8016BF9D1002D15D087
:1002400010F8014B03F00C030C2BA1EB04040ABFC4
:1002500010F8013BA4EB8314A4EB032405F1010384
:1002600014F8016B5B1E01F8016BF9D5914238BFA0
:1002700010F8013BD1D3704700230024002500264D
:10028000103A28BF78C1FBD8520728BF30C148BFF9
:100290000B6070471FB503F058FF1FBD10B510BDB0
:1002A00000F0CFF81146FFF7F5FF03F0DDFE00F098
:1002B000EDF803B4FFF7F2FF03BC00F0F5F800001F
:1002C0000948804709480047FEE7FEE7FEE7FEE7EA
:1002D000FEE7FEE7FEE7FEE7FEE7FEE70448054926
:1002E000054A064B70470000813A0008D901000812
:1002F000481A002048200020481C0020481C0020EC
:1003000053EA020C00F069802DE9F04B4FF0000633
:10031000002B1FBFB3FA83F503FA05F424FA05F6A0
:100320005E4012BF1643B2FA82F502FA05F4C5F137
:1003300020051EBF22FA05FC44EA0C04203556EACB
:10034000044C4FEA144418BF641C4FF000084FF0EF
:100350000009904271EB030C39D3002919BFB1FA9F
:1003600081F701FA07F6B0FA80F700FA07F6C7F14D
:1003700020071EBF20FA07FC46EA0C062037B6FB12
:10038000F4FCA7EB0507103F07F01F0BCBF120068D
:100390002CFA06F60CFA0BFB44BFB3460026202FBE
:1003A000A4BF5E464FF0000B5BEA060C08BF4FF09F
:1003B000010B19EB0B0948EB0608ABFB027C06FBB3
:1003C00002CC0BFB03CCC01B71EB0C01C1E70B464D
:1003D000024641464846BDE8F08B13B54FF0000099
:1003E0004FF00001AFF30080BDE81C4070474FF0B4
:1003F000000200B5134694469646203922BFA0E875
:100400000C50A0E80C50B1F12001BFF4F7AF090780
:1004100028BFA0E80C5048BF0CC05DF804EB890071
:1004200028BF40F8042B08BF704748BF20F8022BB4
:1004300011F0804F18BF00F8012B704770477047CC
:100440007047754600F02CF8AE46050069465346E5
:1004500020F00700854618B020B5FFF73FFFBDE844
:1004600020404FF000064FF000074FF000084FF01B
:10047000000BAC46ACE8C009ACE8C009ACE8C00968
:10048000ACE8C00921F007018D46704710B504465D
:10049000AFF300802046BDE81040FFF70ABF000020
:1004A000004870478017002001491820ABBEFEE7C6
:1004B00026000200704700000146806AC36DC26DCD
:1004C00013F0500F07D0D20648BF00F039BB406D83
:1004D000426B0846104742F40071C16501680B6821
:1004E000CA681B070DD4910720D4C16D21F4807117
:1004F000C165C16DC9045EBFC16D41F00101C16537
:1005000014E012F4406F11D1C96889040ED4C16D92
:1005100021F48071C165C16DC90448BF00F00CBBF6
:10052000C16D41F00101C16500F006BB00F004BBE4
:10053000806AC16D41F04001C165016E41F0040166
:10054000016600F0FDBA0000806A00F0F7BA000012
:1005500070B5044600688168C90735D14FF6C0768A
:100560008168C7F6FF7606F17F02114209D0E06D7F
:1005700040F01000E065206E40F001002066012090
:1005800070BD8168314041F00101816000F004FFDD
:10059000054620680168C9071CBF002070BD00BF68
:1005A0008168C90704D18168314041F0010181604F
:1005B00000F0F2FE411B2068032902D30168C9073D
:1005C000D5D00168C907EBD0002070BD41F65400BA
:1005D0000223C2F20000D0E9101202F01F0203FA57
:1005E00002F24A60002180F82410C16A002908BF85
:1005F000704741F65400C2F200000847EFF3108044
:1006000072B600BFFEE7000090F85820012A02BF32
:10061000022108467047B0B582B0012240F2080CB2
:1006200080F858200022C5F2000C019200920CF1D3
:10063000F80E0368B3F1A04F08D040F20042C5F2B3
:10064000000293423AD10CF59F6200E07246926834
:100650009C682243520731D40CF53E747345224600
:1006600018BF0CF5DF62B3F1A04F08BF2246D1F8E6
:1006700000E0946824F46044BEF1000F2BD04D6874
:1006800043F480732C4390F8385044EA4534946026
:1006900040F20014C5F20004A34233D1DCF800306C
:1006A000DCF800412343DB0736D19368896840F6C4
:1006B0001F75AB4341EA0E01194320E0C16D41F0C3
:1006C0002001C1650121002280F8582002B0BDE858
:1006D000B0400846704743F4807140F200139460C4
:1006E000C5F20003994219D1DCF80010DCF80031A2
:1006F0001943C9071CD1916840F61F739943916053
:100700000021E0E7DCF80034DCF800451C43DCF8AD
:1007100000362343DB07C8D00021D4E7DCF80014FF
:10072000DCF800350B43DCF800161943C907E2D0AA
:100730000021C8E72DE9F04181B00022009290F835
:100740005820012A04D10221084601B0BDE8F081F9
:10075000012280F858200768BB685B0736D4D1E9CE
:1007600000351F2205F01F04C5F3012507EB8505A1
:10077000A2402E6BC3F38463A34026EA02021A430D
:100780002A63BA68BB68DB0843EA9202D20740F0EA
:1007900096800A68D1F8088007F114030725C2F390
:1007A0004066B8F1004F53F82660C2F3045405FACE
:1007B00004F526EA050C4FF0040606EAD25E0BD1DA
:1007C00043F80EC01A6842F000430EE0C16D41F0DC
:1007D0002001C1650121A8E108FA04F242EA0C02F5
:1007E00043F80E201A6822F000437B61D1E90435FA
:1007F000FC68042B67D13A6E4FF6FF743A6E0B68B3
:10080000C0F207049E46C3F3846C93FAA3F3B3FAD1
:1008100083F36FF3DF4E1D46BEF1000F08BF654640
:10082000C2F38462AA420CD13A6E22F000423A66C8
:100830000A6802EA040EC2F3846C92FAA2F2B2FAD7
:1008400082F37A6EBEF1000F1A4608BF62467D6ED3
:10085000C5F3846595420CD17A6E22F000427A6627
:100860000A6802EA040EC2F3846C92FAA2F2B2FAA7
:1008700082F3BA6EBEF1000F1A4608BF6246BD6E23
:10088000C5F3846595420CD1BA6E22F00042BA6677
:100890000A6802EA040EC2F3846C92FAA2F2B2FA77
:1008A00082F3FA6EBEF1000F08BF6346FA6EC2F320
:1008B00084629A4202BFFA6E22F00042FA66BA6877
:1008C000D20732D084E007F160064FF20002D1F87F
:1008D00000C056F823E0C0F2FF320EEA020E0622F4
:1008E00002EA940205FA02F20CF0F8452A4342EAC1
:1008F0000E0242F0004246F823200A698B6956F83E
:10090000225025F080752B4346F822300B690A7F70
:1009100056F82350012A25F0007508BF05F100752F
:1009200046F82350BA68D20752D10C680026CA682C
:10093000C4F27F062346B2426FF3DF4320D1D7F8DB
:10094000B020002B42EA0302C7F8B02094FAA4F2C8
:10095000B2FA82F52A4608BFA20EA40E013202F0B6
:100960001E02092A12D8002B14BF6A1C621C02F056
:100970001F0301229A4003EB430342EA035317E0AB
:10098000D7F8B0209A43C7F8B02021E0002B14BF5D
:100990006A1C621C002602F01F030122CFF62066AB
:1009A0009A4003EB430306EB03531A4342F00073F0
:1009B000C3F30452C3F3406307268D6807EB830338
:1009C00096405C6905FA02F224EA060632435A614F
:1009D0000B680021C8F208010B4266D040F2003ECD
:1009E0000022C5F2000ECCF22132AEF500710EF5F8
:1009F00080648F4204BF40F20034C5F200042146F7
:100A0000B7F1A04F04BF40F20031C5F200018D687C
:100A1000934205F0E07C04D01022C9F2C002934258
:100A200045D129025FD4B7F1A04F06D040F2006152
:100A3000C5F200018F4258D1A646DEF8081042F6F2
:100A40006352C0F23E5221F0E07141EA0C0141F4E0
:100A50000001CEF8081041F27871C2F20001096875
:100A60008909A1FB021291090C2201EB410102EB61
:100A7000810100910099002943D00099013900912A
:100A8000009900293FD00099013900910099E1B304
:100A90000099013900910099C9B300990139009179
:100AA0000021009A002AE8D13FE000213DE0002229
:100AB000CCF25272934208BF15F0807217D0002218
:100AC0000021CCF68432934208BF15F480022CD169
:100AD000B7F1A04F1ED040F20011C5F200018F42C5
:100AE00017D1002121E000211FE000211DE08A68CC
:100AF00022F0E07242EA0C0242F080728A60002129
:100B000013E0002111E000210FE000210DE00021A1
:100B10000BE0A646DEF8081021F0E07141EA0C0176
:100B200041F48001CEF808100021002280F85820FE
:100B3000084601B0BDE8F081704700007047000032
:100B400070470000B0B582B004460020002C019030
:100B500009D0E06D50B121688868800011D48868A0
:100B6000C00018D54BE0012002B0B0BD204600F017
:100B700023F9002084F858002066216888688000E6
:100B8000EDD54FF6C0728868C5F6FF7210408860D8
:100B90008868C00033D44FF6C0728868C5F6FF720B
:100BA00002F18052104042F6635240F08050C0F291
:100BB0003E52886041F27870C2F2000000688009FD
:100BC000A0FB02029009022202EB40000190019872
:100BD00028B914E0019801380190019878B1019882
:100BE00001380190019850B10198013801900198A5
:100BF00028B101980138019001980028EAD188684D
:100C0000C00009D4E06D40F01000E065206E40F0B7
:100C100001002066012000E000208A68C2F3800203
:100C2000E36D03F01003D218E26D05D042F010011D
:100C30000120E16502B0B0BD22F481720232E265AA
:100C40008A68D20727D140F2001340F2080C41F421
:100C50008072C5F20003C5F2000C9A426CD1DCF838
:100C60000030DCF800211A43D20714D10CF1F8024D
:100C70000CF53E7391421A4618BF0CF5DF62B1F1D4
:100C8000A04F08BF1A46D4F804C0936823F47C131D
:100C900043EA0C039360627FE36B43EA423CD4E98E
:100CA000023242EA0C021A4394F8243042EA034228
:100CB000012B07D10023D4F828C0CFF6FE7303EB35
:100CC0004C431A43E36A23B103F478731A43236B4A
:100CD0001A4344F20703D1F80CC0CFF6F07303EACD
:100CE0000C031A43CA600A69636B22F040621A431C
:100CF0000A618A688B68DB0843EA9202D20749D10D
:100D000094F81CC094F838E0CA6844F202039A438D
:100D10004FEA4E0343EA8C331A43CA6022690B69D7
:100D2000AAB143F480330B6143F6FF73D1F8C0C01E
:100D30002CEA03031A4312E0DCF80024DCF8003547
:100D40001A43DCF800361A43D2078FD0A3E723F406
:100D5000803243F6FF730A61D1F8C0209A43C1F88C
:100D6000C02094F840300A69012B10D140F2FD7385
:100D700022EA030CD4E91132D4E913E543EA0C0367
:100D80001A4342EA0E022A4342F0010201E022F035
:100D900001020A6163690A6B22F00F02012B02BF94
:100DA000236A013B1A430A63E16D012262F30101E8
:100DB000E16502B0B0BD000070B59CB004460020F3
:100DC00054211B90CDE91900CDE9170002A8FFF7C7
:100DD0000EFB2068B0F1A04F01D01CB070BD4FF0E9
:100DE000005013904FF40040029002A801F0B0FAB6
:100DF000002818BFFFF702FC41F24C000026C4F2A5
:100E00000200016841F400510160016801F40051E1
:100E100001910199016841F00101016017A9006881
:100E200000F0010001900198199603201890072006
:100E300017904FF0904000F0C5F941F65405082195
:100E400005204FF0200C4FF4806E4FF48072802309
:100E5000C2F20005C4F202012E62C5E90010284664
:100E6000C5E90266C5E90432C5E906EC00F0A0F860
:100E7000002818BFFFF7C2FB6565AC621CB070BDEF
:100E80002DE9F04140F2001704460E4600689046F6
:100E9000C5F2000707F50071B8420A4618BF07F50A
:100EA000C062B0F1A04F08BF0A469168826852073D
:100EB00003D494F85820012A02D10220BDE8F08121
:100EC00001F01F05012184F8581007F5A061884240
:100ED00007D0092D66D8012040F22121A840084200
:100EE00060D02046FFF734FB00281EBF002184F8A5
:100EF0005810BDE8F0812168E06D40F60172904322
:100F0000B94200F58070E0650CD040F20050C5F2A7
:100F1000000081420CD107F54070002D18BF8842B7
:100F20000AD105E04FF0A040002D18BF884203D140
:100F3000E06D20F48010E065E06D40F2315340F246
:100F4000495740F2B9450022C0F60003C0F6000739
:100F5000C0F60005C0044FF0000044BF206E20F032
:100F600006002066606DC0E90B5743631C230B60CD
:100F700084F8582043464A6842F010024A60CA6822
:100F800042F00102CA604031324600F0ABF82168FD
:100F90004FF6C073C7F6FF738A681A4004328A603E
:100FA000BDE8F081002084F858000120BDE8F08100
:100FB0000121002800F093802DE9F04F02224CF629
:100FC000CD4747F6F07600F1180C80F82520002276
:100FD000CCF6CC47C4F20202036802F5816802F540
:100FE000806243453CBF0022C4F2020202644FF615
:100FF000F832CBF6FD7238BF02F5806243451A44E1
:10100000A2FB07246FF0030202EA940AC0F844A08E
:101010001A68D0E90297D0E9045E22EA060B9CE840
:1010200050104BEA090242EA07024CF6CD4742EA69
:101030000502CCF6CC4742EA0E0242EA040242EA3A
:10104000060240F2000642EA0C02C4F202061A60EE
:1010500006F50862C2646FF0070252FA83F2A2FB3F
:101060000727C7F3041201FA02F506F502610565C8
:1010700038BF06F500610AEB0103B9F5804F40F671
:1010800084018364C4F2020104D1002242601A6028
:101090000D6016E04268D4B21C60531E00220D6041
:1010A000032B0ED8631E01F1BC0501EB830747F843
:1010B0007C2F03F01F02012393403A46C1F8C03051
:1010C00001E0002500230021C163C0E915250122AC
:1010D000C36580F8241080F82520BDE8F04F08464D
:1010E0007047000090F824C0BCF1010F44D04FF0CD
:1010F000010C80F824C090F825C0BCF1010F38D154
:1011000070B54FF0020C012680F825C04FF0000C9E
:10111000C0F83CC0D0F800C0DCF800E02EF0010EB2
:10112000CCF800E0D0E913E4CEF80440D0F854E065
:10113000BEF1000F1CBFD0E916456560D0E910452F
:1011400005F01F0506FA05F56560CCF804308368E4
:10115000102B0B4608BF1346CCF8083008BF0A46D0
:10116000CCF80C20026BDCF800103AB141F00E0113
:101170000CE0002180F824100220704721F00401C7
:10118000CCF80010DCF8001041F00A01CCF8001097
:10119000806C0168C90342BF016841F4807101603D
:1011A000BEF1000F1EBFDEF8000040F48070CEF8E4
:1011B0000000DCF8000040F00100CCF80000002046
:1011C00070BD00002DE9F04F82B00E68002E00F0D7
:1011D000DA8041F2004206274FF0000A00244FF067
:1011E0000008C4F60002904200F1384208BF05270B
:1011F0004FEAB223052B38BF4FEAB22700970127E9
:101200007B1E012202FA03F516EA050900F0AF8001
:10121000D1F804B00BF00306721E012A18D803227D
:1012200002FA04FC826822EA0C0ECA686FEA0C0C0F
:10123000A24042EA0E028260CBF3001202FA03FEE1
:101240004268AA4342EA0E024FEA480E42600BE0AF
:101250000322032EA64602FA04F26FEA020C03D11F
:10126000A646032622E000BFC2688D68022E02EA6D
:101270000C0205FA0EF542EA0502C26016D10AF028
:101280001C020F2505FA02FB6FF0030505EA530661
:101290000644356A25EA0B0B0D6905FA02F242EAAB
:1012A0000B023262D1F804B00BF0030606FA0EF21C
:1012B00006681BF4403F06EA0C0642EA060202609A
:1012C00055D041F2600240F2004E0AF00C05C4F223
:1012D0000202C4F2010E1646126842F001023260A8
:1012E000326802F00102019223F003024FF6084334
:1012F000CFF6FF737244019E9B4652F803C00F2342
:1013000003FA05F6009B2CEA060603FA05F52E43C0
:1013100042F80B60DEF808204D6842EA0906EB024D
:1013200058BF22EA090640F20C42CEF80860C4F227
:101330000102AE029446126842EA090358BF22EA4B
:101340000903CCF80030AE03DEF8042042EA0903BA
:1013500058BF22EA0903CEF80430EE03DEF800207D
:1013600042EA090358BF22EA0903CEF800300E68AA
:101370000AF1040A023408F1010836FA07F207F10B
:1013800001077FF43DAF02B0BDE8F08F1823002ABB
:1013900008BF2823C150704741F64020C2F2000028
:1013A0000068704790F8DD30022B02BF0223184618
:1013B000704790F8DCC00223BCF1010F00F085807B
:1013C00080F8DD3001237F2980F8DC3000F32C80A9
:1013D00001393F2900F27B80DFE801F02034793ABF
:1013E00079797940797979797979794679797979D9
:1013F0007979797979797979797979537979797983
:10140000797979797979797979797979797979794C
:101410007979797979797979797979590168D1F80E
:10142000003462F3040324E0802936D0B1F5807FD4
:1014300039D0B1F5007F4AD10168D1F8043462F3A4
:101440001C6335E00168D1F8003462F38A1310E0C0
:101450000168D1F8003462F310330AE00168D1F872
:10146000003462F3964304E00168D1F8003462F37B
:101470001C63C1F8003490F8DD100123072924D043
:101480001DE00168D1F8043462F3040310E0016840
:10149000D1F8043462F38A130AE00168D1F8043405
:1014A00062F3103304E00168D1F8043462F3964328
:1014B000C1F8043490F8DD100123072905D000217C
:1014C00080F8DC1080F8DD300023184670470021DA
:1014D00080F8DC10072180F8DD1090F8DD10012382
:1014E0000729F2D0EBE70000B0B590F8DD30022B11
:1014F00002BF02231846B0BD90F8DC400223012C45
:1015000000F00E8180F8DD3001237F2980F8DC3087
:101510000368D3F880C3D3F8FCE300F34D804C1E7E
:101520003F2C00F2E480DFE814F040006600E200A7
:101530006F00E200E200E2007800E200E200E20078
:10154000E200E200E200E2008100E200E200E200EC
:10155000E200E200E200E200E200E200E200E2007B
:10156000E200E200E200E2009600E200E200E200B7
:10157000E200E200E200E200E200E200E200E2005B
:10158000E200E200E200E200E200E200E200E2004B
:10159000E200E200E200E200E200E200E200E2003B
:1015A000E200E200E200E200A90054885268C3F8B9
:1015B000BC2364F3124CA0E0802972D0B1F5807F87
:1015C00000F08280B1F5007F40F091801468D3F87C
:1015D000F85325F0F845C3F8F8535268D3F8F85398
:1015E00002F01F0245EA8262C3F8F823C4F30B42FB
:1015F00062F3165E81E0D2E90042C3F8C023C4F36F
:101600000C4262F3D54C78E0D2E90042C3F8C4231F
:10161000C4F3094262F3985C6FE0D2E90042C3F878
:10162000C823C4F3064262F35B6C66E05488D3F8C7
:10163000F85325F01F05C3F8F8535268D3F8F85350
:1016400002F01F022A43C3F8F8234FEADE0262F3D6
:10165000DF04A64651E05488D3F8F85325F4787592
:1016600064F3061EC3F8F8535268D3F8F85302F037
:101670001F0245EA4212C3F8F8233EE05488D3F82B
:10168000F85325F4F84564F30A2EC3F8F85352686A
:10169000D3F8F85302F01F0245EA8222C3F8F82378
:1016A0002BE05488D3F8F85325F4F81564F30E3E74
:1016B000C3F8F8535268D3F8F85302F01F0245EA12
:1016C0000242C3F8F82318E05488D3F8F85325F001
:1016D000787564F3124EC3F8F8535268D3F8F85390
:1016E00002F01F0245EA4252C3F8F82305E0002247
:1016F00080F8DC20072280F8DD2090F8DD20072A22
:1017000002BF01231846B0BD0F298CBFC3F8FCE30C
:10171000C3F880C30023012180F8DC3080F8DD109D
:101720001846B0BD90F8DC300222012B21D080F8A1
:10173000DD2001224B1C80F8DC200268D2F8CCC3EB
:1017400009D04CF00203C2F8CC33D2F8CC3323F0EA
:101750000C03194301E02CF00201C2F8CC13D2F8BB
:10176000CC1341F00101C2F8CC130121002280F812
:10177000DD1010467047000090F8DD30022B02BFEC
:1017800002231846704790F8DCC00223BCF1010F19
:101790003ED070B580F8DD300023D2F814C0C0F21E
:1017A000FF1303EA0C4CD2E900E3D2E902460EF43F
:1017B000E0556FF35F2306F400462B4404F40075F4
:1017C0002B44156905F480452B44334496696344E2
:1017D00006F000763344166AD26906F0804602F0BD
:1017E0000042334342F200061A430368C3F6004640
:1017F00003EBC111D1F8B83033401A430023C1F8CC
:10180000B820012180F8DC3080F8DD10BDE87040A0
:1018100018467047002804BF0120704710B582B0F9
:1018200004460020C4E93800C4E93A00C4E93C0099
:10183000C4F8F800022084F8DD00207AC0071FD029
:1018400046F600012068C4F2010188420CD141F241
:101850006001C4F202010A6842F080620A6009680D
:1018600001F08061019101990168D4E9042321F418
:10187000704102F44042114403F4405211440160AB
:10188000204600F03DF8207A800706D520680168E0
:10189000E268120A62F3092101600020012184F844
:1018A000DC0084F8DD10C4F8D800C4E90600C4E9FF
:1018B0000800A062C4E90C00C4E90E00C4E91000ED
:1018C000C4E91300C4E91500C4E91700C4E91A000B
:1018D000C4E91C00C4E91E00C4E92100C4E92300D6
:1018E000C4E92500C4E92800C4E92A00C4E92C00A1
:1018F000C4E92F00C4E93100C4E9330002B010BDCF
:1019000046F600010068C4F20101884218BF704722
:1019100080B582B041F260000022C4F2020001688A
:1019200041F0806101600021006800F0806001905A
:101930000198432000F02EFC432002B0BDE8804017
:1019400000F018BC70B50D460446FFF725FD0646AD
:101950002068D0F88813C9031ED425B3691C11D19F
:10196000D0F88813C90317D4D0F88813C9035CBF13
:10197000D0F888135FEAC1310ED4D0F88813C903B8
:10198000EED509E0FFF708FD801BA8420DD82068BE
:10199000D0F88803C003F5D50020012184F8DC00CD
:1019A00084F8DD1070BDFFF7F7FC072084F8DD0038
:1019B000032070BD90F8DD30022B02BF02231846D1
:1019C000704790F8DCC00223BCF1010F19D080B53C
:1019D0004FF0010C80F8DD3080F8DCC0036803EBC9
:1019E000C11E5EF8EC3FD90642BF910961F38F1327
:1019F000CEF80030002380F8DC3080F8DDC0BDE890
:101A0000804018467047000090F8DDC00223BCF10A
:101A1000020F32D080B580F8DD300629036810D17E
:101A2000196821F01F0CD2E9021E21F0180141EAC9
:101A30000C0141EA0E011960116859615168996100
:101A400015E003EBC111D1F8803023F01F0CD2E96F
:101A5000023E23F0180343EA0C0343EA0E03C1F8E5
:101A600080301368C1F894305268C1F89820012181
:101A7000002380F8DD10BDE8804018467047000064
:101A800080B590F8DDC0BCF1020F02BF4FF0020C30
:101A9000604680BD90F8DCE04FF0020CBEF1010F13
:101AA00000F08B8080F8DDC04FF0010C062980F833
:101AB000DCC00CD1511E07291BD8DFE801F004213E
:101AC0001A251A1A1A2901681A68CA6166E0A2F171
:101AD000010CBCF1070F0CD8DFE80CF0041E0B372B
:101AE0000B0B0B3E026802EBC1111A68C1F89C2077
:101AF00054E0002180F8DC10072180F8DD104DE073
:101B000001681A684A6249E001681A688A6245E019
:101B100001681A68CA6241E0026802EBC11C1968D8
:101B2000CCF8A4106146D3F804E051F8802F22F4D9
:101B30004052BEF1000F0A6030D00A6842EA0E023D
:101B4000BEF5405F0A601FD125E0026802EBC111BB
:101B50001A68C1F8A82021E0026802EBC11C1968CC
:101B6000CCF8AC106146D3F804E051F8802F22F491
:101B70004042BEF1000F0A6010D00A6842EA8E02AD
:101B8000BEF5405F0A6006D0BEF5005F04BF9968ED
:101B9000CCF89C1002E09968CCF8A81090F8DD1001
:101BA000072902BF4FF0010C604680BD4FF0000CCA
:101BB000012180F8DCC080F8DD10604680BD0000A7
:101BC00090F8DC300222012B0BD080F8DD20026877
:101BD0001368194311600022012180F8DC2080F88D
:101BE000DD1010467047000090F8DC300222012B17
:101BF0002BD080F8DD20012280F8DC20D0E9002CF9
:101C0000D2F8903343EA0C03C2F89033CB031ED4CE
:101C10008B0324D44B032CD40B0334D4CB023CD4FD
:101C20008B0244D44B0207D5D0F8ACC0D2F80C33A9
:101C300043EA0C03C2F80C33136819431160002205
:101C4000012180F8DC2080F8DD1010467047D0F8C4
:101C5000C8C0D36843EA0C03D3608B03DAD5D0F84D
:101C600020C0D2F88C3043EA0C03C2F88C304B030E
:101C7000D2D5D0F83CC0D2F80C3143EA0C03C2F8FC
:101C80000C310B03CAD5D0F858C0D2F88C3143EAD6
:101C90000C03C2F88C31CB02C2D5D0F874C0D2F894
:101CA0000C3243EA0C03C2F80C328B02BAD5D0F8DE
:101CB00090C0D2F88C3243EA0C03C2F88C324B024B
:101CC000B2D4B9E7B0B5044690F8DD00022804BFED
:101CD0000220B0BD94F8DCC00220BCF1010F08BFA7
:101CE000B0BD012584F8DD0084F8DC50206801F0E7
:101CF000C3FA002084F8DC0084F8DD50B0BD000099
:101D000090F8DC300222012B0DD080F8DD20026833
:101D1000D2F894331943C2F894130022012180F8B9
:101D2000DC2080F8DD101046704700002DE9F04FF0
:101D300084B090F8DD30022B04D10223184604B0A1
:101D4000BDE8F08F90F8DC700223012F00F02081B5
:101D500080F8DD300123062980F8DC30D0F800B0AF
:101D60003FD1DBF80070DBF8A0C3556927F0E0072E
:101D700025F0C004202D47EA040709D09569042DF9
:101D800000F00A81032D00F00A81022D40F00A8143
:101D900047F020074FF2FF3ED2E90746D2E9093863
:101DA000C3F2FF1E0EF5006507EA0E0726F06E4629
:101DB00023F0684325402F433743566B3B4328F0BD
:101DC00060473B43D76A43EA870323F0005333431A
:101DD000166BCBF800302CF480333343CBF8A033B0
:101DE000A7E00BEBC11CE6465EF8803F23F0704392
:101DF000CEF800306346DEF8004053F8E88F0393D6
:101E0000634624F0200453F8E45F00950293DBF866
:101E1000A03356693443202E019309D09669042ECD
:101E200000F0C380032E00F0C480022E40F0C58075
:101E300024F4D07420344FF6FF76C0F2FD1606F578
:101E4000FA3706F5FE333C40D2E90775D2E909A915
:101E50003B40D76A234305EA0604234306F1C064E6
:101E600004EA0A04234306F16064566B04EA090499
:101E700023434FF6BF74B6F1005F43EA0703CFF682
:101E8000006403EA040508BF43F4003504F5003399
:101E90004FF6FF74D2F83890966DCFF602642B405F
:101EA00009EA040504F580243440966C2C43156D32
:101EB0002C4344EA030A009C536C24F4807443EAE4
:101EC00004054FF6C073D46BC7F6FF7303EA08032B
:101ED00004F03F042344146C43EA040846F480539E
:101EE000B3F5F05F02D1B9F1400F03D125F4F053FF
:101EF00043EA0605D36C25F48045566D019C0529FF
:101F000045EA03050AD82EA353F8213004EA030951
:101F1000146B4B1C04FA03F343EA0904CEF800A047
:101F2000039BC3F80080029B1D60CCF8D460CBF803
:101F3000A043C1EBC1031668062900EB83031E62B0
:101F400056685E6296689E62D668DE6216691E6397
:101F50000AD844F26413DBF88463C0F6000353F834
:101F600021303343CBF8843367B906290AD00BEB11
:101F7000C111D1F88030D26D23F4007343EA4222BC
:101F8000C1F880200023012180F8DC3080F8DD10CA
:101F9000184604B0BDE8F08F47F08007FAE647F036
:101FA0004007F7E627F0E007F4E6022666F3C814D8
:101FB00041E7012666F3C8143DE724F4D0743AE7FC
:101FC000FFFFFDFFFFFFFBFFFFFFF7FFFFFFEFFF3F
:101FD000FFFFDFFFFFFFBFFF90F8DD30022B02BFE6
:101FE00002231846704790F8DCC00223BCF1010FB1
:101FF00044D02DE9F04180F8DD3001234FF6EF7435
:1020000080F8DC30CFF6EC74D0F800C00CEBC11EC9
:102010005EF8EC3F92E86001D7682340013404EA9F
:102020000514234326F44034234327F40034234388
:10203000946943EA0803012C09D1D2E9044223F050
:10204000060324F0020423431A4342F00103CEF8AE
:1020500000300629BDE8F0410AD844F26412C0F607
:10206000000252F82110DCF884231143CCF88413C9
:102070000023012180F8DC3080F8DD10184670471D
:1020800080B5032000F0B4F8072000F009F800281C
:102090001CBF012080BD00F029F8002080BD000099
:1020A00070B540F200060446C2F200067068D0B176
:1020B0004FF47A71B1FBF0F041F27871C2F2000195
:1020C0000968B1FBF0F000F003FF01250F2C08D8E0
:1020D00038B94FF0FF3021460022002500F05AF8B1
:1020E0003460284670BD0125284670BD80B582B099
:1020F00041F25800C4F20200816841F001018160A0
:10210000816801F0010101910199016841F080515C
:102110000160006800F0805000900098042000F0FA
:1021200067F86FF00B000221002200F033F86FF027
:102130000A000221002200F02DF86FF009000221B0
:10214000002200F027F86FF004000221002200F0C6
:1021500021F86FF003000221002200F01BF86FF05D
:1021600001000221002200F015F802B0BDE8804015
:1021700000F0E4B80028B8BF704700F01F0101224A
:10218000400902FA01F14EF20012CEF2000242F8CA
:102190002010704710B500F00F034EF60C5E00F1F2
:1021A000604CB0F1FF3FA3F10403CEF2000E734484
:1021B00003F10C04C8BF0CF56444DEF800004FF0D6
:1021C000FF3CC0F30220C31E80F0070038BF00238D
:1021D000042828BF04200CFA00F021EA00000CFAC1
:1021E00003F1984022EA010108430001207010BD6C
:1021F0004EF60C514FF6FF03CEF200010A681A406A
:1022000060F30A2242F0806040F0FD700860704781
:10221000002847D047F21401B0F5007FC4F2000156
:1022200051F8142C40F08280C86E40F48070C8666B
:1022300002F4C060B0F5806F76D151F8140C012221
:1022400062F34A20322241F8140C41F27870C2F253
:102250000000006850434DF68362C4F21B32A0FBBD
:102260000202900C0A68431C18BF12F4806212D05C
:102270000A68002818BF12F480620CD00A6801288E
:1022800018BF12F4806206D00A68022803D004380E
:1022900012F48062E6D10868400544BF032070470D
:1022A0000020704747F21400C4F2000050F8141CDC
:1022B000C26E01F4C06122F48072B1F5806FC26613
:1022C00032D150F8141C012262F34A21322240F824
:1022D000141C41F27871C2F20001096851434DF6B5
:1022E0008362C4F21B32A1FB0212910C02684B1CE8
:1022F00018BF12F4806212D00268002918BF12F4CD
:1023000080620CD00268012918BF12F4806206D0E6
:102310000268022903D0043912F48062E6D1006811
:10232000400544BF0320704700207047022060F33F
:102330004A2241F8142C00207047000047F20800A0
:10234000C4F20000016841F4804101607047000060
:102350002DE9F04182B00446807841F28806C4F24B
:102360000206000704D400202168CA0760D165E096
:1023700056F8300CC0000ED456F8300C4FF001085F
:1023800040F0805046F8300C56F8300C00F0805089
:102390000190019801E04FF0000847F20007C4F2F5
:1023A0000007386840F480703860FEF7F5FF054696
:1023B0003868C00506D4FEF7EFFF401B0228F7D9A6
:1023C000032029E0B06810F440701ED0216D8842CF
:1023D0000BD0B068B16841F4803120F44070B16036
:1023E000B16821F48031B160B060C0070DD0FEF754
:1023F000D3FF054641F28837B068800705D4FEF761
:10240000CBFF401BB842F7D9DAE7B068216D20F462
:1024100040700843B0600020B8F1000F1EBF56F8AE
:10242000301C21F0805146F8301C2168CA0705D0C5
:102430003268636822F003021A4332608A072AD4A2
:102440004A0730D40A0736D4CA063CD48A0642D496
:102450004A0648D40A064ED4CA0554D48A035AD42C
:102460008A0560D44A0566D40A0577D4CA0400F107
:1024700088808A0400F198804A0400F1A8800A0448
:1024800000F1B880CA0300F1C880490300F1D88088
:1024900002B0BDE8F0813268A36822F00C021A4352
:1024A00032604A07CED53268E36822F030021A4320
:1024B00032600A07C8D53268236922F0C0021A4385
:1024C0003260CA06C2D53268636922F440721A4388
:1024D00032608A06BCD53268A36922F440621A438E
:1024E00032604A06B6D53268E36922F440521A4394
:1024F00032600A06B0D53268236A22F440421A4399
:102500003260CA05AAD53268636A22F440321A439F
:1025100032608A03A4D57269A36A22F003021A43C7
:1025200072618A059ED53268E36A22F440221A431A
:1025300032604A0598D53268236B22F44012B3F515
:10254000801F42EA0302326002BF56F87C2C42F43C
:10255000801246F87C2C0A057FF588AF3268636BE1
:1025600022F44002B3F5800F42EA0302326002BF58
:1025700056F87C2C42F4801246F87C2CCA047FF575
:1025800078AF3268A36B22F04072B3F1807F42EAE9
:102590000302326002BF56F87C2C42F4801246F8E7
:1025A0007C2C8A047FF568AF3268E36B22F04062CE
:1025B000B3F1006F42EA0302326002BF56F87C2C8E
:1025C00042F4801246F87C2C4A047FF558AF3268FA
:1025D000236C22F04062B3F1006F42EA03023260E2
:1025E00002BF56F87C2C42F4801246F87C2C0A0478
:1025F0007FF548AF3268636C22F04052B3F1805FE0
:1026000042EA0302326002BF56F87C2C42F4803268
:1026100046F87C2CCA037FF538AF3268A36C22F0F1
:102620004042B3F1804F42EA0302326002BF56F8E3
:102630007C2C42F4803246F87C2C49037FF528AF8D
:102640007169E26C21F44011B2F5001F41EA020108
:10265000716102BF56F87C1C41F4801146F87C1C65
:1026600002B0BDE8F08100002DE9F047002800F03D
:10267000AC8042F2000A04460D46C4F2020ADAF8BF
:10268000000000F00F0088420DD2DAF8000020F0C0
:102690000F002843CAF80000DAF8000000F00F002D
:1026A000A84240F09280216841F20808C4F2020872
:1026B000C80743D14FF00009880700F1F180B9F154
:1026C000800F04D1D8F8000020F0F000FFE0DAF825
:1026D000000000F00F00A84240F20281DAF800008A
:1026E00020F00F002843CAF80000FEF755FE06460A
:1026F00041F28837DAF8000000F00F00A8420DD050
:10270000FEF74AFE801BB84284BF0320BDE8F08775
:10271000DAF8000000F00F00A842F1D12168480764
:1027200040F1E180D8F80000E26820F4E060104356
:10273000C8F80000080700F1D880DFE060680328CF
:1027400037D158F8082C92013FD5D8F80420D8F892
:102750000430D8F804C0D8F804600227C6F34166F4
:1027600002F0030207EB460742F20046032AC0F2DA
:10277000F40604BF43F20066C0F26E16C3F3031200
:10278000CCF306230132B6FBF2F25A434BF200437C
:10279000B2FBF7F2C0F2C4439A425ED9D8F80020E7
:1027A00012F0F00F4FD0890757D5A168002954D1F6
:1027B00049E058F8081C022805D189035CBF0120B4
:1027C000BDE8F08704E0490502D40120BDE8F087A8
:1027D000D8F8001001F00C0104293ED0D8F8001000
:1027E00001F00C01082938D0D8F8001001F00C01D4
:1027F0000C2932D1D8F80410D8F80420D8F80430C5
:10280000D8F804700226C7F3416701F0030106EB14
:10281000470742F200460329C0F2F40604BF43F220
:102820000066C0F26E16C2F30311C3F30622013133
:10283000B6FBF1F151434BF20042B1FBF7F1C0F2AC
:10284000C442914209D9D8F8001008224FF08009FB
:1028500062F30711C8F8001001E04FF00009D8F842
:10286000001021F003010843C8F80000FEF794FDB2
:10287000064641F2883707E0FEF78EFD801BB8421E
:1028800084BF0320BDE8F087D8F80000616800F03D
:102890000C00B0EB810FEFD1216888077FF50FAFF7
:1028A000480742BFD8F8000040F4E060C8F80000D4
:1028B000080706D5D8F80000072262F30D20C8F8F3
:1028C0000000D8F80000A26820F0F0001043C8F81B
:1028D0000000DAF8000000F00F00A8423FF6FEAE5C
:1028E00048073FF51FAF080708D5D8F80000216951
:1028F00020F4605040EAC100C8F80000D8F8000099
:1029000042F20041C0F2F40100F00C000428084635
:102910002DD0D8F8000000F00C0243F20060C0F2A5
:102920006E10082A23D0D8F8002002F00C020C2ADE
:102930001CD1D8F8042002F00302032A08BF014684
:10294000D8F804000222C0F303100130B1FBF0F00C
:10295000D8F80410C1F306214843D8F80410C1F395
:10296000416102EB4101B0FBF1F000E00020D8F83A
:10297000001044F28012C0F60002C1F30311515C52
:1029800001F01F01C84041F27871C2F200010860F5
:1029900040F20000C2F200000068BDE8F047FFF717
:1029A0007FBB000041F2787041F2080144F29012BE
:1029B000C2F20000C4F20201C0F600020068096819
:1029C000C1F30221515C01F01F01C84070470000B3
:1029D00041F2787041F2080144F29012C2F2000014
:1029E000C4F20201C0F6000200680968C1F3C22106
:1029F000515C01F01F01C8407047000041F20C011A
:102A000042F20042C4F20201C0F2F40251F8040C96
:102A100000F00C000428104608BF704751F8040C61
:102A200000F00C0343F20060C0F26E10082B1FD0C0
:102A300051F8043C03F00C030C2B1CBF0020704722
:102A40000B6803F00303032B08BF02460868C0F3BA
:102A500003100130B2FBF0F00A68C2F306220968E5
:102A600050430222C1F3416102EB4101B0FBF1F09E
:102A7000704700002DE9F04182B0002800F0BA81D3
:102A80000446007841F20006C4F20206C0071ED1D7
:102A90002078800747D42078000740F1B78061692B
:102AA000D6F89400002900F0848040F00100C6F8B8
:102AB0009400FEF771FC0546D6F89400800700F1FB
:102AC000A580FEF769FC401B0228F5D9EBE0B16850
:102AD000F06801F00C01082949D0032281F00C01B3
:102AE00022EA00000844B0FA80F040093FD167684C
:102AF000B7F5803F07D03068B7F5A02F40F0D780FA
:102B000040F480203060306840F480303060FEF760
:102B100043FC054630688003BAD4FEF73DFC401BF9
:102B20006428F7D9BFE0B068F16800F00C00042811
:102B300026D001F0030180F00C0081F0020108446E
:102B4000B0FA80F040091BD1E1683068002941D01B
:102B500040F480703060FEF71FFC05463068400589
:102B600049D4FEF719FC401B0228F7D99BE03068D6
:102B700080037FF58DAF606800287FF489AF39E16D
:102B80003068400503D5E068002800F033817068A4
:102B9000216920F0FE4040EA0160706040F20000D0
:102BA000C2F200000068FFF77BFA002840F02281A3
:102BB00071E720F00100C6F89400FEF7EDFB054632
:102BC000D6F89400800721D5FEF7E6FB401B0228CB
:102BD000F6D968E020F480703060FEF7DDFB054632
:102BE000306840057FF557AFFEF7D6FB411B032049
:102BF0000229F5D969E17068216920F0FE4040EAB8
:102C000001607060207800073FF549AF20784007E9
:102C100040F18880B06DC0000BD4B06D4FF001085A
:102C200040F08050B065B06D00F080500190019888
:102C300001E04FF0000847F20007C4F200073868CF
:102C4000C00510D4386840F480703860FEF7A4FBEB
:102C5000054600BF3868C00505D4FEF79DFB401B44
:102C60000228F7D91FE0A768012F07D0D6F89000F7
:102C7000052F34D140F00400C6F89000D6F890003B
:102C800040F00100C6F89000FEF786FB054641F2D1
:102C9000883700BFD6F8900080073CD4FEF77CFB55
:102CA000401BB842F6D9032002B0BDE8F08120F401
:102CB00080303060306820F480203060FEF76CFB9C
:102CC0000546002F7FF426AF306880037FF5E0AE25
:102CD000FEF762FB411B03206429F5D9F5E020F0E3
:102CE0000100C6F89000D6F8900020F00400C6F865
:102CF0009000FEF751FB0546002FC8D141F28837FE
:102D0000D6F89000800706D5FEF746FB411B03204E
:102D1000B942F5D9D9E0B8F1000F1EBFB06D20F06F
:102D20008050B0652078800627D5A169D6F8980034
:102D300089B140F00100C6F89800FEF72DFB05466A
:102D4000D6F89800800718D4FEF726FB411B032015
:102D50000229F5D9B9E020F00100C6F89800FEF785
:102D60001BFB0546D6F89800800706D5FEF714FB36
:102D7000411B03200229F5D9A7E0E069002800F0F3
:102D8000A380B16801F00C010C2937D1012831D0A2
:102D9000F068216A00F003028A422BD1616A6FF069
:102DA0000F0202EB011100F0F0028A4222D1A16A67
:102DB00000F4FE42B2EB012F1CD1E16A00F0784230
:102DC000B2EBC16F16D10022216BCFF6E07202EA9E
:102DD000015100F4C002A1F500118A420AD1616BD1
:102DE0004FF07E4200F0C06002EA016101F17E41D5
:102DF000884269D0012002B0BDE8F0813168022824
:102E000021F0807131600DD1FEF7C6FA054600BF92
:102E1000306880011ED5FEF7BFFA411B032002294E
:102E2000F6D952E0F0684FF6FF71CFF6EE6120F070
:102E30000300F060F0680840F060FEF7ADFA044669
:102E40003068800140D5FEF7A7FA011B0320022954
:102E5000F6D93AE004F12007F0686FF00F058ECF45
:102E600005EB021248F20C05C0F29F1528400843FA
:102E7000216B10430022CFF6E07240EA032002EA01
:102E800001514FF07E42A1F500110843616B40EA09
:102E9000C76002EA016101F17E410843F0603068D9
:102EA00040F080703060F06840F08070F060FEF7B5
:102EB00073FA04463068800106D4FEF76DFA011BF0
:102EC00003200229F6D900E0002002B0BDE8F0811D
:102ED000411E0020B0EB116F1CBF012070474EF265
:102EE0001002F023CEF2000251604EF62351CEF2D2
:102EF00000010B70072190601160704790F88010FE
:102F0000012902BF0221084670472421C0F884101D
:102F100002681368116821F0010123F00053116069
:102F2000002141661360202280F88010C0F88420C0
:102F30000846704790F88020012A02BF0221084607
:102F40007047B0B524224FF0010EC0F8842080F8FD
:102F500080E00268D2F800C0136823F00103136018
:102F6000936823F0606319439160416EC9B1916821
:102F700044F2B81E44F2B015C0F6000EC0F60005CB
:102F8000C1F342611EF80130695CC900B1FBF3F185
:102F900093685B0F1EF80340EB5CDB00B3FBF4FEB1
:102FA00000E00121A0F86810A0F86AE0C2F800C0B3
:102FB0000021202280F88010C0F88420BDE8B040B5
:102FC0000846704790F88020012A02BF0221084677
:102FD0007047B0B524224FF0010EC0F8842080F86D
:102FE00080E00268D2F800C0136823F00103136088
:102FF000936823F0604319439160416EC9B19168B1
:1030000044F2B81E44F2B015C0F6000EC0F600053A
:10301000C1F342611EF80130695CC900B1FBF3F1F4
:1030200093685B0F1EF80340EB5CDB00B3FBF4FE20
:1030300000E00121A0F86810A0F86AE0C2F800C022
:103040000021202280F88010C0F88420BDE8B04024
:1030500008467047B0B582B0B0B10446D0F88400DD
:1030600028B9002084F88000204600F055F824207C
:10307000C4F884002068016821F001010160204645
:1030800000F080FD012802D1012002B0B0BDA06A8D
:1030900010B1204600F0FEFC2068416821F4904108
:1030A0004160816821F02A018160016841F00101DD
:1030B00001600020C4F88C00FEF76EF90546206818
:1030C000016809070BD56FF07E404FF40011002214
:1030D0002B460090204600F0B9FE70B920680068C9
:1030E00040070DD56FF07E404FF4800100222B4643
:1030F0000090204600F0AAFE10B1032002B0B0BD3F
:103100002020C4F88400C4F88800002084F88000DF
:10311000E06602B0B0BD0000B0B59CB0044600252A
:1031200002A854211B95CDE91955CDE91755FDF796
:103130005EF943F600012068C4F20101884201D023
:103140001CB0B0BD01200395029002A8FFF700F962
:10315000002818BFFDF752FA41F24C00C4F20200F9
:10316000416941F480414161416901F4804101912B
:103170000199016841F00401016017A9006800F09D
:1031800004000190019807201B900020CDE9190050
:10319000022018903020179040F60000C4F600007E
:1031A000FEF710F81CB0B0BD80B541F2E07C40F6EF
:1031B000A87041F6B402C2F2000CC2F20000C2F2E2
:1031C0000002BCF8001030F81100431E18BF40F692
:1031D000A1231268012840F20800C2F20000C2F8E0
:1031E0009C304FF0000302F58E7E08BF40F6A1230D
:1031F000C2F8A83030F81130412B04D358095228B6
:1032000003D8002008E0402B03D1002040F6A12382
:1032100002E040F6A1200023CEF8000040F2D87072
:10322000C2F8283102F5CE7EC2F2000030F811302B
:10323000412B06D35809522805D80020CEF80000AB
:103240000CE0402B05D1002040F6A123CEF8000071
:1032500004E040F6A1200023CEF800004020C2F890
:10326000A831906040F2E7300022814238BF4A1C0A
:10327000ACF8002080BD00002DE9F04100EBC11446
:1032800000217F2AA04658F8E4EF58F82CCC00F330
:103290002E80013A3F2A00F24280DFE802F0203916
:1032A0004020404040394040404040404020404065
:1032B0004040404040404040404040404039404015
:1032C00040404040404040404040404040404040FE
:1032D00040404040404040404040404040205968CD
:1032E000C4F8BC109968C4F8C010002117E0B2F50A
:1032F000007F07DB0CD0B2F5006F09D0B2F5806F0C
:10330000EDD00CE0802A03D0B2F5807FE7D006E054
:103310005968C4F8C4109968C4F8C8101021FE2276
:103320001D6803F10C071CF0022F02FA01F2D1CF45
:103330002EEA020205FA01F542EA050200FA01F05E
:1033400040EA020004FA01F240EA020006FA01F241
:1033500040EA020007FA01F242EA000201BF082C2B
:10336000D86988400243C8F80020BDE8F081000019
:1033700010B58CB041F2E87000244FF0010C4FF40E
:1033800080624FF4D4634FF0A041C2F200000B946E
:10339000CDE9094480F84040C46380F838C0C0E9F2
:1033A0000B32032280F824404FF44033026208229B
:1033B0008483C0E90013C0E90224C0E9044C82619F
:1033C000CDE90744CDE90544CDE90344CDE9014405
:1033D000FDF7B8FB002818BFFDF710F941F2E870BF
:1033E00009A90994C2F20000FDF70EF9002818BFE0
:1033F000FDF704F900200421069005917F21CDE915
:103400000301062001A902900220C0F23040019081
:1034100041F2E870C2F20000FDF78CF9002818BFF5
:10342000FDF7ECF80C2001A902900420C0F6600022
:10343000019041F2E870C2F20000FDF77BF900282C
:1034400018BFFDF7DBF8122001A902900820C0F692
:103450009040019041F2E870C2F20000FDF76AF975
:10346000002818BFFDF7CAF80CB010BD80B582B0B7
:1034700041F248000122C4F20200016841F0040157
:103480000160016801F0040101910199016841F0B6
:10349000010101600121006800F001000090009826
:1034A0000B20FEF777FE0B2002B0BDE88040FEF750
:1034B00061BE0000F0B587B041F24C00002640F636
:1034C0000004012201270696C4F20200C4F600049B
:1034D000016841F020010160016801F020010191C3
:1034E0000199016841F004010160016801F00401E3
:1034F00001910199016841F001010160016801F049
:10350000010101910199016841F002010160062168
:10351000006800F00200019001982046FDF736FF98
:10352000204608210022FDF731FF02AD022005965A
:10353000CDE90376029020462946FDF743FE03209D
:10354000294605900C20CDE9037602902046FDF730
:1035500039FE07B0F0BD00002DE9F041C0B00024F5
:103560001CA86021CDE93844CDE93644CDE9344486
:10357000FCF73DFF09A82421CDE91A44CDE9184400
:10358000CDE91644CDE91444CDE91244FCF72FFFF0
:1035900041F6B40046F60005C2F20000C4F201058F
:1035A000C0E900548460CDE90744CDE90544CDE984
:1035B0000344CDE90144FEF72DF9002818BFFDF7BB
:1035C0001DF841F6B4000C21C2F20000FEF7AAF883
:1035D000002818BFFDF712F841F6B4000A21C2F224
:1035E0000000FEF7AFF9002818BFFDF707F801202B
:1035F00038AA012139900020389041F6B400C2F277
:103600000000FDF771FF002818BFFCF7F7FF41F637
:10361000B400012100220024C2F20000FDF7C2FE26
:10362000002818BFFCF7EAFF082034AA06213790CB
:103630004FF4AA50CDE93544349041F6B400C2F2BB
:103640000000FEF7E1F9002818BFFCF7D7FF0120C2
:1036500040211CAA209000201F90CDE91D001C9144
:103660004FF000512590CDE92300CDE921003390A2
:103670002991CDE927004FF000600621269041F600
:10368000B400C2F20000FEF751FB002818BFFCF79F
:10369000B5FF4FF4AA5019AB06210122199041F64B
:1036A000B400C2F20000FEF7EBF9002818BFFCF7E7
:1036B000A5FF4FF42A6034AA00210024349041F67B
:1036C000B400C2F20000FEF79FF9002818BFFCF713
:1036D00095FF01201894CDE9144412AA00211290FC
:1036E00041F6B400C2F20000FEF776FC002818BFD5
:1036F000FCF784FF41F6B400002100220024C2F24E
:103700000000FEF757F9002818BFFCF777FF1020DC
:1037100032941CAA0021CDE930404FF480702E94E1
:10372000CDE92C4041F6B400CDE92A44CDE91C4452
:10373000C2F20000FEF7FAFA002818BFFCF75EFF9D
:1037400000201CAA01212D9041F6B400C2F2000015
:10375000FEF7ECFA002818BFFCF750FF41F6B40062
:103760001CAA0221C2F20000FEF7E0FA002818BFEE
:10377000FCF744FF4FF4AA6019AB00210122199015
:1037800041F6B400C2F20000FEF77AF9002818BF33
:10379000FCF734FF41F6B40019AB002104220024E9
:1037A000C2F20000FEF76CF9002818BFFCF726FFF4
:1037B0004FF00070CDE9104409AA00210F900F20AE
:1037C0000E90CDE90C44CDE90A044FF44060099015
:1037D00041F6B400C2F20000FDF7CEFF002818BF8A
:1037E000FCF70CFF202001AB0021012203900820F0
:1037F0000290002001900890CDE90600CDE9040078
:1038000041F6B400C2F20000FEF75CFA002818BFCF
:10381000FCF7F4FE41F6B40001AB01210422C2F230
:103820000000FEF74FFA002818BFFCF7E7FE41F64C
:10383000B40001AB02211022C2F20000FEF742FAEE
:10384000002818BFFCF7DAFE002001AB002102229D
:10385000CDE9020041F6B400C2F20000FEF732FAF0
:10386000002818BFFCF7CAFE41F6B40034AA0121B3
:10387000C2F20000FEF7C8F8002818BFFCF7BEFE31
:1038800041F6B40012AA0121C2F20000FEF7A4FB27
:10389000002818BFFCF7B2FE41F6B4000121002257
:1038A000C2F20000FEF786F8002818BFFCF7A6FE5B
:1038B0004FF42A7019AB01210122199041F6B4008E
:1038C000C2F20000FEF7DCF8002818BFFCF796FEF5
:1038D0004FF6DF7019AB01210422199041F6B400B4
:1038E000C2F20000FEF7CCF8002818BFFCF786FEF5
:1038F00041F6B40034AA0221C2F20000FEF784F8B7
:10390000002818BFFCF77AFE41F6B40012AA022183
:10391000C2F20000FEF760FB002818BFFCF76EFE45
:1039200041F6B40002210022C2F20000FEF742F884
:10393000002818BFFCF762FE4FF4887019AB022113
:103940000122199041F6B400C2F20000FEF798F887
:10395000002818BFFCF752FE41F6B40419AB02214F
:103960000422C2F200042046FEF78AF8002818BF9D
:10397000FCF744FE00263F96CDE93D66CDE93B6667
:103980002068A84202D040B0BDE8F08141F24C006E
:103990004FF00D08032702253BACC4F2020001687A
:1039A00041F002010160016801F002013A913A9987
:1039B000016841F0010101602146006800F001004A
:1039C0003A903A98CDF8FC80CDE93D673C954FF4AC
:1039D00080503B9040F20040C4F60000FDF7F2FB3F
:1039E0003CA8214680E8E0014FF4E0603B904FF0B6
:1039F0009040FDF7E7FB40B0BDE8F08180B541F6AF
:103A0000B01043F600014FF00C0C00224FF4E133EC
:103A1000C2F20000C4F20101C0E908228262C0E9DA
:103A20000013C0E90222C0E9042CC0E90622FFF716
:103A300011FB002818BFFCF7E1FD41F6B010002192
:103A4000C2F20000FFF7BEFA002818BFFCF7D6FD4F
:103A500041F6B0100021C2F20000FFF76BFA002817
:103A600018BFFCF7CBFD41F6B010C2F20000FFF723
:103A700045FA002814BFBDE8804080BDFCF7BEBDFC
:103A80004EF68850CEF20000016841F470010160EA
:103A900070470000816ACA070DD18A0716D44A0709
:103AA0001FD40A0728D4CA0631D48A063AD480B56E
:103AB0004A0659D542E002685368D0F82CC023F476
:103AC000003343EA0C0353608A07E8D50268536861
:103AD000D0F830C023F4803343EA0C0353604A0724
:103AE000DFD502685368D0F834C023F4802343EA5A
:103AF0000C0353600A07D6D502685368D0F838C063
:103B000023F4004343EA0C035360CA06CDD5026890
:103B10009368D0F83CC023F4805343EA0C039360CD
:103B20008A06C4D502689368D0F840C023F40053D5
:103B300043EA0C03936080B54A0615D5D0F800E03F
:103B4000DEF804C0436C2CF48012B3F5801F42EA07
:103B50000302CEF8042007D1DEF80420836C22F49F
:103B6000C0021A43CEF804200906BDE8804058BFC1
:103B7000704701684A68C06C22F400221043486014
:103B80007047000010B504460168806848F2000CD8
:103B9000D4E90423D4F81CE0C4F2000C614540EAE7
:103BA000020040EA030246F6F3100B68CCF6FF7001
:103BB00042EA0E0200EA03004FF2FF4340EA02002D
:103BC000C1F2FF1308604868E26820F4405040EA00
:103BD00002004860A2691CBF206A0243886818403E
:103BE000102310438860C86A626A20F00F001043F7
:103BF000C86244F6FF70C4F20000814213DC44F254
:103C00000040C4F2000081422AD044F60000C4F211
:103C10000000814226D044F60040C4F200008142F8
:103C200030D1062323E045F20000C4F200008142B7
:103C30001AD061451AD043F60000C4F20100814257
:103C400020D141F288007DA1C4F20200006800F09A
:103C5000030051F820300120BEF5004F18D02CE0B1
:103C6000022304E0042302E0082300E00A2341F2D7
:103C70008800C4F202000068D8406CA300F0030082
:103C800053F8203061452DD00120BEF5004F14D1EE
:103C9000082B00F2C48042F2004CC0F2F40CDFE8C2
:103CA00003F0056574BE6BBEBEBE7200FEF77AFE01
:103CB0008446002840F05E8063E0082B00F2AF806D
:103CC00042F2004CC0F2F40CDFE803F0057F8EA94D
:103CD00085A9A9A98C00FEF765FE8446002840F05E
:103CE00078807DE00120082B00F2998042F2004CA0
:103CF000C0F2F40CDFE803F0059314930B93939355
:103D00001200FEF74FFE844630B1626A08E0FEF70B
:103D100075FE84460028F8D1002080E04FF4004C66
:103D200044F29810C0F6000030F812006268BCFB44
:103D3000F0F102EB42030120994270D31303994240
:103D40006DD808020B0E10EB520043F10001002366
:103D5000FCF7D6FA4FF6FF42A0F54071C0F20F0211
:103D600091425BD82168C860002058E0FEF730FE21
:103D7000844630B1626A08E0FEF740FE84460028BF
:103D8000F8D100204BE04FF4004C44F298106168E9
:103D9000C0F6000030F812004A08BCFBF0F002EB5D
:103DA00040004FF6EF72B0FBF1F0A0F1100191422C
:103DB00009D84FF6F0710140C0F342000844216871
:103DC000C86000202BE0012029E0FEF701FE8446B8
:103DD00030B1626A08E0FEF711FE84460028F8D18F
:103DE00000201CE04FF4004C44F298106168C0F6CB
:103DF000000030F812004FF6EF72BCFBF0F000EB61
:103E00005100B0FBF1F0A0F11001914204D82168FB
:103E100080B2C860002002E0012000E00120002103
:103E2000C4E91C114FF00111A16610BD0000000093
:103E30000400000002000000080000000100000073
:103E40000400000002000000080000002DE9F0411D
:103E5000044600680D46C1692940491BB1FA81F149
:103E60004F09974229D1DDF81880B8F1000F27D00B
:103E700018F1010127D100BFC1692940491B18BFB2
:103E8000012197EA010F04BF0020BDE8F081C1695C
:103E90002940491B18BF01218F420ED0C16929401A
:103EA000491B18BF01218F4207D0C1692940491B16
:103EB00018BF012197EA010FDED10020BDE8F08193
:103EC000FDF76AFA22E01E46FDF766FA801B4045C0
:103ED00010D91BE0C0692840401B18BF012097EA99
:103EE000000F04BF0020BDE8F081FDF755FA801BEC
:103EF00040450BD820680168490744BFC1695FEAA3
:103F00000151E7D54FF40061016256E0206850E8A6
:103F1000000F216820F4D07041E80002E2B120686F
:103F200050E8000F216820F4D07041E800029AB1F7
:103F3000206850E8000F216820F4D07041E80002AA
:103F400052B1206850E8000F216820F4D07041E899
:103F50000002002ADAD100BF206850E8020F216871
:103F600020F0010041E80202DAB1206850E8020FB7
:103F7000216820F0010041E8020292B1206850E877
:103F8000020F216820F0010041E802024AB12068D6
:103F900050E8020F216820F0010041E80202002AE7
:103FA000DAD120200021C4F8840084F88010C4F8FD
:103FB00088000320BDE8F081206850E8000F2168E8
:103FC00020F4D07041E80002E2B1206850E8000F10
:103FD000216820F4D07041E800029AB1206850E8CE
:103FE000000F216820F4D07041E8000252B120682F
:103FF00050E8000F216820F4D07041E80002002A48
:10400000DAD100BF206850E8020F216820F00100DB
:1040100041E80202DAB1206850E8020F216820F07E
:10402000010041E8020292B1206850E8020F2168C5
:1040300020F0010041E802024AB1206850E8020F76
:10404000216820F0010041E80202002ADAD1202094
:104050000021C4F88400C4F8880084F88010C4F8F3
:104060008C000320BDE8F08194B0FEF709F800242D
:1040700000200C94CDE90A44CDE908440594CDE92B
:104080000344CDE90144FEF7C3F80220552103257E
:104090001390CDE91100109106210F91CDE90D0586
:1040A0004FF4803007900120069006A8FEF7E2FC4E
:1040B00018B1EFF3108072B6FEE70F20CDE904448B
:1040C000CDE902540421019001A8FEF7CDFA20B1F8
:1040D000EFF3108072B600BFFEE7FFF7EBF9FFF7D2
:1040E000C5F9FFF739FAFFF743F9FFF787FC41F607
:1040F000B4041721C2F200042046FDF701FE204659
:104100004FF47021FDF75CFD20464FF48031FDF740
:104110006BFD41F2E87041F2E2710322C2F200004D
:10412000C2F20001FCF7ACFE41F65400C2F20000FE
:104130000068016821F00E01016040F618000821B6
:10414000C4F60000016000BFFEE7F1EE100A4FF672
:10415000FF71C0F2C03120EA010040F04070E1EE92
:10416000100A704702000000040000000800000070
:1041700010000000200000004000000001000000CE
:104180000000000000000000010203040607080907
:104190000000000001020304010002000400060008
:1041A00008000A000C001000200040008000000100
:1041B00001010103070100000804020408010101D4
:1041C000E0410008000000208017000014020008F1
:1041D000B845000880170020C808000078020008D1
:1041E0000007FF1000000001000101FF0101FF01B5
:1041F00001E70100FF0011002100320043005300DD
:104200006400750085009600A700B700C800D900BB
:10421000E900FA000B011B012C013C014D015D017D
:104220006E017E018F019F01B001C001D101E1014A
:10423000F201020212022302330243025402640218
:10424000740284029502A502B502C502D502E502F8
:10425000F5020503150325033503450354036403E1
:10426000740384039303A303B303C203D203E103E0
:10427000F10300040F041F042E043D044D045C04EC
:104280006B047A0489049804A704B604C504D30413
:10429000E204F10400050E051D052B053A0548054D
:1042A00056056505730581058F059D05AB05B905A7
:1042B000C705D505E305F005FE050C06190627061A
:1042C000340641064F065C066906760683069006AC
:1042D0009D06AA06B706C306D006DC06E906F50663
:1042E00002070E071A07260732073E074A07560736
:1042F00062076E0710E67907850790079C07A707F6
:10430000B207BD07C807D307DE07E907F407FE07B2
:10431000090814081E08280833083D0847085108F2
:104320005B0865086F08780882088B0895089E0866
:10433000A708B008BA08C308CB08D408DD08E60807
:10434000EE08F708FF0807090F0917091F092709D1
:104350002F0937093F0946094D0955095C096309C9
:104360006A09710978097F0986098C0993099909F5
:104370009F09A509AC09B209B709BD09C309C90953
:10438000CE09D309D909DE09E309E809ED09F209E3
:10439000F709FB09000A040A080A0D0A110A150A9E
:1043A000190A1C0A200A240A270A2A0A2E0A310A94
:1043B000340A370A3A0A3D0A3F0A420A440A470ABF
:1043C000490A4B0A4D0A4F0A510A530A540A560A1F
:1043D000570A580A5A0A5B0A5C0A5D0210045E0A10
:1043E0005F02B260022112325E1E125C28125A3045
:1043F000125738125440125148124D501249581257
:104400004460123F68123A70123478122E801227DC
:10441000881220901219981211A01208A8100400F6
:104420000AFBB412F2BC12E8C412DECC12D3D412CE
:10443000C9DC12BDE412B2EC12A5F41299FC168C80
:1044400004167F0C16711416631C16552416462C80
:1044500016373416273C16174414040709FF501664
:10446000EE5816DD6016CB6816BA7016A77816954A
:1044700080168288166F90165B981647A01633A890
:10448000161EB014040908FEBC16E9C416D3CC16D7
:10449000BDD416A7DC1690E41679EC1662F4164A21
:1044A000FC1A32041A1A0C18040207F5181ADC2038
:1044B0001AC3281AAA301A90381A76401A5C481A79
:1044C00041501A275818040C06FE641AE36C1AC7E8
:1044D000741AAB7C1A8F841A738C1A56941A3A9CED
:1044E0001A1DA418040005F1B01AD3B81AB6C01AE0
:1044F00098C81A7AD01A5CD81A3DE01A1FE8180436
:104500000004F1F41AD2FC1EB304031E930C031E24
:104510007414031E541C031E3524031C06150305C6
:1045200003F534031ED53C031EB544031E954C030E
:104530001E7454031E545C031E3364031C061202D3
:104540000202F274031ED17C031EB084031E8F8C02
:10455000031E6E94031E4D9C031E2CA4031C040B0F
:1045600001FAB0031ED9B8031EB7C0031E96C803D4
:104570001E75D0031E53D8031E32E0030EFF11E850
:10458000030DFFE8030DFFE8030DE6E80301FF015B
:1045900001FF0101FF0101E30102FF010201FF022E
:1045A00001FF0201E00201FF0101FF0101FF010122
:0845B000E4013324F482000051
:04000005080001D915
:00000001FF
