:020000040800F2
:100000007807002079020008D51E0008511A000860
:10001000D11E000881030008F91E0008000000003E
:10002000000000000000000000000000DD1E0008CD
:100030008503000800000000D91E0008E11E00082A
:10004000930200089302000893020008930200083C
:10005000930200089302000893020008930200082C
:10006000930200089302000893020008930200081C
:10007000930200089302000893020008930200080C
:1000800093020008930200089302000893020008FC
:1000900093020008930200089302000893020008EC
:1000A00093020008930200089302000893020008DC
:1000B00093020008930200089302000893020008CC
:1000C00093020008930200089302000893020008BC
:1000D00093020008930200089302000893020008AC
:1000E000930200089302000893020008930200089C
:1000F000930200089302000893020008930200088C
:10010000930200089302000893020008930200087B
:10011000930200089302000893020008930200086B
:10012000930200089302000893020008930200085B
:10013000930200089302000893020008930200084B
:100140009302000893020008930200082D1900088A
:10015000930200089302000893020008930200082B
:10016000930200089302000893020008930200081B
:10017000930200089302000893020008930200080B
:1001800093020008930200089302000893020008FB
:100190009302000800000000930200089302000888
:1001A00093020008930200089302000893020008DB
:1001B00093020008930200089302000893020008CB
:1001C00093020008930200089302000893020008BB
:1001D000930200089302000800F002F800F03CF8D7
:1001E0000AA090E8000C82448344AAF10107DA4592
:1001F00001D100F031F8AFF2090EBAE80F0013F0A8
:10020000010F18BFFB1A43F001031847141E00002A
:10021000341E0000103A24BF78C878C1FAD85207BB
:1002200024BF30C830C144BF04680C607047000070
:100230000023002400250026103A28BF78C1FBD8EF
:10024000520728BF30C148BF0B6070471FB501F08F
:10025000C4FE1FBD10B510BD00F058F81146FFF7E1
:10026000F5FF01F04BFE00F076F803B4FFF7F2FF64
:1002700003BC00F07DF800000948804709480047AA
:10028000FEE7FEE7FEE7FEE7FEE7FEE7FEE7FEE746
:10029000FEE7FEE704480549054A064B70470000A3
:1002A000E51E0008D9010008780100207807002029
:1002B00078030020780300204FF0000200B51346B9
:1002C00094469646203922BFA0E80C50A0E80C5076
:1002D000B1F12001BFF4F7AF090728BFA0E80C5027
:1002E00048BF0CC05DF804EB890028BF40F8042B20
:1002F00008BF704748BF20F8022B11F0804F18BF8D
:1003000000F8012B7047704770477047754600F042
:100310002BF8AE4605006946534620F00700854697
:1003200018B020B5FFF7B6FFBDE820404FF000063B
:100330004FF000074FF000084FF0000BAC46ACE860
:10034000C009ACE8C009ACE8C009ACE8C00921F0BC
:1003500007018D46704710B50446AFF30080204674
:10036000BDE81040FFF781BF004870471000002033
:1003700001491820ABBEFEE72600020070470000CE
:10038000FEE7000070470000EFF3108072B600BF78
:10039000FEE700002DE9F04F82B00E68002E00F05D
:1003A000DA8041F2004206274FF0000A00244FF0A5
:1003B0000008C4F60002904200F1384208BF052749
:1003C0004FEAB223052B38BF4FEAB2270097012727
:1003D0007B1E012202FA03F516EA050900F0AF8040
:1003E000D1F804B00BF00306721E012A18D80322BC
:1003F00002FA04FC826822EA0C0ECA686FEA0C0C4E
:10040000A24042EA0E028260CBF3001202FA03FE1F
:100410004268AA4342EA0E024FEA480E42600BE0ED
:100420000322032EA64602FA04F26FEA020C03D15D
:10043000A646032622E000BFC2688D68022E02EAAB
:100440000C0205FA0EF542EA0502C26016D10AF066
:100450001C020F2505FA02FB6FF0030505EA53069F
:100460000644356A25EA0B0B0D6905FA02F242EAE9
:100470000B023262D1F804B00BF0030606FA0EF25A
:1004800006681BF4403F06EA0C0642EA06020260D8
:1004900055D041F2600240F2004E0AF00C05C4F261
:1004A0000202C4F2010E1646126842F001023260E6
:1004B000326802F00102019223F003024FF6084372
:1004C000CFF6FF737244019E9B4652F803C00F2380
:1004D00003FA05F6009B2CEA060603FA05F52E43FF
:1004E00042F80B60DEF808204D6842EA0906EB028C
:1004F00058BF22EA090640F20C42CEF80860C4F266
:100500000102AE029446126842EA090358BF22EA89
:100510000903CCF80030AE03DEF8042042EA0903F8
:1005200058BF22EA0903CEF80430EE03DEF80020BB
:1005300042EA090358BF22EA0903CEF800300E68E8
:100540000AF1040A023408F1010836FA07F207F149
:1005500001077FF43DAF02B0BDE8F08F1823002AF9
:1005600008BF2823C150704740F27010C2F200004B
:100570000068704790F8DC300222012B21D080F80F
:10058000DD2001224B1C80F8DC200268D2F8CCC3AD
:1005900009D04CF00203C2F8CC33D2F8CC3323F0AC
:1005A0000C03194301E02CF00201C2F8CC13D2F87D
:1005B000CC1341F00101C2F8CC130121002280F8D4
:1005C000DD1010467047000090F8DD30022B02BFAE
:1005D00002231846704790F8DCC00223BCF1010FDB
:1005E0003ED070B580F8DD300023D2F814C0C0F2E0
:1005F000FF1303EA0C4CD2E900E3D2E902460EF401
:10060000E0556FF35F2306F400462B4404F40075B5
:100610002B44156905F480452B44334496696344A3
:1006200006F000763344166AD26906F0804602F07E
:100630000042334342F200061A430368C3F6004601
:1006400003EBC111D1F8B83033401A430023C1F88D
:10065000B820012180F8DC3080F8DD10BDE8704062
:1006600018467047002804BF0120704710B582B0BB
:1006700004460020C4E93800C4E93A00C4E93C005B
:10068000C4F8F800022084F8DD00207AC0071FD0EB
:1006900046F600012068C4F2010188420CD141F203
:1006A0006001C4F202010A6842F080620A600968CF
:1006B00001F08061019101990168D4E9042321F4DA
:1006C000704102F44042114403F44052114401606D
:1006D000204600F03DF8207A800706D520680168A2
:1006E000E268120A62F3092101600020012184F806
:1006F000DC0084F8DD10C4F8D800C4E90600C4E9C1
:100700000800A062C4E90C00C4E90E00C4E91000AE
:10071000C4E91300C4E91500C4E91700C4E91A00CC
:10072000C4E91C00C4E91E00C4E92100C4E9230097
:10073000C4E92500C4E92800C4E92A00C4E92C0062
:10074000C4E92F00C4E93100C4E9330002B010BD90
:1007500046F600010068C4F20101884218BF7047E4
:1007600080B582B041F260000022C4F2020001684C
:1007700041F0806101600121006800F0806001901B
:100780000198432000F012FC432002B0BDE88040F5
:1007900000F0FCBB70B50D460446FFF7E5FE0646CB
:1007A0002068D0F88813C9031ED425B3691C11D161
:1007B000D0F88813C90317D4D0F88813C9035CBFD5
:1007C000D0F888135FEAC1310ED4D0F88813C9037A
:1007D000EED509E0FFF7C8FE801BA8420DD82068BF
:1007E000D0F88803C003F5D50020012184F8DC008F
:1007F00084F8DD1070BDFFF7B7FE072084F8DD0038
:10080000032070BD90F8DD30022B02BF0223184692
:10081000704790F8DCC00223BCF1010F19D080B5FD
:100820004FF0010C80F8DD3080F8DCC0036803EB8A
:10083000C11E5EF8EC3FD90642BF910961F38F13E8
:10084000CEF80030002380F8DC3080F8DDC0BDE851
:10085000804018467047000090F8DDC00223BCF1CC
:10086000020F32D080B580F8DD300629036810D140
:10087000196821F01F0CD2E9021E21F0180141EA8B
:100880000C0141EA0E0119601168596151689961C2
:1008900015E003EBC111D1F8803023F01F0CD2E931
:1008A000023E23F0180343EA0C0343EA0E03C1F8A7
:1008B00080301368C1F894305268C1F89820012143
:1008C000002380F8DD10BDE8804018467047000026
:1008D00080B590F8DDC0BCF1020F02BF4FF0020CF2
:1008E000604680BD90F8DCE04FF0020CBEF1010FD5
:1008F00000F08B8080F8DDC04FF0010C062980F8F5
:10090000DCC00CD1511E07291BD8DFE801F00421FF
:100910001A251A1A1A2901681A68CA6166E0A2F132
:10092000010CBCF1070F0CD8DFE80CF0041E0B37EC
:100930000B0B0B3E026802EBC1111A68C1F89C2038
:1009400054E0002180F8DC10072180F8DD104DE034
:1009500001681A684A6249E001681A688A6245E0DB
:1009600001681A68CA6241E0026802EBC11C19689A
:10097000CCF8A4106146D3F804E051F8802F22F49B
:100980004052BEF1000F0A6030D00A6842EA0E02FF
:10099000BEF5405F0A601FD125E0026802EBC1117D
:1009A0001A68C1F8A82021E0026802EBC11C19688E
:1009B000CCF8AC106146D3F804E051F8802F22F453
:1009C0004042BEF1000F0A6010D00A6842EA8E026F
:1009D000BEF5405F0A6006D0BEF5005F04BF9968AF
:1009E000CCF89C1002E09968CCF8A81090F8DD10C3
:1009F000072902BF4FF0010C604680BD4FF0000C8C
:100A0000012180F8DCC080F8DD10604680BD000068
:100A100090F8DC300222012B0BD080F8DD20026838
:100A20001368194311600022012180F8DC2080F84E
:100A3000DD1010467047000090F8DC300222012BD8
:100A40002BD080F8DD20012280F8DC20D0E9002CBA
:100A5000D2F8903343EA0C03C2F89033CB031ED490
:100A60008B0324D44B032CD40B0334D4CB023CD4BF
:100A70008B0244D44B0207D5D0F8ACC0D2F80C336B
:100A800043EA0C03C2F80C331368194311600022C7
:100A9000012180F8DC2080F8DD1010467047D0F886
:100AA000C8C0D36843EA0C03D3608B03DAD5D0F80F
:100AB00020C0D2F88C3043EA0C03C2F88C304B03D0
:100AC000D2D5D0F83CC0D2F80C3143EA0C03C2F8BE
:100AD0000C310B03CAD5D0F858C0D2F88C3143EA98
:100AE0000C03C2F88C31CB02C2D5D0F874C0D2F856
:100AF0000C3243EA0C03C2F80C328B02BAD5D0F8A0
:100B000090C0D2F88C3243EA0C03C2F88C324B020C
:100B1000B2D4B9E7B0B5044690F8DD00022804BFAE
:100B20000220B0BD94F8DCC00220BCF1010F08BF68
:100B3000B0BD012584F8DD0084F8DC50206800F0A9
:100B40000BFF002084F8DC0084F8DD50B0BD00000D
:100B500090F8DC300222012B0DD080F8DD200268F5
:100B6000D2F894331943C2F894130022012180F87B
:100B7000DC2080F8DD101046704700002DE9F04FB2
:100B800084B090F8DD30022B04D10223184604B063
:100B9000BDE8F08F90F8DC700223012F00F0208177
:100BA00080F8DD300123062980F8DC30D0F800B071
:100BB0003FD1DBF80070DBF8A0C3556927F0E007F0
:100BC00025F0C004202D47EA040709D09569042DBB
:100BD00000F00A81032D00F00A81022D40F00A8105
:100BE00047F020074FF2FF3ED2E90746D2E9093825
:100BF000C3F2FF1E0EF5006507EA0E0726F06E46EB
:100C000023F0684325402F433743566B3B4328F07E
:100C100060473B43D76A43EA870323F000533343DB
:100C2000166BCBF800302CF480333343CBF8A03371
:100C3000A7E00BEBC11CE6465EF8803F23F0704353
:100C4000CEF800306346DEF8004053F8E88F039397
:100C5000634624F0200453F8E45F00950293DBF828
:100C6000A03356693443202E019309D09669042E8F
:100C700000F0C380032E00F0C480022E40F0C58037
:100C800024F4D07420344FF6FF76C0F2FD1606F53A
:100C9000FA3706F5FE333C40D2E90775D2E909A9D7
:100CA0003B40D76A234305EA0604234306F1C064A8
:100CB00004EA0A04234306F16064566B04EA09045B
:100CC00023434FF6BF74B6F1005F43EA0703CFF644
:100CD000006403EA040508BF43F4003504F500335B
:100CE0004FF6FF74D2F83890966DCFF602642B4021
:100CF00009EA040504F580243440966C2C43156DF4
:100D00002C4344EA030A009C536C24F4807443EAA5
:100D100004054FF6C073D46BC7F6FF7303EA0803EC
:100D200004F03F042344146C43EA040846F480535F
:100D3000B3F5F05F02D1B9F1400F03D125F4F053C0
:100D400043EA0605D36C25F48045566D019C0529C0
:100D500045EA03050AD82EA353F8213004EA030913
:100D6000146B4B1C04FA03F343EA0904CEF800A009
:100D7000039BC3F80080029B1D60CCF8D460CBF8C5
:100D8000A043C1EBC1031668062900EB83031E6272
:100D900056685E6296689E62D668DE6216691E6359
:100DA0000AD841F6F473DBF88463C0F6000353F805
:100DB00021303343CBF8843367B906290AD00BEBD3
:100DC000C111D1F88030D26D23F4007343EA42227E
:100DD000C1F880200023012180F8DC3080F8DD108C
:100DE000184604B0BDE8F08F47F08007FAE647F0F8
:100DF0004007F7E627F0E007F4E6022666F3C8149A
:100E000041E7012666F3C8143DE724F4D0743AE7BD
:100E1000FFFFFDFFFFFFFBFFFFFFF7FFFFFFEFFF00
:100E2000FFFFDFFFFFFFBFFF90F8DD30022B02BFA7
:100E300002231846704790F8DCC00223BCF1010F72
:100E400044D02DE9F04180F8DD3001234FF6EF74F6
:100E500080F8DC30CFF6EC74D0F800C00CEBC11E8B
:100E60005EF8EC3F92E86001D7682340013404EA61
:100E70000514234326F44034234327F4003423434A
:100E8000946943EA0803012C09D1D2E9044223F012
:100E9000060324F0020423431A4342F00103CEF870
:100EA00000300629BDE8F0410AD841F6F472C0F6D8
:100EB000000252F82110DCF884231143CCF884138B
:100EC0000023012180F8DC3080F8DD1018467047DF
:100ED00040F2000040F27011C2F20000C2F20001C4
:100EE00040680A68104408607047000080B503201D
:100EF00000F08AF80F2000F009F800281CBF01203C
:100F000080BD00F029F8002080BD000070B540F2DF
:100F100000060446C2F200067068D0B14FF47A7140
:100F2000B1FBF0F040F20801C2F200010968B1FB28
:100F3000F0F000F0E5FC01250F2C08D838B94FF08F
:100F4000FF3021460022002500F030F834602846AA
:100F500070BD0125284670BD82B041F25800C4F230
:100F60000200816841F001018160816801F00101A6
:100F700001910199016841F080510160006800F021
:100F800080500090009802B000F0E4B80028B8BF8C
:100F9000704700F01F010122400902FA01F14EF2F0
:100FA0000012CEF2000242F82010704710B500F097
:100FB0000F034EF60C5E00F1604CB0F1FF3FA3F161
:100FC0000403CEF2000E734403F10C04C8BF0CF509
:100FD0006444DEF800004FF0FF3CC0F30220C31E63
:100FE00080F0070038BF0023042828BF04200CFA33
:100FF00000F021EA00000CFA03F1984022EA010116
:1010000008430001207010BD4EF60C514FF6FF034F
:10101000CEF200010A681A4060F30A2242F08060B2
:1010200040F0FD7008607047002847D047F2140177
:10103000B0F5007FC4F2000151F8142C40F082801A
:10104000C86E40F48070C86602F4C060B0F5806F6E
:1010500076D151F8140C012262F34A20322241F871
:10106000140C40F20800C2F20000006850434DF634
:101070008362C4F21B32A0FB0202900C0A68431C7C
:1010800018BF12F4806212D00A68002818BF12F448
:1010900080620CD00A68012818BF12F4806206D062
:1010A0000A68022803D0043812F48062E6D1086886
:1010B000400544BF032070470020704747F21400EA
:1010C000C4F2000050F8141CC26E01F4C06122F496
:1010D0008072B1F5806FC26632D150F8141C0122C3
:1010E00062F34A21322240F8141C40F20801C2F295
:1010F0000001096851434DF68362C4F21B32A1FB23
:101100000212910C02684B1C18BF12F4806212D0BC
:101110000268002918BF12F480620CD0026801290D
:1011200018BF12F4806206D00268022903D0043985
:1011300012F48062E6D10068400544BF0320704786
:1011400000207047022060F34A2241F8142C00204E
:101150007047000047F20800C4F20000016841F443
:1011600080410160704700002DE9F047002800F041
:10117000AC8042F2000A04460D46C4F2020ADAF8D4
:10118000000000F00F0088420DD2DAF8000020F0D5
:101190000F002843CAF80000DAF8000000F00F0042
:1011A000A84240F09280216841F20808C4F2020887
:1011B000C80743D14FF00009880700F1F180B9F169
:1011C000800F04D1D8F8000020F0F000FFE0DAF83A
:1011D000000000F00F00A84240F20281DAF800009F
:1011E00020F00F002843CAF80000FFF7BDF90646BB
:1011F00041F28837DAF8000000F00F00A8420DD065
:10120000FFF7B2F9801BB84284BF0320BDE8F08726
:10121000DAF8000000F00F00A842F1D12168480779
:1012200040F1E180D8F80000E26820F4E06010436B
:10123000C8F80000080700F1D880DFE060680328E4
:1012400037D158F8082C92013FD5D8F80420D8F8A7
:101250000430D8F804C0D8F804600227C6F3416609
:1012600002F0030207EB460742F20046032AC0F2EF
:10127000F40604BF43F20066C0F26E16C3F3031215
:10128000CCF306230132B6FBF2F25A434BF2004391
:10129000B2FBF7F2C0F2C4439A425ED9D8F80020FC
:1012A00012F0F00F4FD0890757D5A168002954D10B
:1012B00049E058F8081C022805D189035CBF0120C9
:1012C000BDE8F08704E0490502D40120BDE8F087BD
:1012D000D8F8001001F00C0104293ED0D8F8001015
:1012E00001F00C01082938D0D8F8001001F00C01E9
:1012F0000C2932D1D8F80410D8F80420D8F80430DA
:10130000D8F804700226C7F3416701F0030106EB29
:10131000470742F200460329C0F2F40604BF43F235
:101320000066C0F26E16C2F30311C3F30622013148
:10133000B6FBF1F151434BF20042B1FBF7F1C0F2C1
:10134000C442914209D9D8F8001008224FF0800910
:1013500062F30711C8F8001001E04FF00009D8F857
:10136000001021F003010843C8F80000FFF7FCF863
:10137000064641F2883707E0FFF7F6F8801BB842CF
:1013800084BF0320BDE8F087D8F80000616800F052
:101390000C00B0EB810FEFD1216888077FF50FAF0C
:1013A000480742BFD8F8000040F4E060C8F80000E9
:1013B000080706D5D8F80000072262F30D20C8F808
:1013C0000000D8F80000A26820F0F0001043C8F830
:1013D0000000DAF8000000F00F00A8423FF6FEAE71
:1013E00048073FF51FAF080708D5D8F80000216966
:1013F00020F4605040EAC100C8F80000D8F80000AE
:1014000042F20041C0F2F40100F00C00042808464A
:101410002DD0D8F8000000F00C0243F20060C0F2BA
:101420006E10082A23D0D8F8002002F00C020C2AF3
:101430001CD1D8F8042002F00302032A08BF014699
:10144000D8F804000222C0F303100130B1FBF0F021
:10145000D8F80410C1F306214843D8F80410C1F3AA
:10146000416102EB4101B0FBF1F000E00020D8F84F
:10147000001042F21002C0F60002C1F30311515CE9
:1014800001F01F01C84040F20801C2F200010860EB
:1014900040F20000C2F200000068BDE8F047FFF72C
:1014A00035BD00002DE9F04182B0002800F0BA817E
:1014B0000446007841F20006C4F20206C0071ED1BD
:1014C0002078800747D42078000740F1B780616911
:1014D000D6F89400002900F0848040F00100C6F89E
:1014E0009400FFF741F80546D6F89400800700F114
:1014F000A580FFF739F8401B0228F5D9EBE0B16869
:10150000F06801F00C01082949D0032281F00C0198
:1015100022EA00000844B0FA80F040093FD1676831
:10152000B7F5803F07D03068B7F5A02F40F0D780DF
:1015300040F480203060306840F480303060FFF745
:1015400013F8054630688003BAD4FFF70DF8401B46
:101550006428F7D9BFE0B068F16800F00C000428F7
:1015600026D001F0030180F00C0081F00201084454
:10157000B0FA80F040091BD1E1683068002941D001
:1015800040F480703060FEF7EFFF0546306840059C
:1015900049D4FEF7E9FF401B0228F7D99BE03068E9
:1015A00080037FF58DAF606800287FF489AF39E153
:1015B0003068400503D5E068002800F0338170688A
:1015C000216920F0FE4040EA0160706040F20000B6
:1015D000C2F200000068FFF799FC002840F0228169
:1015E00071E720F00100C6F89400FEF7BDFF054644
:1015F000D6F89400800721D5FEF7B6FF401B0228DD
:10160000F6D968E020F480703060FEF7ADFF054643
:10161000306840057FF557AFFEF7A6FF411B03205A
:101620000229F5D969E17068216920F0FE4040EA9D
:1016300001607060207800073FF549AF20784007CF
:1016400040F18880B06DC0000BD4B06D4FF0010840
:1016500040F08050B065B06D00F08050019001986E
:1016600001E04FF0000847F20007C4F200073868B5
:10167000C00510D4386840F480703860FEF774FFFD
:10168000054600BF3868C00505D4FEF76DFF401B56
:101690000228F7D91FE0A768012F07D0D6F89000DD
:1016A000052F34D140F00400C6F89000D6F8900021
:1016B00040F00100C6F89000FEF756FF054641F2E3
:1016C000883700BFD6F8900080073CD4FEF74CFF67
:1016D000401BB842F6D9032002B0BDE8F08120F4E7
:1016E00080303060306820F480203060FEF73CFFAE
:1016F0000546002F7FF426AF306880037FF5E0AE0B
:10170000FEF732FF411B03206429F5D9F5E020F0F4
:101710000100C6F89000D6F8900020F00400C6F84A
:101720009000FEF721FF0546002FC8D141F288370F
:10173000D6F89000800706D5FEF716FF411B032060
:10174000B942F5D9D9E0B8F1000F1EBFB06D20F055
:101750008050B0652078800627D5A169D6F898001A
:1017600089B140F00100C6F89800FEF7FDFE05467D
:10177000D6F89800800718D4FEF7F6FE411B032028
:101780000229F5D9B9E020F00100C6F89800FEF76B
:10179000EBFE0546D6F89800800706D5FEF7E4FE76
:1017A000411B03200229F5D9A7E0E069002800F0D9
:1017B000A380B16801F00C010C2937D1012831D088
:1017C000F068216A00F003028A422BD1616A6FF04F
:1017D0000F0202EB011100F0F0028A4222D1A16A4D
:1017E00000F4FE42B2EB012F1CD1E16A00F0784216
:1017F000B2EBC16F16D10022216BCFF6E07202EA84
:10180000015100F4C002A1F500118A420AD1616BB6
:101810004FF07E4200F0C06002EA016101F17E41BA
:10182000884269D0012002B0BDE8F0813168022809
:1018300021F0807131600DD1FEF796FE054600BFA4
:10184000306880011ED5FEF78FFE411B0320022960
:10185000F6D952E0F0684FF6FF71CFF6EE6120F056
:101860000300F060F0680840F060FEF77DFE04467B
:101870003068800140D5FEF777FE011B0320022966
:10188000F6D93AE004F12007F0686FF00F058ECF2B
:1018900005EB021248F20C05C0F29F1528400843E0
:1018A000216B10430022CFF6E07240EA032002EAE7
:1018B00001514FF07E42A1F500110843616B40EAEF
:1018C000C76002EA016101F17E410843F0603068BF
:1018D00040F080703060F06840F08070F060FEF79B
:1018E00043FE04463068800106D4FEF73DFE011B2E
:1018F00003200229F6D900E0002002B0BDE8F08103
:10190000411E0020B0EB116F1CBF012070474EF24A
:101910001002F023CEF2000251604EF62351CEF2B7
:1019200000010B70072190601160704740F61800AD
:1019300040F2700204210023C4F60000C2F200024B
:101940000160136040F274024023C2F20002126888
:1019500093600161704700002DE9F04100EBC11474
:1019600000217F2AA04658F8E4EF58F82CCC00F369
:101970002E80013A3F2A00F24280DFE802F020394F
:10198000402040404039404040404040402040409E
:10199000404040404040404040404040403940404E
:1019A0004040404040404040404040404040404037
:1019B0004040404040404040404040404020596806
:1019C000C4F8BC109968C4F8C010002117E0B2F543
:1019D000007F07DB0CD0B2F5006F09D0B2F5806F45
:1019E000EDD00CE0802A03D0B2F5807FE7D006E08E
:1019F0005968C4F8C4109968C4F8C8101021FE22B0
:101A00001D6803F10C071CF0022F02FA01F2D1CF7E
:101A10002EEA020205FA01F542EA050200FA01F097
:101A200040EA020004FA01F240EA020006FA01F27A
:101A300040EA020007FA01F242EA000201BF082C64
:101A4000D86988400243C8F80020BDE8F081000052
:101A5000FEE7000070B586B041F24C00002540F66C
:101A60000004012201260595C4F20200C4F6000418
:101A7000016841F020010160016801F0200100913E
:101A80000099016841F004010160016801F004015E
:101A900000910099016841F002010160016801F0C4
:101AA000020100910099016841F0010101600421E7
:101AB000006800F00100009000982046FEF74EFDFF
:101AC000204608210022FEF749FD032001A90490C9
:101AD0000C20CDE9026501902046FEF75BFC06B0C4
:101AE00070BD00002DE9F041BEB000241CA86021AB
:101AF000CDE93644CDE93444FEF7DEFB09A82421C4
:101B0000CDE91A44CDE91844CDE91644CDE9144491
:101B1000CDE91244FEF7D0FB40F2740046F6000512
:101B2000C2F20000C4F20105C0E900548460CDE9AE
:101B30000744CDE90544CDE90344CDE90144FEF76E
:101B400091FD002818BFFEF71FFC40F274000C2125
:101B5000C2F20000FEF70EFD002818BFFEF714FCCD
:101B600040F274000A21C2F20000FEF713FE0028C2
:101B700018BFFEF709FC0820002434AA062137907C
:101B80004FF4AA50CDE93544349040F27400C2F2CB
:101B90000000FEF761FE002818BFFEF7F5FB0120EC
:101BA0001CAA0621CDE91F404020CDE91D441C9010
:101BB0004FF000502594CDE92344CDE921443394DE
:101BC00029904FF00060CDE92744269040F2740040
:101BD000C2F20000FEF7D2FF002818BFFEF7D4FBC8
:101BE0004FF42A6034AA00210024349040F274009B
:101BF000C2F20000FEF730FE002818BFFEF7C4FB5B
:101C000001201B94189415AA0021159040F274002D
:101C1000C2F20000FFF708F9002818BFFEF7B4FB76
:101C200040F27400002100220024C2F20000FEF7FE
:101C3000E9FD002818BFFEF7A7FB102032941CAA6C
:101C40000021CDE930404FF480702E94CDE92C4036
:101C500040F27400CDE92A44CDE91C44C2F20000F0
:101C6000FEF78CFF002818BFFEF78EFB00201CAA91
:101C700001212D9040F27400C2F20000FEF77EFFB9
:101C8000002818BFFEF780FB40F274001CAA022156
:101C9000C2F20000FEF772FF002818BFFEF774FBC7
:101CA0004FF4AA6012AB002101220024129040F2EE
:101CB0007400C2F20000FEF70BFE002818BFFEF70A
:101CC00063FB4FF440600E94CDE90C44CDE90A4427
:101CD00009AA002109904FF00070CDE910440F903F
:101CE00040F27400C2F20000FEF76EFC002818BF3C
:101CF000FEF74AFB082001AB00210122CDE90200DA
:101D0000002001900890CDE90600CDE9040040F2E2
:101D10007400C2F20000FEF7FDFE002818BFFEF7B7
:101D200033FB40F2740001AB01210422C2F2000037
:101D3000FEF7F0FE002818BFFEF726FB40F2740005
:101D400001AB02211022C2F20000FEF7E3FE0028E0
:101D500018BFFEF719FB002001AB00210222CDE9DC
:101D6000020040F27400C2F20000FEF7D3FE002829
:101D700018BFFEF709FB40F2740034AA0121C2F239
:101D80000000FEF769FD002818BFFEF7FDFA40F2DB
:101D9000740015AA0121C2F20000FFF745F80028DF
:101DA00018BFFEF7F1FA40F2740001210022C2F2DE
:101DB0000000FEF727FD002818BFFEF7E5FA4FF4F4
:101DC0002A7012AB01210122129040F27400C2F27B
:101DD0000000FEF77DFD002818BFFEF7D5FA40F29F
:101DE000740034AA0221C2F20000FEF735FD00287B
:101DF00018BFFEF7C9FA40F2740015AA0221C2F218
:101E00000000FFF711F8002818BFFEF7BDFA40F2F6
:101E1000740002210022C2F20000FEF7F3FC002849
:101E200018BFFEF7B1FA40F274044FF4887012AB99
:101E300002210122C2F2000412902046FEF748FD62
:101E4000002818BFFEF7A0FA00263D96CDE93B66B4
:101E5000CDE939662068A84202D03EB0BDE8F081E5
:101E600041F24C004FF00D080327022539ACC4F2B3
:101E70000200016841F002010160016801F0020105
:101E800038913899016841F00101016021460068EC
:101E900000F0010038903898CDF8F480CDE93B6728
:101EA0003A954FF48050399040F20040C4F600005B
:101EB000FEF770FA3AA8214680E8E0014FF4E060AE
:101EC00039904FF09040FEF765FA3EB0BDE8F081E2
:101ED000FEE70000FEE700007047000070470000CA
:101EE000FEF7F6BF4EF68850CEF20000016841F4CE
:101EF0007001016070470000FEE7000094B0FEF73B
:101F0000F5FF002400200C94CDE90A44CDE90844F3
:101F10000594CDE90344CDE90144FFF785F802209B
:101F2000552103251390CDE91100109106210F9141
:101F3000CDE90D054FF4803007900120069006A8EA
:101F4000FFF7B0FA18B1EFF3108072B6FEE70F207A
:101F5000CDE90444CDE902540421019001A8FFF722
:101F600003F920B1EFF3108072B600BFFEE7FFF770
:101F700071FDFFF7B7FD40F274044FF48031C2F2F7
:101F800000042046FEF758FD20464FF48031FEF74E
:101F90003FFD20464FF40031FEF73AFD2046032175
:101FA000FEF7D6FD20464FF48021FEF731FD204696
:101FB0000421FEF7CDFD20464FF40021FEF728FD59
:101FC00020461021FEF7C4FD42F20800CEF20400C4
:101FD000016841F004010160FEE7F1EE100A4FF6DE
:101FE000FF71C0F2C03120EA010040F04070E1EE24
:101FF000100A704702000000040000000800000002
:10200000100000002000000040000000010000005F
:102010000000000000000000010203040607080998
:1020200040200008000000201000000014020008FA
:10203000502000081000002068070000300200084F
:1020400010000000010000000024F4000000000067
:04000005080001D915
:00000001FF
